01103201904273311032019CEADM100390833         10440482000154GETNET S.A.         000001135GSSANT. V.8.0 400 BYTES                                                                                                                                                                                                                                                                                                
11002501        SVPOS393698363100320190904201903300305900130803572000000001000000000000000008750000000008569000000000000000000000181000000000000000000008569000000000000PF01061002501        00000000000000000000000000000000000000000000000000000000000000000000000000000000000000000000986 +                                                                                                                  
21002501        39369836300000006129210032019184626453211******9354   0000000524800000000000000000000000000601000000008750090420190000683861POSC1002501        02628088986N+                                                                                                                                                                                                                                    
11002501        SVPOS393698363100320190905201903300305900130803572000000001000000000000000008746000000008567000000000000000000000179000000000000000000008567000000000000PF02061002501        00000000000000000000000000000000000000000000000000000000000000000000000000000000000000000000986 +                                                                                                                  
21002501        39369836300000006129210032019184626453211******9354   0000000524800000000000000000000000000602000000008746090520190000683861POSC1002501        02628088986N+                                                                                                                                                                                                                                    
11002501        SVPOS393698363100320191006201903300305900130803572000000001000000000000000008746000000008567000000000000000000000179000000000000000000008567000000000000PF03061002501        00000000000000000000000000000000000000000000000000000000000000000000000000000000000000000000986 +                                                                                                                  
21002501        39369836300000006129210032019184626453211******9354   0000000524800000000000000000000000000603000000008746100620190000683861POSC1002501        02628088986N+                                                                                                                                                                                                                                    
11002501        SVPOS393698363100320190807201903300305900130803572000000001000000000000000008746000000008567000000000000000000000179000000000000000000008567000000000000PF04061002501        00000000000000000000000000000000000000000000000000000000000000000000000000000000000000000000986 +                                                                                                                  
21002501        39369836300000006129210032019184626453211******9354   0000000524800000000000000000000000000604000000008746080720190000683861POSC1002501        02628088986N+                                                                                                                                                                                                                                    
11002501        SVPOS393698363100320190708201903300305900130803572000000001000000000000000008746000000008567000000000000000000000179000000000000000000008567000000000000PF05061002501        00000000000000000000000000000000000000000000000000000000000000000000000000000000000000000000986 +                                                                                                                  
21002501        39369836300000006129210032019184626453211******9354   0000000524800000000000000000000000000605000000008746070820190000683861POSC1002501        02628088986N+                                                                                                                                                                                                                                    
11002501        SVPOS393698363100320190609201903300305900130803572000000001000000000000000008746000000008567000000000000000000000179000000000000000000008567000000000000PF06061002501        00000000000000000000000000000000000000000000000000000000000000000000000000000000000000000000986 +                                                                                                                  
21002501        39369836300000006129210032019184626453211******9354   0000000524800000000000000000000000000606000000008746060920190000683861POSC1002501        02628088986N+                                                                                                                                                                                                                                    
11002501        SVPOS393698344100320190904201903300305900130803572000000001000000000000000014159000000013868000000000000000000000291000000000000000000013868000000000000PF01031002501        00000000000000000000000000000000000000000000000000000000000000000000000000000000000000000000986 +                                                                                                                  
21002501        39369834400000006129610032019185738498453******6041   0000000424750000000000000000000000000301000000014159090420190000041769POSC1002501        02628088986N+                                                                                                                                                                                                                                    
11002501        SVPOS393698344100320190905201903300305900130803572000000001000000000000000014158000000013868000000000000000000000290000000000000000000013868000000000000PF02031002501        00000000000000000000000000000000000000000000000000000000000000000000000000000000000000000000986 +                                                                                                                  
21002501        39369834400000006129610032019185738498453******6041   0000000424750000000000000000000000000302000000014158090520190000041769POSC1002501        02628088986N+                                                                                                                                                                                                                                    
11002501        SVPOS393698344100320191006201903300305900130803572000000001000000000000000014158000000013868000000000000000000000290000000000000000000013868000000000000PF03031002501        00000000000000000000000000000000000000000000000000000000000000000000000000000000000000000000986 +                                                                                                                  
21002501        39369834400000006129610032019185738498453******6041   0000000424750000000000000000000000000303000000014158100620190000041769POSC1002501        02628088986N+                                                                                                                                                                                                                                    
11002501        SVPOS393698325100320190904201903300305900130803572000000001000000000000000007738000000007579000000000000000000000159000000000000000000007579000000000000PF01021002501        00000000000000000000000000000000000000000000000000000000000000000000000000000000000000000000986 +                                                                                                                  
21002501        39369832500000006127610032019160639498453******8357   0000000154750000000000000000000000000201000000007738090420190000938409POSC1002501        02628088986N+                                                                                                                                                                                                                                    
11002501        SVPOS393698325100320190905201903300305900130803572000000001000000000000000007737000000007579000000000000000000000158000000000000000000007579000000000000PF02021002501        00000000000000000000000000000000000000000000000000000000000000000000000000000000000000000000986 +                                                                                                                  
21002501        39369832500000006127610032019160639498453******8357   0000000154750000000000000000000000000202000000007737090520190000938409POSC1002501        02628088986N+                                                                                                                                                                                                                                    
11002501        SVPOS393698304100320190904201903300305900130803572000000001000000000000000021490000000021092000000000000000000000398000000000000000000021092000000000000PF01011002501        00000000000000000000000000000000000000000000000000000000000000000000000000000000000000000000986 +                                                                                                                  
21002501        39369830400000006127410032019155225498401******9716   0000000214900000000000000000000000000101000000021490090420190000912885POSC1002501        02628088986N+                                                                                                                                                                                                                                    
11002501        SMPOS393617336100320190904201903300305900130803572000000001000000000000000012395000000012140000000000000000000000255000000000000000000012140000000000000PF01061002501        00000000000000000000000000000000000000000000000000000000000000000000000000000000000000000000986 +                                                                                                                  
21002501        39361733600000006127210032019155017511781******4038   0000000743700000000000000000000000000601000000012395090420190000228765POSC1002501        02628088986N+                                                                                                                                                                                                                                    
11002501        SMPOS393617336100320190905201903300305900130803572000000001000000000000000012395000000012141000000000000000000000254000000000000000000012141000000000000PF02061002501        00000000000000000000000000000000000000000000000000000000000000000000000000000000000000000000986 +                                                                                                                  
21002501        39361733600000006127210032019155017511781******4038   0000000743700000000000000000000000000602000000012395090520190000228765POSC1002501        02628088986N+                                                                                                                                                                                                                                    
11002501        SMPOS393617336100320191006201903300305900130803572000000001000000000000000012395000000012141000000000000000000000254000000000000000000012141000000000000PF03061002501        00000000000000000000000000000000000000000000000000000000000000000000000000000000000000000000986 +                                                                                                                  
21002501        39361733600000006127210032019155017511781******4038   0000000743700000000000000000000000000603000000012395100620190000228765POSC1002501        02628088986N+                                                                                                                                                                                                                                    
11002501        SMPOS393617336100320190807201903300305900130803572000000001000000000000000012395000000012141000000000000000000000254000000000000000000012141000000000000PF04061002501        00000000000000000000000000000000000000000000000000000000000000000000000000000000000000000000986 +                                                                                                                  
21002501        39361733600000006127210032019155017511781******4038   0000000743700000000000000000000000000604000000012395080720190000228765POSC1002501        02628088986N+                                                                                                                                                                                                                                    
11002501        SMPOS393617336100320190708201903300305900130803572000000001000000000000000012395000000012141000000000000000000000254000000000000000000012141000000000000PF05061002501        00000000000000000000000000000000000000000000000000000000000000000000000000000000000000000000986 +                                                                                                                  
21002501        39361733600000006127210032019155017511781******4038   0000000743700000000000000000000000000605000000012395070820190000228765POSC1002501        02628088986N+                                                                                                                                                                                                                                    
11002501        SMPOS393617336100320190609201903300305900130803572000000001000000000000000012395000000012141000000000000000000000254000000000000000000012141000000000000PF06061002501        00000000000000000000000000000000000000000000000000000000000000000000000000000000000000000000986 +                                                                                                                  
21002501        39361733600000006127210032019155017511781******4038   0000000743700000000000000000000000000606000000012395060920190000228765POSC1002501        02628088986N+                                                                                                                                                                                                                                    
11002501        SMPOS393617320100320190904201903300305900130803572000000002000000000000000012243000000011991000000000000000000000252000000000000000000011991000000000000PF01021002501        00000000000000000000000000000000000000000000000000000000000000000000000000000000000000000000986 +                                                                                                                  
21002501        39361732000000006128210032019170403515590******5921   0000000109900000000000000000000000000201000000005495090420190000061262POSC1002501        02628088986N+                                                                                                                                                                                                                                    
21002501        39361732000000006130210032019191027529323******0907   0000000134950000000000000000000000000201000000006748090420190000014608POSC1002501        02628088986N+                                                                                                                                                                                                                                    
11002501        SMPOS393617320100320190905201903300305900130803572000000002000000000000000012242000000011992000000000000000000000250000000000000000000011992000000000000PF02021002501        00000000000000000000000000000000000000000000000000000000000000000000000000000000000000000000986 +                                                                                                                  
21002501        39361732000000006130210032019191027529323******0907   0000000134950000000000000000000000000202000000006747090520190000014608POSC1002501        02628088986N+                                                                                                                                                                                                                                    
21002501        39361732000000006128210032019170403515590******5921   0000000109900000000000000000000000000202000000005495090520190000061262POSC1002501        02628088986N+                                                                                                                                                                                                                                    
11002501        SMPOS393617292100320190904201903300305900130803572000000004000000000000000024470000000024018000000000000000000000452000000000000000000024018000000000000PF01011002501        00000000000000000000000000000000000000000000000000000000000000000000000000000000000000000000986 +                                                                                                                  
21002501        39361729200000006128810032019182135518454******9427   0000000074950000000000000000000000000101000000007495090420190000472451POSC1002501        02628088986N+                                                                                                                                                                                                                                    
21002501        39361729200000006127810032019161731554473******5146   0000000029950000000000000000000000000101000000002995090420190000R81178POSC1002501        02628088986N+                                                                                                                                                                                                                                    
21002501        39361729200000006129810032019185918520977******8457   0000000069900000000000000000000000000101000000006990090420190000087322POSC1002501        02628088986N+                                                                                                                                                                                                                                    
21002501        39361729200000006128010032019163938523421******5779   0000000069900000000000000000000000000101000000006990090420190000047524POSC1002501        02628088986N+                                                                                                                                                                                                                                    
11002501        ECPOS393377192100320190904201903300305900130803572000000001000000000000000011663000000011424000000000000000000000239000000000000000000011424000000000000PF01031002501        00000000000000000000000000000000000000000000000000000000000000000000000000000000000000000000986 +                                                                                                                  
21002501        39337719200000006126010032019150655650487******4699   0000000349850000000000000000000000000301000000011663090420190000065559POSC1002501        02628088986N+                                                                                                                                                                                                                                    
11002501        ECPOS393377192100320190905201903300305900130803572000000001000000000000000011661000000011422000000000000000000000239000000000000000000011422000000000000PF02031002501        00000000000000000000000000000000000000000000000000000000000000000000000000000000000000000000986 +                                                                                                                  
21002501        39337719200000006126010032019150655650487******4699   0000000349850000000000000000000000000302000000011661090520190000065559POSC1002501        02628088986N+                                                                                                                                                                                                                                    
11002501        ECPOS393377192100320191006201903300305900130803572000000001000000000000000011661000000011422000000000000000000000239000000000000000000011422000000000000PF03031002501        00000000000000000000000000000000000000000000000000000000000000000000000000000000000000000000986 +                                                                                                                  
21002501        39337719200000006126010032019150655650487******4699   0000000349850000000000000000000000000303000000011661100620190000065559POSC1002501        02628088986N+                                                                                                                                                                                                                                    
11002501        SVPOS393304738100320190904201903300305900130803572000000001000000000000000005498000000005385000000000000000000000113000000000000000000005385000000000000PF01021002501        00000000000000000000000000000000000000000000000000000000000000000000000000000000000000000000986 +                                                                                                                  
21002501        39330473800000006125810032019150622498442******2572   0000000109950000000000000000000000000201000000005498090420190000826395POSC1002501        02628088986N+                                                                                                                                                                                                                                    
11002501        SVPOS393304738100320190905201903300305900130803572000000001000000000000000005497000000005385000000000000000000000112000000000000000000005385000000000000PF02021002501        00000000000000000000000000000000000000000000000000000000000000000000000000000000000000000000986 +                                                                                                                  
21002501        39330473800000006125810032019150622498442******2572   0000000109950000000000000000000000000202000000005497090520190000826395POSC1002501        02628088986N+                                                                                                                                                                                                                                    
11002501        SMPOS393232565100320190904201903300305900130803572000000001000000000000000007990000000007842000000000000000000000148000000000000000000007842000000000000PF01011002501        00000000000000000000000000000000000000000000000000000000000000000000000000000000000000000000986 +                                                                                                                  
21002501        39323256500000006126210032019151218530049******9479   0000000079900000000000000000000000000101000000007990090420190000064213POSC1002501        02628088986N+                                                                                                                                                                                                                                    
11002502        SVPOS393698464100320190904201903300305900130803572000000001000000000000000007165000000007014000000000000000000000151000000000000000000007014000000000000PF01061002502        00000000000000000000000000000000000000000000000000000000000000000000000000000000000000000000986 +                                                                                                                  
21002502        39369846400000004900210032019200616498453******7020   0000000429800000000000000000000000000601000000007165090420190000068800POSC1002502        02628069986N+                                                                                                                                                                                                                                    
11002502        SVPOS393698464100320190905201903300305900130803572000000001000000000000000007163000000007017000000000000000000000146000000000000000000007017000000000000PF02061002502        00000000000000000000000000000000000000000000000000000000000000000000000000000000000000000000986 +                                                                                                                  
21002502        39369846400000004900210032019200616498453******7020   0000000429800000000000000000000000000602000000007163090520190000068800POSC1002502        02628069986N+                                                                                                                                                                                                                                    
11002502        SVPOS393698464100320191006201903300305900130803572000000001000000000000000007163000000007017000000000000000000000146000000000000000000007017000000000000PF03061002502        00000000000000000000000000000000000000000000000000000000000000000000000000000000000000000000986 +                                                                                                                  
21002502        39369846400000004900210032019200616498453******7020   0000000429800000000000000000000000000603000000007163100620190000068800POSC1002502        02628069986N+                                                                                                                                                                                                                                    
11002502        SVPOS393698464100320190807201903300305900130803572000000001000000000000000007163000000007017000000000000000000000146000000000000000000007017000000000000PF04061002502        00000000000000000000000000000000000000000000000000000000000000000000000000000000000000000000986 +                                                                                                                  
21002502        39369846400000004900210032019200616498453******7020   0000000429800000000000000000000000000604000000007163080720190000068800POSC1002502        02628069986N+                                                                                                                                                                                                                                    
11002502        SVPOS393698464100320190708201903300305900130803572000000001000000000000000007163000000007017000000000000000000000146000000000000000000007017000000000000PF05061002502        00000000000000000000000000000000000000000000000000000000000000000000000000000000000000000000986 +                                                                                                                  
21002502        39369846400000004900210032019200616498453******7020   0000000429800000000000000000000000000605000000007163070820190000068800POSC1002502        02628069986N+                                                                                                                                                                                                                                    
11002502        SVPOS393698464100320190609201903300305900130803572000000001000000000000000007163000000007017000000000000000000000146000000000000000000007017000000000000PF06061002502        00000000000000000000000000000000000000000000000000000000000000000000000000000000000000000000986 +                                                                                                                  
21002502        39369846400000004900210032019200616498453******7020   0000000429800000000000000000000000000606000000007163060920190000068800POSC1002502        02628069986N+                                                                                                                                                                                                                                    
11002502        SVPOS393698444100320190904201903300305900130803572000000001000000000000000005745000000005625000000000000000000000120000000000000000000005625000000000000PF01041002502        00000000000000000000000000000000000000000000000000000000000000000000000000000000000000000000986 +                                                                                                                  
21002502        39369844400000004898810032019182259498442******0912   0000000229800000000000000000000000000401000000005745090420190000072293POSC1002502        02628069986N+                                                                                                                                                                                                                                    
11002502        SVPOS393698444100320190905201903300305900130803572000000001000000000000000005745000000005628000000000000000000000117000000000000000000005628000000000000PF02041002502        00000000000000000000000000000000000000000000000000000000000000000000000000000000000000000000986 +                                                                                                                  
21002502        39369844400000004898810032019182259498442******0912   0000000229800000000000000000000000000402000000005745090520190000072293POSC1002502        02628069986N+                                                                                                                                                                                                                                    
11002502        SVPOS393698444100320191006201903300305900130803572000000001000000000000000005745000000005628000000000000000000000117000000000000000000005628000000000000PF03041002502        00000000000000000000000000000000000000000000000000000000000000000000000000000000000000000000986 +                                                                                                                  
21002502        39369844400000004898810032019182259498442******0912   0000000229800000000000000000000000000403000000005745100620190000072293POSC1002502        02628069986N+                                                                                                                                                                                                                                    
11002502        SVPOS393698444100320190807201903300305900130803572000000001000000000000000005745000000005628000000000000000000000117000000000000000000005628000000000000PF04041002502        00000000000000000000000000000000000000000000000000000000000000000000000000000000000000000000986 +                                                                                                                  
21002502        39369844400000004898810032019182259498442******0912   0000000229800000000000000000000000000404000000005745080720190000072293POSC1002502        02628069986N+                                                                                                                                                                                                                                    
11002502        SVPOS393698392100320190904201903300305900130803572000000002000000000000000013241000000012969000000000000000000000272000000000000000000012969000000000000PF01021002502        00000000000000000000000000000000000000000000000000000000000000000000000000000000000000000000986 +                                                                                                                  
21002502        39369839200000004900010032019193504485464******8077   0000000149950000000000000000000000000201000000007498090420190000009818POSC1002502        02628069986N+                                                                                                                                                                                                                                    
21002502        39369839200000004899210032019183228423074******9304   0000000114850000000000000000000000000201000000005743090420190000091917POSC1002502        02628069986N+                                                                                                                                                                                                                                    
11002502        SVPOS393698392100320190905201903300305900130803572000000002000000000000000013239000000012969000000000000000000000270000000000000000000012969000000000000PF02021002502        00000000000000000000000000000000000000000000000000000000000000000000000000000000000000000000986 +                                                                                                                  
21002502        39369839200000004899210032019183228423074******9304   0000000114850000000000000000000000000202000000005742090520190000091917POSC1002502        02628069986N+                                                                                                                                                                                                                                    
21002502        39369839200000004900010032019193504485464******8077   0000000149950000000000000000000000000202000000007497090520190000009818POSC1002502        02628069986N+                                                                                                                                                                                                                                    
11002502        SMPOS393617405100320190904201903300305900130803572000000001000000000000000005245000000005135000000000000000000000110000000000000000000005135000000000000PF01061002502        00000000000000000000000000000000000000000000000000000000000000000000000000000000000000000000986 +                                                                                                                  
21002502        39361740500000004898410032019174631546056******7443   0000000314700000000000000000000000000601000000005245090420190000003966POSC1002502        02628069986N+                                                                                                                                                                                                                                    
11002502        SMPOS393617405100320190905201903300305900130803572000000001000000000000000005245000000005138000000000000000000000107000000000000000000005138000000000000PF02061002502        00000000000000000000000000000000000000000000000000000000000000000000000000000000000000000000986 +                                                                                                                  
21002502        39361740500000004898410032019174631546056******7443   0000000314700000000000000000000000000602000000005245090520190000003966POSC1002502        02628069986N+                                                                                                                                                                                                                                    
11002502        SMPOS393617405100320191006201903300305900130803572000000001000000000000000005245000000005138000000000000000000000107000000000000000000005138000000000000PF03061002502        00000000000000000000000000000000000000000000000000000000000000000000000000000000000000000000986 +                                                                                                                  
21002502        39361740500000004898410032019174631546056******7443   0000000314700000000000000000000000000603000000005245100620190000003966POSC1002502        02628069986N+                                                                                                                                                                                                                                    
11002502        SMPOS393617405100320190807201903300305900130803572000000001000000000000000005245000000005138000000000000000000000107000000000000000000005138000000000000PF04061002502        00000000000000000000000000000000000000000000000000000000000000000000000000000000000000000000986 +                                                                                                                  
21002502        39361740500000004898410032019174631546056******7443   0000000314700000000000000000000000000604000000005245080720190000003966POSC1002502        02628069986N+                                                                                                                                                                                                                                    
11002502        SMPOS393617405100320190708201903300305900130803572000000001000000000000000005245000000005138000000000000000000000107000000000000000000005138000000000000PF05061002502        00000000000000000000000000000000000000000000000000000000000000000000000000000000000000000000986 +                                                                                                                  
21002502        39361740500000004898410032019174631546056******7443   0000000314700000000000000000000000000605000000005245070820190000003966POSC1002502        02628069986N+                                                                                                                                                                                                                                    
11002502        SMPOS393617405100320190609201903300305900130803572000000001000000000000000005245000000005138000000000000000000000107000000000000000000005138000000000000PF06061002502        00000000000000000000000000000000000000000000000000000000000000000000000000000000000000000000986 +                                                                                                                  
21002502        39361740500000004898410032019174631546056******7443   0000000314700000000000000000000000000606000000005245060920190000003966POSC1002502        02628069986N+                                                                                                                                                                                                                                    
11002502        SMPOS393617391100320190904201903300305900130803572000000001000000000000000004997000000004893000000000000000000000104000000000000000000004893000000000000PF01041002502        00000000000000000000000000000000000000000000000000000000000000000000000000000000000000000000986 +                                                                                                                  
21002502        39361739100000004899410032019183524544315******8797   0000000199850000000000000000000000000401000000004997090420190000032095POSC1002502        02628069986N+                                                                                                                                                                                                                                    
11002502        SMPOS393617391100320190905201903300305900130803572000000001000000000000000004996000000004894000000000000000000000102000000000000000000004894000000000000PF02041002502        00000000000000000000000000000000000000000000000000000000000000000000000000000000000000000000986 +                                                                                                                  
21002502        39361739100000004899410032019183524544315******8797   0000000199850000000000000000000000000402000000004996090520190000032095POSC1002502        02628069986N+                                                                                                                                                                                                                                    
11002502        SMPOS393617391100320191006201903300305900130803572000000001000000000000000004996000000004894000000000000000000000102000000000000000000004894000000000000PF03041002502        00000000000000000000000000000000000000000000000000000000000000000000000000000000000000000000986 +                                                                                                                  
21002502        39361739100000004899410032019183524544315******8797   0000000199850000000000000000000000000403000000004996100620190000032095POSC1002502        02628069986N+                                                                                                                                                                                                                                    
11002502        SMPOS393617391100320190807201903300305900130803572000000001000000000000000004996000000004894000000000000000000000102000000000000000000004894000000000000PF04041002502        00000000000000000000000000000000000000000000000000000000000000000000000000000000000000000000986 +                                                                                                                  
21002502        39361739100000004899410032019183524544315******8797   0000000199850000000000000000000000000404000000004996080720190000032095POSC1002502        02628069986N+                                                                                                                                                                                                                                    
11002502        SMPOS393617368100320190904201903300305900130803572000000004000000000000000039275000000038549000000000000000000000726000000000000000000038549000000000000PF01011002502        00000000000000000000000000000000000000000000000000000000000000000000000000000000000000000000986 +                                                                                                                  
21002502        39361736800000004897410032019164642544315******2182   0000000069950000000000000000000000000101000000006995090420190000436117POSC1002502        02628069986N+                                                                                                                                                                                                                                    
21002502        39361736800000004898210032019173950530780******4197   0000000049950000000000000000000000000101000000004995090420190000006234POSC1002502        02628069986N+                                                                                                                                                                                                                                    
21002502        39361736800000004899810032019191001536805******8226   0000000057950000000000000000000000000101000000005795090420190000601552POSC1002502        02628069986N+                                                                                                                                                                                                                                    
21002502        39361736800000004897210032019164256523421******7629   0000000214900000000000000000000000000101000000021490090420190000685056POSC1002502        02628069986N+                                                                                                                                                                                                                                    
11002502        SMPOS393617358100320190904201903300305900130803572000000001000000000000000007495000000007356000000000000000000000139000000000000000000007356000000000000PF01011002502        00000000000000000000000000000000000000000000000000000000000000000000000000000000000000000000986 +                                                                                                                  
21002502        39361735800000004898610032019181707543333******4914   0000000074950000000000000000000000000101000000007495090420190000067422POSC1002502        02628069986E+                                                                                                                                                                                                                                    
11002502        HCPOS393415863100320190904201903300305900130803572000000001000000000000000006998000000006819000000000000000000000179000000000000000000006819000000000000PF01021002502        00000000000000000000000000000000000000000000000000000000000000000000000000000000000000000000986 +                                                                                                                  
21002502        39341586300000004896210032019153201606282******9679   0000000139950000000000000000000000000201000000006998090420190000090131POSC1002502        02628069986N+                                                                                                                                                                                                                                    
11002502        HCPOS393415863100320190905201903300305900130803572000000001000000000000000006997000000006819000000000000000000000178000000000000000000006819000000000000PF02021002502        00000000000000000000000000000000000000000000000000000000000000000000000000000000000000000000986 +                                                                                                                  
21002502        39341586300000004896210032019153201606282******9679   0000000139950000000000000000000000000202000000006997090520190000090131POSC1002502        02628069986N+                                                                                                                                                                                                                                    
11002502        ECPOS393377206100320190904201903300305900130803572000000001000000000000000006485000000006365000000000000000000000120000000000000000000006365000000000000PF01011002502        00000000000000000000000000000000000000000000000000000000000000000000000000000000000000000000986 +                                                                                                                  
21002502        39337720600000004896010032019152802506727******6209   0000000064850000000000000000000000000101000000006485090420190000681411POSC1002502        02628069986N+                                                                                                                                                                                                                                    
11002502        SVPOS393304770100320190904201903300305900130803572000000002000000000000000018985000000018634000000000000000000000351000000000000000000018634000000000000PF01011002502        00000000000000000000000000000000000000000000000000000000000000000000000000000000000000000000986 +                                                                                                                  
21002502        39330477000000004894610032019143144406655******0548   0000000069950000000000000000000000000101000000006995090420190000615905POSC1002502        02628069986N+                                                                                                                                                                                                                                    
21002502        39330477000000004895810032019151452498453******4166   0000000119900000000000000000000000000101000000011990090420190000839056POSC1002502        02628069986N+                                                                                                                                                                                                                                    
11002502        SMPOS393232580100320190904201903300305900130803572000000002000000000000000037970000000037268000000000000000000000702000000000000000000037268000000000000PF01011002502        00000000000000000000000000000000000000000000000000000000000000000000000000000000000000000000986 +                                                                                                                  
21002502        39323258000000004894210032019142900522840******7109   0000000289800000000000000000000000000101000000028980090420190000291068POSC1002502        02628069986N+                                                                                                                                                                                                                                    
21002502        39323258000000004896410032019153233523421******6313   0000000089900000000000000000000000000101000000008990090420190000127414POSC1002502        02628069986N+                                                                                                                                                                                                                                    
11002503        ECPOS393787063100320190904201903300305900130803572000000001000000000000000007495000000007356000000000000000000000139000000000000000000007356000000000000PF01011002503        00000000000000000000000000000000000000000000000000000000000000000000000000000000000000000000986 +                                                                                                                  
21002503        39378706300000006217410032019183759651652******9566   0000000074950000000000000000000000000101000000007495090420190000681206POSC1002503        02628082986N+                                                                                                                                                                                                                                    
11002503        ACPOS393781896100320190904201903300305900130803572000000001000000000000000003990000000003916000000000000000000000074000000000000000000003916000000000000PF01011002503        00000000000000000000000000000000000000000000000000000000000000000000000000000000000000000000986 +                                                                                                                  
21002503        39378189600000006218010032019194623376421*****4000    0000000039900000000000000000000000000101000000003990090420190000664133POSC1002503        02628082986N+                                                                                                                                                                                                                                    
11002503        SVPOS393698616100320190904201903300305900130803572000000003000000000000000039312000000038506000000000000000000000806000000000000000000038506000000000000PF01031002503        00000000000000000000000000000000000000000000000000000000000000000000000000000000000000000000986 +                                                                                                                  
21002503        39369861600000006217210032019182802421847******4341   0000000229650000000000000000000000000301000000007655090420190000080428POSC1002503        02628082986N+                                                                                                                                                                                                                                    
21002503        39369861600000006215010032019161107410424******8836   0000000624800000000000000000000000000301000000020828090420190000612223POSC1002503        02628082986N+                                                                                                                                                                                                                                    
21002503        39369861600000006215410032019164306420312******4029   0000000324850000000000000000000000000301000000010829090420190000006496POSC1002503        02628082986N+                                                                                                                                                                                                                                    
11002503        SVPOS393698616100320190905201903300305900130803572000000003000000000000000039309000000038503000000000000000000000806000000000000000000038503000000000000PF02031002503        00000000000000000000000000000000000000000000000000000000000000000000000000000000000000000000986 +                                                                                                                  
21002503        39369861600000006215410032019164306420312******4029   0000000324850000000000000000000000000302000000010828090520190000006496POSC1002503        02628082986N+                                                                                                                                                                                                                                    
21002503        39369861600000006215010032019161107410424******8836   0000000624800000000000000000000000000302000000020826090520190000612223POSC1002503        02628082986N+                                                                                                                                                                                                                                    
21002503        39369861600000006217210032019182802421847******4341   0000000229650000000000000000000000000302000000007655090520190000080428POSC1002503        02628082986N+                                                                                                                                                                                                                                    
11002503        SVPOS393698616100320191006201903300305900130803572000000003000000000000000039309000000038503000000000000000000000806000000000000000000038503000000000000PF03031002503        00000000000000000000000000000000000000000000000000000000000000000000000000000000000000000000986 +                                                                                                                  
21002503        39369861600000006215410032019164306420312******4029   0000000324850000000000000000000000000303000000010828100620190000006496POSC1002503        02628082986N+                                                                                                                                                                                                                                    
21002503        39369861600000006217210032019182802421847******4341   0000000229650000000000000000000000000303000000007655100620190000080428POSC1002503        02628082986N+                                                                                                                                                                                                                                    
21002503        39369861600000006215010032019161107410424******8836   0000000624800000000000000000000000000303000000020826100620190000612223POSC1002503        02628082986N+                                                                                                                                                                                                                                    
11002503        SVPOS393698594100320190904201903300305900130803572000000001000000000000000005735000000005617000000000000000000000118000000000000000000005617000000000000PF01021002503        00000000000000000000000000000000000000000000000000000000000000000000000000000000000000000000986 +                                                                                                                  
21002503        39369859400000006218410032019195613459360******6870   0000000114700000000000000000000000000201000000005735090420190000758154POSC1002503        02628082986N+                                                                                                                                                                                                                                    
11002503        SVPOS393698594100320190905201903300305900130803572000000001000000000000000005735000000005618000000000000000000000117000000000000000000005618000000000000PF02021002503        00000000000000000000000000000000000000000000000000000000000000000000000000000000000000000000986 +                                                                                                                  
21002503        39369859400000006218410032019195613459360******6870   0000000114700000000000000000000000000202000000005735090520190000758154POSC1002503        02628082986N+                                                                                                                                                                                                                                    
11002503        SVPOS393698533100320190904201903300305900130803572000000005000000000000000049960000000049036000000000000000000000924000000000000000000049036000000000000PF01011002503        00000000000000000000000000000000000000000000000000000000000000000000000000000000000000000000986 +                                                                                                                  
21002503        39369853300000006214010032019155029498407******3337   0000000169850000000000000000000000000101000000016985090420190000905734POSC1002503        02628082986N+                                                                                                                                                                                                                                    
21002503        39369853300000006217810032019193629498423******3887   0000000094900000000000000000000000000101000000009490090420190000012699POSC1002503        02628082986N+                                                                                                                                                                                                                                    
21002503        39369853300000006214610032019160526490172******4706   0000000109900000000000000000000000000101000000010990090420190000038716POSC1002503        02628082986N+                                                                                                                                                                                                                                    
21002503        39369853300000006214810032019160827410425******3651   0000000069950000000000000000000000000101000000006995090420190000683929POSC1002503        02628082986N+                                                                                                                                                                                                                                    
21002503        39369853300000006216010032019165522498407******8224   0000000055000000000000000000000000000101000000005500090420190000019852POSC1002503        02628082986N+                                                                                                                                                                                                                                    
11002503        SVPOS393698507100320190904201903300305900130803572000000001000000000000000007990000000007842000000000000000000000148000000000000000000007842000000000000PF01011002503        00000000000000000000000000000000000000000000000000000000000000000000000000000000000000000000986 +                                                                                                                  
21002503        39369850700000006214410032019160154490696******8865   0000000079900000000000000000000000000101000000007990090420190000008526POSC1002503        02628082986E+                                                                                                                                                                                                                                    
11002503        SMPOS393617508100320190904201903300305900130803572000000001000000000000000004121000000004035000000000000000000000086000000000000000000004035000000000000PF01041002503        00000000000000000000000000000000000000000000000000000000000000000000000000000000000000000000986 +                                                                                                                  
21002503        39361750800000006215210032019161425515894******4301   0000000164750000000000000000000000000401000000004121090420190000698197POSC1002503        02628082986N+                                                                                                                                                                                                                                    
11002503        SMPOS393617508100320190905201903300305900130803572000000001000000000000000004118000000004034000000000000000000000084000000000000000000004034000000000000PF02041002503        00000000000000000000000000000000000000000000000000000000000000000000000000000000000000000000986 +                                                                                                                  
21002503        39361750800000006215210032019161425515894******4301   0000000164750000000000000000000000000402000000004118090520190000698197POSC1002503        02628082986N+                                                                                                                                                                                                                                    
11002503        SMPOS393617508100320191006201903300305900130803572000000001000000000000000004118000000004034000000000000000000000084000000000000000000004034000000000000PF03041002503        00000000000000000000000000000000000000000000000000000000000000000000000000000000000000000000986 +                                                                                                                  
21002503        39361750800000006215210032019161425515894******4301   0000000164750000000000000000000000000403000000004118100620190000698197POSC1002503        02628082986N+                                                                                                                                                                                                                                    
11002503        SMPOS393617508100320190807201903300305900130803572000000001000000000000000004118000000004034000000000000000000000084000000000000000000004034000000000000PF04041002503        00000000000000000000000000000000000000000000000000000000000000000000000000000000000000000000986 +                                                                                                                  
21002503        39361750800000006215210032019161425515894******4301   0000000164750000000000000000000000000404000000004118080720190000698197POSC1002503        02628082986N+                                                                                                                                                                                                                                    
11002503        SMPOS393617488100320190904201903300305900130803572000000001000000000000000005658000000005542000000000000000000000116000000000000000000005542000000000000PF01031002503        00000000000000000000000000000000000000000000000000000000000000000000000000000000000000000000986 +                                                                                                                  
21002503        39361748800000006216810032019180154544731******1194   0000000169700000000000000000000000000301000000005658090420190000020773POSC1002503        02628082986N+                                                                                                                                                                                                                                    
11002503        SMPOS393617488100320190905201903300305900130803572000000001000000000000000005656000000005540000000000000000000000116000000000000000000005540000000000000PF02031002503        00000000000000000000000000000000000000000000000000000000000000000000000000000000000000000000986 +                                                                                                                  
21002503        39361748800000006216810032019180154544731******1194   0000000169700000000000000000000000000302000000005656090520190000020773POSC1002503        02628082986N+                                                                                                                                                                                                                                    
11002503        SMPOS393617488100320191006201903300305900130803572000000001000000000000000005656000000005540000000000000000000000116000000000000000000005540000000000000PF03031002503        00000000000000000000000000000000000000000000000000000000000000000000000000000000000000000000986 +                                                                                                                  
21002503        39361748800000006216810032019180154544731******1194   0000000169700000000000000000000000000303000000005656100620190000020773POSC1002503        02628082986N+                                                                                                                                                                                                                                    
11002503        SMPOS393617465100320190904201903300305900130803572000000001000000000000000005990000000005867000000000000000000000123000000000000000000005867000000000000PF01021002503        00000000000000000000000000000000000000000000000000000000000000000000000000000000000000000000986 +                                                                                                                  
21002503        39361746500000006218810032019201015548826******2084   0000000119800000000000000000000000000201000000005990090420190000677388POSC1002503        02628082986N+                                                                                                                                                                                                                                    
11002503        SMPOS393617465100320190905201903300305900130803572000000001000000000000000005990000000005867000000000000000000000123000000000000000000005867000000000000PF02021002503        00000000000000000000000000000000000000000000000000000000000000000000000000000000000000000000986 +                                                                                                                  
21002503        39361746500000006218810032019201015548826******2084   0000000119800000000000000000000000000202000000005990090520190000677388POSC1002503        02628082986N+                                                                                                                                                                                                                                    
11002503        SMPOS393617420100320190904201903300305900130803572000000004000000000000000028965000000028429000000000000000000000536000000000000000000028429000000000000PF01011002503        00000000000000000000000000000000000000000000000000000000000000000000000000000000000000000000986 +                                                                                                                  
21002503        39361742000000006218210032019194912541555******5406   0000000044950000000000000000000000000101000000004495090420190000008069POSC1002503        02628082986N+                                                                                                                                                                                                                                    
21002503        39361742000000006217610032019184805523421******2058   0000000059950000000000000000000000000101000000005995090420190000583304POSC1002503        02628082986N+                                                                                                                                                                                                                                    
21002503        39361742000000006215810032019165255523421******8169   0000000039900000000000000000000000000101000000003990090420190000343547POSC1002503        02628082986N+                                                                                                                                                                                                                                    
21002503        39361742000000006213810032019154138553636******6054   0000000144850000000000000000000000000101000000014485090420190000098521POSC1002503        02628082986N+                                                                                                                                                                                                                                    
11002503        ECPOS393377230100320190904201903300305900130803572000000001000000000000000003990000000003916000000000000000000000074000000000000000000003916000000000000PF01011002503        00000000000000000000000000000000000000000000000000000000000000000000000000000000000000000000986 +                                                                                                                  
21002503        39337723000000006211210032019135517650487******5237   0000000039900000000000000000000000000101000000003990090420190000040698POSC1002503        02628082986N+                                                                                                                                                                                                                                    
11002503        SVPOS393304888100320190904201903300305900130803572000000001000000000000000007828000000007667000000000000000000000161000000000000000000007667000000000000PF01031002503        00000000000000000000000000000000000000000000000000000000000000000000000000000000000000000000986 +                                                                                                                  
21002503        39330488800000006212610032019144149415275******1132   0000000234800000000000000000000000000301000000007828090420190000004163POSC1002503        02628082986N+                                                                                                                                                                                                                                    
11002503        SVPOS393304888100320190905201903300305900130803572000000001000000000000000007826000000007666000000000000000000000160000000000000000000007666000000000000PF02031002503        00000000000000000000000000000000000000000000000000000000000000000000000000000000000000000000986 +                                                                                                                  
21002503        39330488800000006212610032019144149415275******1132   0000000234800000000000000000000000000302000000007826090520190000004163POSC1002503        02628082986N+                                                                                                                                                                                                                                    
11002503        SVPOS393304888100320191006201903300305900130803572000000001000000000000000007826000000007666000000000000000000000160000000000000000000007666000000000000PF03031002503        00000000000000000000000000000000000000000000000000000000000000000000000000000000000000000000986 +                                                                                                                  
21002503        39330488800000006212610032019144149415275******1132   0000000234800000000000000000000000000303000000007826100620190000004163POSC1002503        02628082986N+                                                                                                                                                                                                                                    
11002503        SVPOS393304860100320190904201903300305900130803572000000002000000000000000036473000000035725000000000000000000000748000000000000000000035725000000000000PF01021002503        00000000000000000000000000000000000000000000000000000000000000000000000000000000000000000000986 +                                                                                                                  
21002503        39330486000000006211010032019134911498453******0670   0000000439650000000000000000000000000201000000021983090420190000665378POSC1002503        02628082986N+                                                                                                                                                                                                                                    
21002503        39330486000000006213410032019152957498453******5686   0000000289800000000000000000000000000201000000014490090420190000867819POSC1002503        02628082986N+                                                                                                                                                                                                                                    
11002503        SVPOS393304860100320190905201903300305900130803572000000002000000000000000036472000000035725000000000000000000000747000000000000000000035725000000000000PF02021002503        00000000000000000000000000000000000000000000000000000000000000000000000000000000000000000000986 +                                                                                                                  
21002503        39330486000000006211010032019134911498453******0670   0000000439650000000000000000000000000202000000021982090520190000665378POSC1002503        02628082986N+                                                                                                                                                                                                                                    
21002503        39330486000000006213410032019152957498453******5686   0000000289800000000000000000000000000202000000014490090520190000867819POSC1002503        02628082986N+                                                                                                                                                                                                                                    
11002503        SVPOS393304838100320190904201903300305900130803572000000001000000000000000004490000000004407000000000000000000000083000000000000000000004407000000000000PF01011002503        00000000000000000000000000000000000000000000000000000000000000000000000000000000000000000000986 +                                                                                                                  
21002503        39330483800000006211810032019142717498442******3986   0000000044900000000000000000000000000101000000004490090420190000745251POSC1002503        02628082986N+                                                                                                                                                                                                                                    
11002503        SVPOS393304804100320190904201903300305900130803572000000001000000000000000004475000000004392000000000000000000000083000000000000000000004392000000000000PF01011002503        00000000000000000000000000000000000000000000000000000000000000000000000000000000000000000000986 +                                                                                                                  
21002503        39330480400000006213210032019151710460342******8252   0000000044750000000000000000000000000101000000004475090420190000267979POSC1002503        02628082986E+                                                                                                                                                                                                                                    
11002503        SMPOS393232610100320190904201903300305900130803572000000003000000000000000026485000000025996000000000000000000000489000000000000000000025996000000000000PF01011002503        00000000000000000000000000000000000000000000000000000000000000000000000000000000000000000000986 +                                                                                                                  
21002503        39323261000000006213610032019153633523421******4758   0000000149950000000000000000000000000101000000014995090420190000802536POSC1002503        02628082986N+                                                                                                                                                                                                                                    
21002503        39323261000000006211610032019141955544731******8572   0000000049950000000000000000000000000101000000004995090420190000201171POSC1002503        02628082986N+                                                                                                                                                                                                                                    
21002503        39323261000000006212210032019143215515590******0954   0000000064950000000000000000000000000101000000006495090420190000322859POSC1002503        02628082986N+                                                                                                                                                                                                                                    
11002504        SVPOS393698652100320190904201903300305900130803572000000001000000000000000006990000000006861000000000000000000000129000000000000000000006861000000000000PF01011002504        00000000000000000000000000000000000000000000000000000000000000000000000000000000000000000000986 +                                                                                                                  
21002504        39369865200000004467010032019161423421958******8870   0000000069900000000000000000000000000101000000006990090420190000545694POSC1002504        02628089986N+                                                                                                                                                                                                                                    
11002504        SMPOS393617565100320190904201903300305900130803572000000002000000000000000017156000000016803000000000000000000000353000000000000000000016803000000000000PF01031002504        00000000000000000000000000000000000000000000000000000000000000000000000000000000000000000000986 +                                                                                                                  
21002504        39361756500000004467610032019194318554463******5114   0000000229850000000000000000000000000301000000007663090420190000R23549POSC1002504        02628089986N+                                                                                                                                                                                                                                    
21002504        39361756500000004467810032019194701525320******4847   0000000284750000000000000000000000000301000000009493090420190000047889POSC1002504        02628089986N+                                                                                                                                                                                                                                    
11002504        SMPOS393617565100320190905201903300305900130803572000000002000000000000000017152000000016801000000000000000000000351000000000000000000016801000000000000PF02031002504        00000000000000000000000000000000000000000000000000000000000000000000000000000000000000000000986 +                                                                                                                  
21002504        39361756500000004467610032019194318554463******5114   0000000229850000000000000000000000000302000000007661090520190000R23549POSC1002504        02628089986N+                                                                                                                                                                                                                                    
21002504        39361756500000004467810032019194701525320******4847   0000000284750000000000000000000000000302000000009491090520190000047889POSC1002504        02628089986N+                                                                                                                                                                                                                                    
11002504        SMPOS393617565100320191006201903300305900130803572000000002000000000000000017152000000016801000000000000000000000351000000000000000000016801000000000000PF03031002504        00000000000000000000000000000000000000000000000000000000000000000000000000000000000000000000986 +                                                                                                                  
21002504        39361756500000004467610032019194318554463******5114   0000000229850000000000000000000000000303000000007661100620190000R23549POSC1002504        02628089986N+                                                                                                                                                                                                                                    
21002504        39361756500000004467810032019194701525320******4847   0000000284750000000000000000000000000303000000009491100620190000047889POSC1002504        02628089986N+                                                                                                                                                                                                                                    
11002504        SMPOS393617551100320190904201903300305900130803572000000001000000000000000006498000000006365000000000000000000000133000000000000000000006365000000000000PF01021002504        00000000000000000000000000000000000000000000000000000000000000000000000000000000000000000000986 +                                                                                                                  
21002504        39361755100000004467410032019183506540593******8519   0000000129950000000000000000000000000201000000006498090420190000222503POSC1002504        02628089986N+                                                                                                                                                                                                                                    
11002504        SMPOS393617551100320190905201903300305900130803572000000001000000000000000006497000000006364000000000000000000000133000000000000000000006364000000000000PF02021002504        00000000000000000000000000000000000000000000000000000000000000000000000000000000000000000000986 +                                                                                                                  
21002504        39361755100000004467410032019183506540593******8519   0000000129950000000000000000000000000202000000006497090520190000222503POSC1002504        02628089986N+                                                                                                                                                                                                                                    
11002504        SMPOS393617539100320190904201903300305900130803572000000001000000000000000005995000000005884000000000000000000000111000000000000000000005884000000000000PF01011002504        00000000000000000000000000000000000000000000000000000000000000000000000000000000000000000000986 +                                                                                                                  
21002504        39361753900000004467210032019162527525664******2613   0000000059950000000000000000000000000101000000005995090420190000011177POSC1002504        02628089986N+                                                                                                                                                                                                                                    
11002504        SMPOS393617529100320190904201903300305900130803572000000001000000000000000030965000000030392000000000000000000000573000000000000000000030392000000000000PF01011002504        00000000000000000000000000000000000000000000000000000000000000000000000000000000000000000000986 +                                                                                                                  
21002504        39361752900000004468010032019200811511849******7000   0000000309650000000000000000000000000101000000030965090420190000204734POSC1002504        02628089986E+                                                                                                                                                                                                                                    
11002504        SVPOS393304982100320190904201903300305900130803572000000003000000000000000023653000000023167000000000000000000000486000000000000000000023167000000000000PF01031002504        00000000000000000000000000000000000000000000000000000000000000000000000000000000000000000000986 +                                                                                                                  
21002504        39330498200000004466610032019153344406669******9915   0000000314850000000000000000000000000301000000010495090420190000635802POSC1002504        02628089986N+                                                                                                                                                                                                                                    
21002504        39330498200000004465810032019142556498453******6131   0000000179900000000000000000000000000301000000005998090420190000742646POSC1002504        02628089986N+                                                                                                                                                                                                                                    
21002504        39330498200000004466010032019150222498453******2379   0000000214800000000000000000000000000301000000007160090420190000814894POSC1002504        02628089986N+                                                                                                                                                                                                                                    
11002504        SVPOS393304982100320190905201903300305900130803572000000003000000000000000023651000000023167000000000000000000000484000000000000000000023167000000000000PF02031002504        00000000000000000000000000000000000000000000000000000000000000000000000000000000000000000000986 +                                                                                                                  
21002504        39330498200000004465810032019142556498453******6131   0000000179900000000000000000000000000302000000005996090520190000742646POSC1002504        02628089986N+                                                                                                                                                                                                                                    
21002504        39330498200000004466010032019150222498453******2379   0000000214800000000000000000000000000302000000007160090520190000814894POSC1002504        02628089986N+                                                                                                                                                                                                                                    
21002504        39330498200000004466610032019153344406669******9915   0000000314850000000000000000000000000302000000010495090520190000635802POSC1002504        02628089986N+                                                                                                                                                                                                                                    
11002504        SVPOS393304982100320191006201903300305900130803572000000003000000000000000023651000000023167000000000000000000000484000000000000000000023167000000000000PF03031002504        00000000000000000000000000000000000000000000000000000000000000000000000000000000000000000000986 +                                                                                                                  
21002504        39330498200000004465810032019142556498453******6131   0000000179900000000000000000000000000303000000005996100620190000742646POSC1002504        02628089986N+                                                                                                                                                                                                                                    
21002504        39330498200000004466010032019150222498453******2379   0000000214800000000000000000000000000303000000007160100620190000814894POSC1002504        02628089986N+                                                                                                                                                                                                                                    
21002504        39330498200000004466610032019153344406669******9915   0000000314850000000000000000000000000303000000010495100620190000635802POSC1002504        02628089986N+                                                                                                                                                                                                                                    
11002504        SVPOS393304968100320190904201903300305900130803572000000001000000000000000009490000000009314000000000000000000000176000000000000000000009314000000000000PF01011002504        00000000000000000000000000000000000000000000000000000000000000000000000000000000000000000000986 +                                                                                                                  
21002504        39330496800000004466810032019154336482425******1101   0000000094900000000000000000000000000101000000009490090420190000610464POSC1002504        02628089986N+                                                                                                                                                                                                                                    
11002504        SVPOS393304899100320190904201903300305900130803572000000001000000000000000012475000000012244000000000000000000000231000000000000000000012244000000000000PF01011002504        00000000000000000000000000000000000000000000000000000000000000000000000000000000000000000000986 +                                                                                                                  
21002504        39330489900000004465410032019125032430307******4562   0000000124750000000000000000000000000101000000012475090420190000034366POSC1002504        02628089986E+                                                                                                                                                                                                                                    
11002504        SMPOS393232639100320190904201903300305900130803572000000002000000000000000012238000000011987000000000000000000000251000000000000000000011987000000000000PF01021002504        00000000000000000000000000000000000000000000000000000000000000000000000000000000000000000000986 +                                                                                                                  
21002504        39323263900000004466410032019151736523421******4388   0000000129800000000000000000000000000201000000006490090420190000508463POSC1002504        02628089986N+                                                                                                                                                                                                                                    
21002504        39323263900000004465010032019121620553665******7904   0000000114950000000000000000000000000201000000005748090420190000099014POSC1002504        02628089986N+                                                                                                                                                                                                                                    
11002504        SMPOS393232639100320190905201903300305900130803572000000002000000000000000012237000000011986000000000000000000000251000000000000000000011986000000000000PF02021002504        00000000000000000000000000000000000000000000000000000000000000000000000000000000000000000000986 +                                                                                                                  
21002504        39323263900000004466410032019151736523421******4388   0000000129800000000000000000000000000202000000006490090520190000508463POSC1002504        02628089986N+                                                                                                                                                                                                                                    
21002504        39323263900000004465010032019121620553665******7904   0000000114950000000000000000000000000202000000005747090520190000099014POSC1002504        02628089986N+                                                                                                                                                                                                                                    
11002504        SMPOS393232626100320190904201903300305900130803572000000001000000000000000003995000000003921000000000000000000000074000000000000000000003921000000000000PF01011002504        00000000000000000000000000000000000000000000000000000000000000000000000000000000000000000000986 +                                                                                                                  
21002504        39323262600000004465610032019130531522688******5594   0000000039950000000000000000000000000101000000003995090420190000475248POSC1002504        02628089986N+                                                                                                                                                                                                                                    
11002504        SVPOS392941316100320190904201903300305900130803572000000001000000000000000007998000000007834000000000000000000000164000000000000000000007834000000000000PF01031002504        00000000000000000000000000000000000000000000000000000000000000000000000000000000000000000000986 +                                                                                                                  
21002504        39294131600000004464810032019113354455183******0844   0000000239900000000000000000000000000301000000007998090420190000640757POSC1002504        02628089986N+                                                                                                                                                                                                                                    
11002504        SVPOS392941316100320190905201903300305900130803572000000001000000000000000007996000000007832000000000000000000000164000000000000000000007832000000000000PF02031002504        00000000000000000000000000000000000000000000000000000000000000000000000000000000000000000000986 +                                                                                                                  
21002504        39294131600000004464810032019113354455183******0844   0000000239900000000000000000000000000302000000007996090520190000640757POSC1002504        02628089986N+                                                                                                                                                                                                                                    
11002504        SVPOS392941316100320191006201903300305900130803572000000001000000000000000007996000000007832000000000000000000000164000000000000000000007832000000000000PF03031002504        00000000000000000000000000000000000000000000000000000000000000000000000000000000000000000000986 +                                                                                                                  
21002504        39294131600000004464810032019113354455183******0844   0000000239900000000000000000000000000303000000007996100620190000640757POSC1002504        02628089986N+                                                                                                                                                                                                                                    
11002504        SMPOS392833016100320190904201903300305900130803572000000001000000000000000006238000000006110000000000000000000000128000000000000000000006110000000000000PF01021002504        00000000000000000000000000000000000000000000000000000000000000000000000000000000000000000000986 +                                                                                                                  
21002504        39283301600000004464010032019101359554906******5149   0000000124750000000000000000000000000201000000006238090420190000011887POSC1002504        02628089986N+                                                                                                                                                                                                                                    
