00ARQUIVO PREVISAO DE CREDITO ACQUIRER    BJRVCMB 2018100820181008005810BANRISUL  01167639000129                                                                                                                                                                                                                       000000001
1000000000000000000000000000201810080203010116763900438830590130803572000000000073092                                                                                                                                                                                                                                  000000002
20004103380000000000000008242018100802030120180709007813350300000000001399500000004000000000005600000000000000000000013435                                        01167639004388                                                                                                                                       000000003
20004103380000000000000008242018100802030120180710003212470300000000000749600000004000000000003000000000000000000000007196                                        01167639004388                                                                                                                                       000000004
20004103380000000000000008242018100802030120180710007832130300000000000649600000004000000000002600000000000000000000006236                                        01167639004388                                                                                                                                       000000005
20004103380000000000000008242018100802030120180710008604210300000000000566300000004000000000002270000000000000000000005436                                        01167639004388                                                                                                                                       000000006
20004103380000000000000008242018100802030120180710008665760300000000000666500000004000000000002670000000000000000000006398                                        01167639004388                                                                                                                                       000000007
20004103380000000000000008242018100802030120180710008722700300000000000716500000004000000000002870000000000000000000006878                                        01167639004388                                                                                                                                       000000008
20004103380000000000000008242018100802030120180710008942030300000000000799800000004000000000003200000000000000000000007678                                        01167639004388                                                                                                                                       000000009
20004103380000000000000008242018100802030120180710009059820300000000002066100000004000000000008260000000000000000000019835                                        01167639004388                                                                                                                                       000000010
1000000000000000000000000000201810080203010116763900357830590130803572000000000007035                                                                                                                                                                                                                                  000000011
20004103380000000000000008142018100802030120180710007757990300000000000732800000004000000000002930000000000000000000007035                                        01167639003578                                                                                                                                       000000012
1000000000000000000000000000201810080203010116763900438830590130803572000000000101201                                                                                                                                                                                                                                  000000013
20004103380000000000000008242018100802030120180710003185570300000000001882300000004000000000007530000000000000000000018070                                        01167639004388                                                                                                                                       000000014
20004103380000000000000008242018100802030120180710003430730300000000002065800000004000000000008260000000000000000000019832                                        01167639004388                                                                                                                                       000000015
20004103380000000000000008242018100802030120180710004562250300000000003664800000004000000000014660000000000000000000035182                                        01167639004388                                                                                                                                       000000016
20004103380000000000000008242018100802030120180710008380140300000000002928900000004000000000011720000000000000000000028117                                        01167639004388                                                                                                                                       000000017
99ARQUIVO PREVISAO DE CREDITO ACQUIRER    BJRVCMB 2018100820181008005810BANRISUL  01167639000129000000003000000013                                                                                                                                                                                                     000000018
