00ARQUIVO GERAL DE OPERACOES              BJRVCA1 2018091020180910005632BANRISUL  01167639000129                                                                                                                                                                                                                       000000001
10011676390002000041033800000000000000079900000001201809070035215301011434232018090714341356130200002000PGTA0000000000000498000000000000498020180910000000015000000000007500000000000000000490500000020180907143451                                                      250352153041033800079900N6396643464           000000002
10011676390002000041033800000000000000079900000001201809070057837101031908092018090719071356140200002890PGTX0000000000001695500000000000565120181008000000030000000000017000000000000000000548103009020180907190839                                                      250578371041033800079900N6396643408           000000003
10011676390002000041033800000000000000079900000001201809070057837102031908092018090719071356140200002890PGTX0000000000001695500000000000565220181106000000030000000000017000000000000000000548206009020180907190839                                                      250578371041033800079900N6396643408           000000004
10011676390002000041033800000000000000079900000001201809070057837103031908092018090719071356140200002890PGTX0000000000001695500000000000565220181206000000030000000000017000000000000000000548209009020180907190839                                                      250578371041033800079900N6396643408           000000005
10011676390002000041033800000000000000079900000001201809090044357201021838352018090918381356150200002800PGTX0000000000001749000000000000874520180910000000030000000000026200000000000000000848300003020180909183902                                                      252443572041033800079900N6396648265           000000006
10011676390002000041033800000000000000079900000001201809090044357202021838352018090918381356150200002800PGTX0000000000001749000000000000874520181009000000030000000000026200000000000000000848303003020180909183902                                                      252443572041033800079900N6396648265           000000007
10011676390002000041033800000000000000079900000001201809090044533301021841212018090918411356160200002800PGTX0000000000001548000000000000774020180910000000030000000000023200000000000000000750800003020180909184148                                                      252445333041033800079900N6396646326           000000008
10011676390002000041033800000000000000079900000001201809090044533302021841212018090918411356160200002800PGTX0000000000001548000000000000774020181009000000030000000000023200000000000000000750803003020180909184148                                                      252445333041033800079900N6396646326           000000009
10011676390002000041033800000000000000079900000001201809090044665101011843222018090918431356170200002000PGTA0000000000000299000000000000299020180910000000015000000000004500000000000000000294500000020180909184349                                                      252446651041033800079900N6396646326           000000010
10011676390007140041033800000000000000080200000001201809070042939901021623352018090716235629920200002890PGTX0000000000001249500000000000624720181008000000030000000000018700000000000000000606003006020180907162416                                                      250429399041033800080200N6396645377           000000011
10011676390007140041033800000000000000080200000001201809070042939902021623352018090716235629920200002890PGTX0000000000001249500000000000624820181106000000030000000000018700000000000000000606106006020180907162416                                                      250429399041033800080200N6396645377           000000012
10011676390007140041033800000000000000080200000001201809070043773701011634102018090716335629930200002000PGTU0000000000001398000000000001398020180910000000015000000000021000000000000000001377000000020180907163447                                                      250437737041033800080200N6396641738           000000013
10011676390007140041033800000000000000080200000001201809070062753701032011442018090720115629940200002890PGTX2000000000001899000000000000633020181008000000000000000000000000000000000000000633003009099991201000000                                                      250627537041033800080200N6396640046           000000014
10011676390007140041033800000000000000080200000001201809070062753702032011442018090720115629940200002890PGTX2000000000001899000000000000633020181106000000000000000000000000000000000000000633006009099991201000000                                                      250627537041033800080200N6396640046           000000015
10011676390007140041033800000000000000080200000001201809070062753703032011442018090720115629940200002890PGTX2000000000001899000000000000633020181206000000000000000000000000000000000000000633009009099991201000000                                                      250627537041033800080200N6396640046           000000016
10011676390007140041033800000000000000080200000001201809080042793501011152432018090811525629950200002000PGTA0000000000001299500000000001299520180910000000015000000000019500000000000000001280000000020180908115316                                                      251427935041033800080200N6396641335           000000017
10011676390007140041033800000000000000080200000001201809080058962201011342112018090813415629960200002000PGTA0000000000001196000000000001196020180910000000015000000000017900000000000000001178100000020180908134246                                                      251589622041033800080200N6396647989           000000018
10011676390007140041033800000000000000080200000001201809080059468801031345552018090813455629970200002890PGTX0000000000003894000000000001298020181008000000030000000000038900000000000000001259103009020180908134647                                                      251594688041033800080200N6396645983           000000019
10011676390007140041033800000000000000080200000001201809080059468802031345552018090813455629970200002890PGTX0000000000003894000000000001298020181107000000030000000000038900000000000000001259106009020180908134647                                                      251594688041033800080200N6396645983           000000020
10011676390007140041033800000000000000080200000001201809080059468803031345552018090813455629970200002890PGTX0000000000003894000000000001298020181207000000030000000000038900000000000000001259109009020180908134647                                                      251594688041033800080200N6396645983           000000021
10011676390007140041033800000000000000080200000001201809080068455401031446532018090814465629980200002890PGTX0000000000001749000000000000583020181008000000030000000000017500000000000000000565503009020180908144734                                                      251684554041033800080200N6396645153           000000022
10011676390007140041033800000000000000080200000001201809080068455402031446532018090814465629980200002890PGTX0000000000001749000000000000583020181107000000030000000000017500000000000000000565506009020180908144734                                                      251684554041033800080200N6396645153           000000023
10011676390007140041033800000000000000080200000001201809080068455403031446532018090814465629980200002890PGTX0000000000001749000000000000583020181207000000030000000000017500000000000000000565509009020180908144734                                                      251684554041033800080200N6396645153           000000024
10011676390007140041033800000000000000080200000001201809080083161101031613152018090816125629990200002890PGTX0000000000004196000000000001398620181008000000030000000000042000000000000000001356603009020180908161355                                                      251831611041033800080200N6396641262           000000025
10011676390007140041033800000000000000080200000001201809080083161102031613152018090816125629990200002890PGTX0000000000004196000000000001398720181107000000030000000000042000000000000000001356706009020180908161355                                                      251831611041033800080200N6396641262           000000026
10011676390007140041033800000000000000080200000001201809080083161103031613152018090816125629990200002890PGTX0000000000004196000000000001398720181207000000030000000000042000000000000000001356709009020180908161355                                                      251831611041033800080200N6396641262           000000027
10011676390007140041033800000000000000080200000001201809080106053301031828302018090818285630000200002890PGTX2000000000001596000000000000532020180911000000000000000000000000000000000000000532000306399991201000000                                                      251060533041033800080200N6396640907           000000028
10011676390007140041033800000000000000080200000001201809080106053302031828302018090818285630000200002890PGTX2000000000001596000000000000532020181011000000000000000000000000000000000000000532003306399991201000000                                                      251060533041033800080200N6396640907           000000029
10011676390007140041033800000000000000080200000001201809080106053303031828302018090818285630000200002890PGTX2000000000001596000000000000532020181110000000000000000000000000000000000000000532006306399991201000000                                                      251060533041033800080200N6396640907           000000030
10011676390007140041033800000000000000080200000001201809080106217401031829352018090818295630010200002890PGTX0000000000001596000000000000532020181008000000030000000000016000000000000000000516003009020180908183030                                                      251062174041033800080200N6396640907           000000031
10011676390007140041033800000000000000080200000001201809080106217402031829352018090818295630010200002890PGTX0000000000001596000000000000532020181107000000030000000000016000000000000000000516006009020180908183030                                                      251062174041033800080200N6396640907           000000032
10011676390007140041033800000000000000080200000001201809080106217403031829352018090818295630010200002890PGTX0000000000001596000000000000532020181207000000030000000000016000000000000000000516009009020180908183030                                                      251062174041033800080200N6396640907           000000033
10011676390007140041033800000000000000080200000001201809080115443201011941402018090819415630020200002000PGTA0000000000001348500000000001348520180910000000015000000000020200000000000000001328300000020180908194228                                                      251154432041033800080200N6396642579           000000034
10011676390007140041033800000000000000080200000001201809080119553901032031492018090820315630030200002890PGTX2000000000007694500000000002564820181008000000000000000000000000000000000000002564803009099991201000000                                                      251195539041033800080200N6396646527           000000035
10011676390007140041033800000000000000080200000001201809080119553902032031492018090820315630030200002890PGTX2000000000007694500000000002564820181107000000000000000000000000000000000000002564806009099991201000000                                                      251195539041033800080200N6396646527           000000036
10011676390007140041033800000000000000080200000001201809080119553903032031492018090820315630030200002890PGTX2000000000007694500000000002564920181207000000000000000000000000000000000000002564909009099991201000000                                                      251195539041033800080200N6396646527           000000037
10011676390007140041033800000000000000080200000001201809080120576901022048022018090820475630040200002890PGTX0000000000002148500000000001074220181008000000030000000000032200000000000000001042003006020180908204855                                                      251205769041033800080200N6396642293           000000038
10011676390007140041033800000000000000080200000001201809080120576902022048022018090820475630040200002890PGTX0000000000002148500000000001074320181107000000030000000000032200000000000000001042106006020180908204855                                                      251205769041033800080200N6396642293           000000039
10011676390007140041033800000000000000080200000001201809080122834401012131592018090821315630050200002900PGTP0000000000000699000000000000699020181008000000020000000000014000000000000000000685003003020180908213250                                                      251228344041033800080200N6396649696           000000040
10011676390007140041033800000000000000080200000001201809090038816801011653512018090916535630060200002000PGTA0000000000000798000000000000798020180910000000015000000000012000000000000000000786000000020180909165428                                                      252388168041033800080200N6396648485           000000041
10011676390009860041033800000000000000081900000001201809090037586401011626302018090916265014110200002900PGTP0000000000000499500000000000499520181009000000020000000000010000000000000000000489503003020180909162656                                                      252375864041033800081900N6396642625           000000042
10011676390015240041033800000000000000080700000001201809080054301601011305242018090813058211240200002000PGTA0000000000000598000000000000598020180910000000015000000000009000000000000000000589000000020180908130551                                                      251543016041033800080700N6396643232           000000043
10011676390015240041033800000000000000080700000001201809090035229901011540092018090915408211250200002000PGTA0000000000000600500000000000600520180910000000015000000000009000000000000000000591500000020180909154042                                                      252352299041033800080700N6396649755           000000044
10011676390030630041033800000000000000081200000002201809080095523301011723242018090817234494310200002000PGTA0000000000001349500000000001349520180910000000015000000000020200000000000000001329300000020180908172357                                                      251955233041033800081200N6396644356           000000045
10011676390031440041033800000000000000081300000001201809070037115101011503082018090715027923520200002000PGTA0000000000001596000000000001596020180910000000015000000000023900000000000000001572100000020180907150337                                                      250371151041033800081300N6396648419           000000046
10011676390031440041033800000000000000081300000001201809070038147501011518102018090715177923530200002900PGTP0000000000000299000000000000299020181008000000020000000000006000000000000000000293003003020180907151837                                                      250381475041033800081300N6396641865           000000047
10011676390031440041033800000000000000081300000001201809070044649601021644412018090716447923540200002890PGTX0000000000001299500000000000649720181008000000030000000000019500000000000000000630203006020180907164509                                                      250446496041033800081300N6396647263           000000048
10011676390031440041033800000000000000081300000001201809070044649602021644412018090716447923540200002890PGTX0000000000001299500000000000649820181106000000030000000000019500000000000000000630306006020180907164509                                                      250446496041033800081300N6396647263           000000049
10011676390031440041033800000000000000081300000001201809070053053701011817532018090718177923550200002000PGTA0000000000000949500000000000949520180910000000015000000000014200000000000000000935300000020180907181822                                                      250530537041033800081300N6396645535           000000050
10011676390031440041033800000000000000081300000001201809070056056801011849112018090718487923560200002000PGTA0000000000001449500000000001449520180910000000015000000000021700000000000000001427800000020180907184937                                                      250560568041033800081300N6396640041           000000051
10011676390031440041033800000000000000081300000001201809070056624701011855082018090718547923570200002000PGTA0000000000000598000000000000598020180910000000015000000000009000000000000000000589000000020180907185532                                                      250566247041033800081300N6396648848           000000052
10011676390031440041033800000000000000081300000001201809070058020601011910102018090719097923580200002000PGTA0000000000000299000000000000299020180910000000015000000000004500000000000000000294500000020180907191039                                                      250580206041033800081300N6396643399           000000053
10011676390031440041033800000000000000081300000001201809080050852301021239452018090812397923590200002890PGTX0000000000001198000000000000599020181008000000030000000000018000000000000000000581003006020180908124013                                                      251508523041033800081300N6396646222           000000054
10011676390031440041033800000000000000081300000001201809080050852302021239452018090812397923590200002890PGTX0000000000001198000000000000599020181107000000030000000000018000000000000000000581006006020180908124013                                                      251508523041033800081300N6396646222           000000055
10011676390031440041033800000000000000081300000001201809080053098601011256112018090812557923600200002000PGTA0000000000001499500000000001499520180910000000015000000000022500000000000000001477000000020180908125640                                                      251530986041033800081300N6396647349           000000056
10011676390031440041033800000000000000081300000001201809080055610701011315412018090813157923610200002000PGTA0000000000001448000000000001448020180910000000015000000000021700000000000000001426300000020180908131613                                                      251556107041033800081300N6396645862           000000057
10011676390031440041033800000000000000081300000001201809080056895101011325522018090813257923620200002900PGTP0000000000000598000000000000598020181008000000020000000000012000000000000000000586003003020180908132620                                                      251568951041033800081300N6396647297           000000058
10011676390031440041033800000000000000081300000001201809080057139201011327512018090813277923630200002900PGTP0000000000000699000000000000699020181008000000020000000000014000000000000000000685003003020180908132816                                                      251571392041033800081300N6396648029           000000059
10011676390031440041033800000000000000081300000001201809080062178101011406042018090814057923640200002900PGTP0000000000000598000000000000598020181008000000020000000000012000000000000000000586003003020180908140633                                                      251621781041033800081300N6396641213           000000060
10011676390031440041033800000000000000081300000001201809080064024701011418282018090814187923650200002000PGTA2000000000001548000000000001548099991201000000000000000000000000000000000000001548000000099991201000000                                                      251640247041033800081300N6396643016           000000061
10011676390031440041033800000000000000081300000001201809080069327301011452212018090814527923660200002000PGTA0000000000000598000000000000598020180910000000015000000000009000000000000000000589000000020180908145248                                                      251693273041033800081300N6396641163           000000062
10011676390031440041033800000000000000081300000001201809080078569701011547052018090815467923670200002000PGTA0000000000000150500000000000150520180910000000015000000000002300000000000000000148200000020180908154735                                                      251785697041033800081300N6396644987           000000063
10011676390031440041033800000000000000081300000001201809080084987101011623232018090816237923680200002000PGTA0000000000000598000000000000598020180910000000015000000000009000000000000000000589000000020180908162350                                                      251849871041033800081300N6396642563           000000064
10011676390031440041033800000000000000081300000001201809080095554201021723362018090817237923690200002890PGTX0000000000001299500000000000649720181008000000030000000000019500000000000000000630203006020180908172347                                                      251955542041033800081300N6396643110           000000065
10011676390031440041033800000000000000081300000001201809080095554202021723362018090817237923690200002890PGTX0000000000001299500000000000649820181107000000030000000000019500000000000000000630306006020180908172347                                                      251955542041033800081300N6396643110           000000066
10011676390031440041033800000000000000081300000001201809080099180601011745002018090817447923700200002000PGTA0000000000000299000000000000299020180910000000015000000000004500000000000000000294500000020180908174528                                                      251991806041033800081300N6396648780           000000067
10011676390031440041033800000000000000081300000001201809080100922501031755292018090817557923710200002890PGTX0000000000002648500000000000882820181008000000030000000000026500000000000000000856303009020180908175557                                                      251009225041033800081300N6396643342           000000068
10011676390031440041033800000000000000081300000001201809080100922502031755292018090817557923710200002890PGTX0000000000002648500000000000882820181107000000030000000000026500000000000000000856306009020180908175557                                                      251009225041033800081300N6396643342           000000069
10011676390031440041033800000000000000081300000001201809080100922503031755292018090817557923710200002890PGTX0000000000002648500000000000882920181207000000030000000000026500000000000000000856409009020180908175557                                                      251009225041033800081300N6396643342           000000070
10011676390031440041033800000000000000081300000001201809080102197801021803332018090818037923720200002890PGTX0000000000001598000000000000799020181008000000030000000000024000000000000000000775003006020180908180405                                                      251021978041033800081300N6396640137           000000071
10011676390031440041033800000000000000081300000001201809080102197802021803332018090818037923720200002890PGTX0000000000001598000000000000799020181107000000030000000000024000000000000000000775006006020180908180405                                                      251021978041033800081300N6396640137           000000072
10011676390031440041033800000000000000081300000001201809080102834501031807352018090818077923730200002890PGTX0000000000001699000000000000566320181008000000030000000000017000000000000000000549303009020180908180804                                                      251028345041033800081300N6396649188           000000073
10011676390031440041033800000000000000081300000001201809080102834502031807352018090818077923730200002890PGTX0000000000001699000000000000566320181107000000030000000000017000000000000000000549306009020180908180804                                                      251028345041033800081300N6396649188           000000074
10011676390031440041033800000000000000081300000001201809080102834503031807352018090818077923730200002890PGTX0000000000001699000000000000566420181207000000030000000000017000000000000000000549409009020180908180804                                                      251028345041033800081300N6396649188           000000075
10011676390031440041033800000000000000081300000001201809080116367001011951102018090819507923740200002000PGTA0000000000000699500000000000699520180910000000015000000000010500000000000000000689000000020180908195141                                                      251163670041033800081300N6396649899           000000076
10011676390031440041033800000000000000081300000001201809080120355901012044182018090820447923750200002000PGTA0000000000000299000000000000299020180910000000015000000000004500000000000000000294500000020180908204450                                                      251203559041033800081300N6396644796           000000077
10011676390031440041033800000000000000081300000001201809080122754801012130132018090821307923760200002000PGTA2000000000002199000000000002199099991201000000000000000000000000000000000000002199000000099991201000000                                                      251227548041033800081300N6396641880           000000078
10011676390031440041033800000000000000081300000001201809080122790201012130592018090821307923770200002000PGTA2000000000002199000000000002199099991201000000000000000000000000000000000000002199000000099991201000000                                                      251227902041033800081300N6396641880           000000079
10011676390031440041033800000000000000081300000001201809080126245901012306182018090823067923780200002000PGTA0000000000015344000000000015344020180910000000015000000000230200000000000000015113800000020180908230652                                                      251262459041033800081300N6396643458           000000080
10011676390031440041033800000000000000081300000001201809090041699401031753072018090917527923790200002890PGTX0000000000001947500000000000649120181009000000030000000000019500000000000000000629603009020180909175337                                                      252416994041033800081300N6396645061           000000081
10011676390031440041033800000000000000081300000001201809090041699402031753072018090917527923790200002890PGTX0000000000001947500000000000649220181108000000030000000000019500000000000000000629706009020180909175337                                                      252416994041033800081300N6396645061           000000082
10011676390031440041033800000000000000081300000001201809090041699403031753072018090917527923790200002890PGTX0000000000001947500000000000649220181210000000030000000000019500000000000000000629709009020180909175337                                                      252416994041033800081300N6396645061           000000083
10011676390035780041033800000000000000081400000001201809070038340701011520532018090715201856970200002000PGTA0000000000000698500000000000698520180910000000015000000000010500000000000000000688000000020180907152125                                                      250383407041033800081400N6396640692           000000084
10011676390035780041033800000000000000081400000001201809070039655901011539352018090715391856980200002900PGTP0000000000000899000000000000899020181008000000020000000000018000000000000000000881003003020180907154006                                                      250396559041033800081400N6396644846           000000085
10011676390035780041033800000000000000081400000001201809070051574101011802312018090718021856990200002000PGTA0000000000001196000000000001196020180910000000015000000000017900000000000000001178100000020180907180304                                                      250515741041033800081400N6396641864           000000086
10011676390035780041033800000000000000081400000001201809080046339201021210142018090812091857000200002890PGTX0000000000003946300000000001973120181008000000030000000000059200000000000000001913903006020180908121048                                                      251463392041033800081400N6396640800           000000087
10011676390035780041033800000000000000081400000001201809080046339202021210142018090812091857000200002890PGTX0000000000003946300000000001973220181107000000030000000000059200000000000000001914006006020180908121048                                                      251463392041033800081400N6396640800           000000088
10011676390035780041033800000000000000081400000001201809080068035901021444172018090814431857010200002890PGTX0000000000001298000000000000649020181008000000030000000000019500000000000000000629503006020180908144450                                                      251680359041033800081400N6396645890           000000089
10011676390035780041033800000000000000081400000001201809080068035902021444172018090814431857010200002890PGTX0000000000001298000000000000649020181107000000030000000000019500000000000000000629506006020180908144450                                                      251680359041033800081400N6396645890           000000090
10011676390035780041033800000000000000081400000001201809080073023401011514462018090815141857020200002000PGTA0000000000000199000000000000199020180910000000015000000000003000000000000000000196000000020180908151519                                                      251730234041033800081400N6396649938           000000091
10011676390035780041033800000000000000081400000001201809080074272001031522042018090815211857030200002890PGTX0000000000004598000000000001532620181008000000030000000000046000000000000000001486603009020180908152240                                                      251742720041033800081400N6396645495           000000092
10011676390035780041033800000000000000081400000001201809080074272002031522042018090815211857030200002890PGTX0000000000004598000000000001532720181107000000030000000000046000000000000000001486706009020180908152240                                                      251742720041033800081400N6396645495           000000093
10011676390035780041033800000000000000081400000001201809080074272003031522042018090815211857030200002890PGTX0000000000004598000000000001532720181207000000030000000000046000000000000000001486709009020180908152240                                                      251742720041033800081400N6396645495           000000094
10011676390035780041033800000000000000081400000001201809080079654001011553162018090815531857040200002000PGTA0000000000000598000000000000598020180910000000015000000000009000000000000000000589000000020180908155349                                                      251796540041033800081400N6396643651           000000095
10011676390035780041033800000000000000081400000001201809080095827001011725102018090817241857050200002000PGTA0000000000001298100000000001298120180910000000015000000000019500000000000000001278600000020180908172549                                                      251958270041033800081400N6396649036           000000096
10011676390035780041033800000000000000081400000001201809080109626201011852532018090818521857060200002000PGTA0000000000002794500000000002794520180910000000015000000000041900000000000000002752600000020180908185325                                                      251096262041033800081400N6396643878           000000097
10011676390036590041033800000000000000081500000001201809070040555001031552062018090715511003010200002890PGTX0000000000001599500000000000533120181008000000030000000000016000000000000000000517103009020180907155240                                                      250405550041033800081500N6396643542           000000098
10011676390036590041033800000000000000081500000001201809070040555002031552062018090715511003010200002890PGTX0000000000001599500000000000533220181106000000030000000000016000000000000000000517206009020180907155240                                                      250405550041033800081500N6396643542           000000099
10011676390036590041033800000000000000081500000001201809070040555003031552062018090715511003010200002890PGTX0000000000001599500000000000533220181206000000030000000000016000000000000000000517209009020180907155240                                                      250405550041033800081500N6396643542           000000100
10011676390036590041033800000000000000081500000001201809070060190201011935412018090719351003020200002000PGTA0000000000000598000000000000598020180910000000015000000000009000000000000000000589000000020180907193606                                                      250601902041033800081500N6396640932           000000101
10011676390036590041033800000000000000081500000001201809080051316001011243032018090812421003030200002000PGTA0000000000000947000000000000947020180910000000015000000000014200000000000000000932800000020180908124331                                                      251513160041033800081500N6396647397           000000102
10011676390036590041033800000000000000081500000001201809080081234201011602162018090816021003040200002000PGTA0000000000000498000000000000498020180910000000015000000000007500000000000000000490500000020180908160246                                                      251812342041033800081500N6396646776           000000103
10011676390036590041033800000000000000081500000001201809080099337801021745562018090817451003050200002890PGTX0000000000001999000000000000999520181008000000030000000000030000000000000000000969503006020180908174623                                                      251993378041033800081500N6396641060           000000104
10011676390036590041033800000000000000081500000001201809080099337802021745562018090817451003050200002890PGTX0000000000001999000000000000999520181107000000030000000000030000000000000000000969506006020180908174623                                                      251993378041033800081500N6396641060           000000105
10011676390036590041033800000000000000081500000001201809080100183601011751032018090817501003060200002900PGTP0000000000000599000000000000599020181008000000020000000000012000000000000000000587003003020180908175130                                                      251001836041033800081500N6396640170           000000106
10011676390036590041033800000000000000081500000001201809080107725901011839402018090818391003070200002900PGTP0000000000000998000000000000998020181008000000020000000000020000000000000000000978003003020180908184008                                                      251077259041033800081500N6396642813           000000107
10011676390036590041033800000000000000081500000001201809080110783101011901142018090819001003080200002000PGTA0000000000000800000000000000800020180910000000015000000000012000000000000000000788000000020180908190126                                                      251107831041033800081500N6396645418           000000108
10011676390036590041033800000000000000081500000001201809080117273401012001062018090820001003090200002000PGTA0000000000000999500000000000999520180910000000015000000000015000000000000000000984500000020180908200134                                                      251172734041033800081500N6396643676           000000109
10011676390036590041033800000000000000081500000001201809090034101301011519232018090915181003100200002900PGTP0000000000000897500000000000897520181009000000020000000000018000000000000000000879503003020180909151952                                                      252341013041033800081500N6396642459           000000110
10011676390047010041033800000000000000082300000001201809080081413401011603202018090816027080620200002000PGTA0000000000001348500000000001348520180910000000015000000000020200000000000000001328300000020180908160348                                                      251814134041033800082300N6396640917           000000111
10011676390048920041033800000000000000083400000001201809080029095501011057192018090810578562190200002000PGTA0000000000000995000000000000995020180910000000017000000000016900000000000000000978100000020180908105749                                                      251290955041033800083400N6396646953           000000112
10011676390048920041033800000000000000083400000001201809080086337101041630592018090816308562200200002890PGTX0000000000011244500000000002811120181008000000030000000000084300000000000000002726803012020180908163129                                                      251863371041033800083400N6396642389           000000113
10011676390048920041033800000000000000083400000001201809080086337102041630592018090816308562200200002890PGTX0000000000011244500000000002811120181107000000030000000000084300000000000000002726806012020180908163129                                                      251863371041033800083400N6396642389           000000114
10011676390048920041033800000000000000083400000001201809080086337103041630592018090816308562200200002890PGTX0000000000011244500000000002811120181207000000030000000000084300000000000000002726809012020180908163129                                                      251863371041033800083400N6396642389           000000115
10011676390048920041033800000000000000083400000001201809080086337104041630592018090816308562200200002890PGTX0000000000011244500000000002811220190107000000030000000000084300000000000000002726912012020180908163129                                                      251863371041033800083400N6396642389           000000116
10011676390048920041033800000000000000083400000003201809080084954601011623122018090816238559060200002000PGTA0000000000000299000000000000299020180910000000017000000000005100000000000000000293900000020180908162348                                                      251849546041033800083400N6396642348           000000117
10011676390049730041033800000000000000092500000001201809070064662801012045352018090720451068130200002900PGTP0000000000000897500000000000897520181008000000023000000000020600000000000000000876903003020180907204609                                                      250646628041033800092500N6396643225           000000118
10011676390049730041033800000000000000092500000001201809090041204401031742252018090917421068140200002800PGTX0000000000004496500000000001498820180910000000030000000000045000000000000000001453800006020180909174259                                                      252412044041033800092500N6396648265           000000119
10011676390049730041033800000000000000092500000001201809090041204402031742252018090917421068140200002800PGTX0000000000004496500000000001498820181009000000030000000000045000000000000000001453803006020180909174259                                                      252412044041033800092500N6396648265           000000120
10011676390049730041033800000000000000092500000001201809090041204403031742252018090917421068140200002800PGTX0000000000004496500000000001498920181108000000030000000000045000000000000000001453906006020180909174259                                                      252412044041033800092500N6396648265           000000121
10011676390051980041033800000000000000094400000001201809080050361901011236182018090812361068830200002000PGTA0000000000002197500000000002197520180910000000017000000000037400000000000000002160100000020180908123651                                                      251503619041033800094400N6396646999           000000122
10011676390051980041033800000000000000094400000001201809080089258701011647282018090816471068840200002000PGTA0000000000000797000000000000797020180910000000017000000000013500000000000000000783500000020180908164802                                                      251892587041033800094400N6396641391           000000123
10011676390051980041033800000000000000094400000001201809080105686601031826042018090818251068850200002890PGTX0000000000002998000000000000999320181008000000030000000000030000000000000000000969303009020180908182639                                                      251056866041033800094400N6396642955           000000124
10011676390051980041033800000000000000094400000001201809080105686602031826042018090818251068850200002890PGTX0000000000002998000000000000999320181107000000030000000000030000000000000000000969306009020180908182639                                                      251056866041033800094400N6396642955           000000125
10011676390051980041033800000000000000094400000001201809080105686603031826042018090818251068850200002890PGTX0000000000002998000000000000999420181207000000030000000000030000000000000000000969409009020180908182639                                                      251056866041033800094400N6396642955           000000126
10011676390051980041033800000000000000094400000001201809080114195501011929492018090819291068860200002900PGTP0000000000000598000000000000598020181008000000023000000000013800000000000000000584203003020180908193023                                                      251141955041033800094400N6396641199           000000127
10011676390051980041033800000000000000094400000001201809090032708301011453022018090914521068870200002000PGTA0000000000000649500000000000649520180910000000017000000000011000000000000000000638500000020180909145335                                                      252327083041033800094400N6396640132           000000128
10011676390052790041033800000000000000095700000001201809070021445401011144402018090711443320600200002000PGTA0000000000001446500000000001446520180910000000017000000000024600000000000000001421900000020180907114515                                                      250214454041033800095700N6396647989           000000129
10011676390052790041033800000000000000095700000001201809070045176101011651072018090716513320610200002000PGTA0000000000002346000000000002346020180910000000017000000000039900000000000000002306100000020180907165147                                                      250451761041033800095700N6396645976           000000130
10011676390052790041033800000000000000095700000001201809070049333701011738452018090717383320620200002900PGTP0000000000002346500000000002346520181008000000023000000000054000000000000000002292503003020180907173925                                                      250493337041033800095700N6396645611           000000131
10011676390052790041033800000000000000095700000001201809080045276201011204212018090812043320630200002000PGTA0000000000002924000000000002924020180910000000017000000000049700000000000000002874300000020180908120437                                                      251452762041033800095700N6396649684           000000132
10011676390052790041033800000000000000095700000001201809080045491401021205292018090812053320640200002890PGTX0000000000002924000000000001462020181008000000030000000000043900000000000000001418103006020180908120632                                                      251454914041033800095700N6396649684           000000133
10011676390052790041033800000000000000095700000001201809080045491402021205292018090812053320640200002890PGTX0000000000002924000000000001462020181107000000030000000000043900000000000000001418106006020180908120632                                                      251454914041033800095700N6396649684           000000134
10011676390052790041033800000000000000095700000001201809080046921301011213432018090812133320650200002900PGTP0000000000006941500000000006941520181015000000023000000000159700000000000000006781803703720180908121423                                                      251469213041033800095700N6396647556           000000135
10011676390052790041033800000000000000095700000001201809080055798501011317092018090813173320660200002000PGTA0000000000000998000000000000998020180910000000017000000000017000000000000000000981000000020180908131751                                                      251557985041033800095700N6396646031           000000136
10011676390052790041033800000000000000095700000001201809080068381001011446252018090814463320670200002000PGTA0000000000001196000000000001196020180911000000017000000000020300000000000000001175700000020180908144704                                                      251683810041033800095700N6396643389           000000137
10011676390052790041033800000000000000095700000001201809080073466501011517222018090815173320680200002900PGTP0000000000001598000000000001598020181008000000023000000000036800000000000000001561203003020180908151758                                                      251734665041033800095700N6396648951           000000138
10011676390052790041033800000000000000095700000001201809080098366901011740052018090817393320690200002000PGTA0000000000000697000000000000697020180910000000017000000000011800000000000000000685200000020180908174042                                                      251983669041033800095700N6396643116           000000139
10011676390052790041033800000000000000095700000001201809090016493801011118282018090911183320700200002000PGTA0000000000001498000000000001498020180910000000017000000000025500000000000000001472500000020180909111907                                                      252164938041033800095700N6396645976           000000140
10011676390052790041033800000000000000095700000001201809090024658901031239442018090912393320710200002890PGTX2000000000004491000000000001497020181009000000000000000000000000000000000000001497003009099991201000000                                                      252246589041033800095700N6396645000           000000141
10011676390052790041033800000000000000095700000001201809090024658902031239442018090912393320710200002890PGTX2000000000004491000000000001497020181108000000000000000000000000000000000000001497006009099991201000000                                                      252246589041033800095700N6396645000           000000142
10011676390052790041033800000000000000095700000001201809090024658903031239442018090912393320710200002890PGTX2000000000004491000000000001497020181210000000000000000000000000000000000000001497009009099991201000000                                                      252246589041033800095700N6396645000           000000143
10011676390055110041033800000000000000106600000001201809080043201401021154292018090811542716150200002890PGTX0000000000001998000000000000999020181008000000030000000000030000000000000000000969003006020180908115500                                                      251432014041033800106600N6396647289           000000144
10011676390055110041033800000000000000106600000001201809080043201402021154292018090811542716150200002890PGTX0000000000001998000000000000999020181107000000030000000000030000000000000000000969006006020180908115500                                                      251432014041033800106600N6396647289           000000145
10011676390055110041033800000000000000106600000001201809080047918101011219592018090812202716160200002000PGTA0000000000000598000000000000598020180910000000017000000000010200000000000000000587800000020180908122026                                                      251479181041033800106600N6396648484           000000146
10011676390055110041033800000000000000106600000001201809080067561501011441162018090814412716170200002000PGTA0000000000001395000000000001395020180910000000017000000000023700000000000000001371300000020180908144148                                                      251675615041033800106600N6396642210           000000147
10011676390055110041033800000000000000106600000001201809080114607601011933362018090819332716180200002000PGTA0000000000002549000000000002549020180910000000017000000000043300000000000000002505700000020180908193402                                                      251146076041033800106600N6396640623           000000148
10011676390055110041033800000000000000106600000001201809080120031301012039062018090820392716190200002000PGTA0000000000002999000000000002999020180910000000017000000000051000000000000000002948000000020180908203934                                                      251200313041033800106600N6396646870           000000149
10011676390058640041033800000000000000114400000001201809070058109301011911102018090719110720720200002000PGTA0000000000000598000000000000598020180910000000017000000000010200000000000000000587800000020180907191148                                                      250581093041033800114400N6396646144           000000150
10011676390058640041033800000000000000114400000001201809080052753801011253352018090812530720730200002000PGTA0000000000001999500000000001999520180910000000017000000000034000000000000000001965500000020180908125404                                                      251527538041033800114400N6396642798           000000151
10011676390060890041033800000000000000116700000003201809080013157601030944432018090809441002300200002800PGTX0000000000001899500000000000633120180910000000030000000000019000000000000000000614100006020180908094510                                                      251131576041033800116700N6396642990           000000152
10011676390060890041033800000000000000116700000003201809080013157602030944432018090809441002300200002800PGTX0000000000001899500000000000633220181008000000030000000000019000000000000000000614203006020180908094510                                                      251131576041033800116700N6396642990           000000153
10011676390060890041033800000000000000116700000003201809080013157603030944432018090809441002300200002800PGTX0000000000001899500000000000633220181107000000030000000000019000000000000000000614206006020180908094510                                                      251131576041033800116700N6396642990           000000154
10011676390062400041033800000000000000119700000001201809070064275101012038202018090720367155220200002000PGTA0000000000001149500000000001149520180910000000017000000000019500000000000000001130000000020180907203854                                                      250642751041033800119700N6396645599           000000155
10011676390064020041033800000000000000122100000001201809080083167901011613172018090816137902450200002000PGTA0000000000000499500000000000499520180910000000017000000000008500000000000000000491000000020180908161350                                                      251831679041033800122100N6396643290           000000156
10011676390064020041033800000000000000122100000001201809080085709901031627282018090816277902460200002890PGTX0000000000001499500000000000499820181008000000030000000000015000000000000000000484803009020180908162808                                                      251857099041033800122100N6396643290           000000157
10011676390064020041033800000000000000122100000001201809080085709902031627282018090816277902460200002890PGTX0000000000001499500000000000499820181107000000030000000000015000000000000000000484806009020180908162808                                                      251857099041033800122100N6396643290           000000158
10011676390064020041033800000000000000122100000001201809080085709903031627282018090816277902460200002890PGTX0000000000001499500000000000499920181207000000030000000000015000000000000000000484909009020180908162808                                                      251857099041033800122100N6396643290           000000159
10011676390064020041033800000000000000122100000001201809090044685001011843392018090918437902470200002000PGTA0000000000001149500000000001149520180910000000017000000000019500000000000000001130000000020180909184412                                                      252446850041033800122100N6396641918           000000160
10011676390067550041033800000000000000123800000002201809070033828101021414062018090714133126550200002890PGTX0000000000001000000000000000500020181008000000030000000000015000000000000000000485003006020180907141437                                                      250338281041033800123800N6396646000           000000161
10011676390067550041033800000000000000123800000002201809070033828102021414062018090714133126550200002890PGTX0000000000001000000000000000500020181106000000030000000000015000000000000000000485006006020180907141437                                                      250338281041033800123800N6396646000           000000162
10011676390067550041033800000000000000123800000002201809070057620401011905472018090719053126560200002000PGTA0000000000007540500000000007540520180910000000017000000000128200000000000000007412300000020180907190608                                                      250576204041033800123800N6396642719           000000163
10011676390067550041033800000000000000123800000002201809070062175701012002582018090720023126570200002000PGTA0000000000001599000000000001599020180910000000017000000000027200000000000000001571800000020180907200317                                                      250621757041033800123800N6396648991           000000164
10011676390067550041033800000000000000123800000002201809090039536301011707032018090917063126580200002000PGTA0000000000000597000000000000597020180910000000017000000000010100000000000000000586900000020180909170725                                                      252395363041033800123800N6396643225           000000165
10011676390073010041033800000000000000132100000001201809090039891201011713512018090917137150590200002900PGTP0000000000000598000000000000598020181009000000032000000000019100000000000000000578903003020180909171426                                                      252398912041033800132100N6396644139           000000166
10011676390080220041033800000000000000142000000001201809080042749701011152302018090811525405210200002000PGTA0000000000000599500000000000599520180910000000023000000000013800000000000000000585700000020180908115252                                                      251427497041033800142000N6396648442           000000167
10011676390080220041033800000000000000142000000001201809080049022801011227102018090812265405220200002900PGTP0000000000001046500000000001046520181008000000032000000000033500000000000000001013003003020180908122731                                                      251490228041033800142000N6396642627           000000168
10011676390080220041033800000000000000142000000001201809080083320701021614082018090816135405230200002890PGTX0000000000001195000000000000597520181008000000040000000000023900000000000000000573603006020180908161430                                                      251833207041033800142000N6396645952           000000169
10011676390080220041033800000000000000142000000001201809080083320702021614082018090816135405230200002890PGTX0000000000001195000000000000597520181107000000040000000000023900000000000000000573606006020180908161430                                                      251833207041033800142000N6396645952           000000170
99ARQUIVO GERAL DE OPERACOES              BJRVCA1 2018091020180910005632BANRISUL  01167639000129000000169                                                                                                                                                                                                              000000171
