00ARQUIVO GERAL DE OPERACOES              BJRVCA1 2018092120180921014223BANRISUL  01167639000129                                                                                                                                                                                                                       000000001
10011676390007140041033800000000000000080200000001201809200038379601011625422018092016255630510200002000PGTA0000000000002199000000000002199020180921000000015000000000033000000000000000002166000000020180920162616                                                      263383796041033800080200N6396640463           000000002
10011676390007140041033800000000000000080200000001201809200039650001011644012018092016435630520200002900PGTP0000000000000649500000000000649520181022000000020000000000013000000000000000000636503003020180920164436                                                      263396500041033800080200N6396646327           000000003
10011676390007140041033800000000000000080200000001201809200048883901011837342018092018375630530200002000PGTA0000000000000799000000000000799020180921000000015000000000012000000000000000000787000000020180920183810                                                      263488839041033800080200N6396647112           000000004
10011676390030630041033800000000000000081200000002201809200055648901012013372018092020134494400200002000PGTA0000000000000849500000000000849520180921000000015000000000012700000000000000000836800000020180920201402                                                      263556489041033800081200N6396649549           000000005
10011676390035780041033800000000000000081400000001201809200034721401011526422018092015261857510200002000PGTA0000000000000599500000000000599520180921000000015000000000009000000000000000000590500000020180920152713                                                      263347214041033800081400N6396647338           000000006
10011676390035780041033800000000000000081400000001201809200054036201011945072018092019441857520200002000PGTA0000000000000299000000000000299020180921000000015000000000004500000000000000000294500000020180920194540                                                      263540362041033800081400N6396641519           000000007
10011676390036590041033800000000000000081500000001201809200032135201031440232018092014401003500200002890PGTX0000000000001999000000000000666320181022000000030000000000020000000000000000000646303009020180920144052                                                      263321352041033800081500N6396646058           000000008
10011676390036590041033800000000000000081500000001201809200032135202031440232018092014401003500200002890PGTX0000000000001999000000000000666320181119000000030000000000020000000000000000000646306009020180920144052                                                      263321352041033800081500N6396646058           000000009
10011676390036590041033800000000000000081500000001201809200032135203031440232018092014401003500200002890PGTX0000000000001999000000000000666420181219000000030000000000020000000000000000000646409009020180920144052                                                      263321352041033800081500N6396646058           000000010
10011676390036590041033800000000000000081500000001201809200040987301011702252018092017021003510200002000PGTA0000000000003298000000000003298020180921000000015000000000049500000000000000003248500000020180920170246                                                      263409873041033800081500N0000000000           000000011
10011676390036590041033800000000000000081500000001201809200050990701011903032018092019021003520200002900PGTP0000000000000299000000000000299020181022000000020000000000006000000000000000000293003003020180920190333                                                      263509907041033800081500N6396645313           000000012
10011676390047010041033800000000000000082300000001201809200058881201012132302018092021327080700200002000PGTA0000000000004946000000000004946020180921000000015000000000074200000000000000004871800000020180920213305                                                      263588812041033800082300N6396643416           000000013
10011676390048920041033800000000000000083400000001201809200039234801011638092018092016388562300200002000PGTA0000000000000896000000000000896020180921000000017000000000015200000000000000000880800000020180920163838                                                      263392348041033800083400N6396644119           000000014
10011676390067550041033800000000000000123800000002201809200026631301011307122018092013063126730200002000PGTA0000000000001548500000000001548520180921000000017000000000026300000000000000001522200000020180920130724                                                      263266313041033800123800N6396649015           000000015
10011676390067550041033800000000000000123800000002201809200032142301011440312018092014403126740200002000PGTA0000000000001998500000000001998520180921000000017000000000034000000000000000001964500000020180920144053                                                      263321423041033800123800N6396643992           000000016
10011676390070500041033800000000000000123900000001201809200037248801031608332018092016061571330200002890PGTX0000000000002649500000000000883120181022000000030000000000026500000000000000000856603009020180920160856                                                      263372488041033800123900N6396641791           000000017
10011676390070500041033800000000000000123900000001201809200037248802031608332018092016061571330200002890PGTX0000000000002649500000000000883220181119000000030000000000026500000000000000000856706009020180920160856                                                      263372488041033800123900N6396641791           000000018
10011676390070500041033800000000000000123900000001201809200037248803031608332018092016061571330200002890PGTX0000000000002649500000000000883220181219000000030000000000026500000000000000000856709009020180920160856                                                      263372488041033800123900N6396641791           000000019
10011676390072120041033800000000000000130900000001201809200051468801011909062018092019087605910200002000PGTA0000000000002000000000000002000020180921000000023000000000046000000000000000001954000000020180920190918                                                      263514688041033800130900N6396643141           000000020
10011676390073010041033800000000000000132100000001201809200032614601011449032018092014487150720200002000PGTA0000000000003945000000000003945020180921000000023000000000090700000000000000003854300000020180920144937                                                      263326146041033800132100N6396647087           000000021
99ARQUIVO GERAL DE OPERACOES              BJRVCA1 2018092120180921014223BANRISUL  01167639000129000000020                                                                                                                                                                                                              000000022
