00ARQUIVO GERAL DE OPERACOES              BJRVCA1 2019031420190314022120BANRISUL  01167639000129                                                                                                                                                                                                                       000000001
10011676390002000041033800000000000000079900000001201903130088050601011914182019031319148186660200002000PGTA0000000000001199000000000001199020190314000000015000000000018000000000000000001181000000020190313191441                                                      072880506041033800079900N6396644971           000000002
10011676390002000041033800000000000000079900000001201903130093943001032014512019031320148186670200002800PGTX0000000000004095000000000001365020190314000000030000000000041000000000000000001324000006020190313201516                                                      072939430041033800079900N6396640488           000000003
10011676390002000041033800000000000000079900000001201903130093943002032014512019031320148186670200002800PGTX0000000000004095000000000001365020190412000000030000000000041000000000000000001324003006020190313201516                                                      072939430041033800079900N6396640488           000000004
10011676390002000041033800000000000000079900000001201903130093943003032014512019031320148186670200002800PGTX0000000000004095000000000001365020190513000000030000000000041000000000000000001324006006020190313201516                                                      072939430041033800079900N6396640488           000000005
10011676390002000041033800000000000000079900000001201903130094251601012019252019031320198186680200002000PGTA0000000000001298500000000001298520190314000000015000000000019500000000000000001279000000020190313201949                                                      072942516041033800079900N6396642880           000000006
10011676390007140041033800000000000000080200000001201903130026895101011200022019031311596027460200002000PGTA0000000000002448000000000002448020190314000000015000000000036700000000000000002411300000020190313120029                                                      072268951041033800080200N6396646368           000000007
10011676390007140041033800000000000000080200000001201903130035303601011301542019031313016027470200002900PGTP0000000000000349500000000000349520190412000000020000000000007000000000000000000342503003020190313130241                                                      072353036041033800080200N6396640237           000000008
10011676390007140041033800000000000000080200000001201903130036688001011313462019031313136027480200002000PGTA0000000000000100000000000000100020190314000000015000000000001500000000000000000098500000020190313131436                                                      072366880041033800080200N6396640237           000000009
10011676390007140041033800000000000000080200000001201903130056416501011600272019031316006027490200002000PGTA0000000000001499500000000001499520190314000000015000000000022500000000000000001477000000020190313160308                                                      072564165041033800080200N6396640053           000000010
10011676390007140041033800000000000000080200000001201903130087932101011913192019031319136027500200002000PGTA0000000000009791500000000009791520190314000000015000000000146900000000000000009644600000020190313191622                                                      072879321041033800080200N6396647356           000000011
10011676390007140041033800000000000000080200000001201903130092434701011955352019031319556027510200002000PGTA0000000000000499500000000000499520190314000000015000000000007500000000000000000492000000020190313195602                                                      072924347041033800080200N6396646672           000000012
10011676390007140041033800000000000000080200000001201903130094873601012028502019031320286027520200002000PGTA0000000000000449500000000000449520190314000000015000000000006700000000000000000442800000020190313202918                                                      072948736041033800080200N6396645049           000000013
10011676390007140041033800000000000000080200000001201903130096309301012052292019031320526027530200002000PGTA0000000000000499500000000000499520190314000000015000000000007500000000000000000492000000020190313205300                                                      072963093041033800080200N6396642252           000000014
10011676390015240041033800000000000000080700000001201903130024041101031139272019031311398217710200002890PGTX0000000000003196500000000001065520190412000000030000000000032000000000000000001033503009020190313114017                                                      072240411041033800080700N6396649692           000000015
10011676390015240041033800000000000000080700000001201903130024041102031139272019031311398217710200002890PGTX0000000000003196500000000001065520190513000000030000000000032000000000000000001033506009020190313114017                                                      072240411041033800080700N6396649692           000000016
10011676390015240041033800000000000000080700000001201903130024041103031139272019031311398217710200002890PGTX0000000000003196500000000001065520190611000000030000000000032000000000000000001033509009020190313114017                                                      072240411041033800080700N6396649692           000000017
10011676390015240041033800000000000000080700000001201903130028494701011211592019031312118217720200002000PGTA0000000000000399000000000000399020190314000000015000000000006000000000000000000393000000020190313121233                                                      072284947041033800080700N6396643079           000000018
10011676390015240041033800000000000000080700000001201903130029084601031216212019031312168217730200002890PGTX0000000000003395500000000001131820190412000000030000000000034000000000000000001097803009020190313121707                                                      072290846041033800080700N6396649858           000000019
10011676390015240041033800000000000000080700000001201903130029084602031216212019031312168217730200002890PGTX0000000000003395500000000001131820190513000000030000000000034000000000000000001097806009020190313121707                                                      072290846041033800080700N6396649858           000000020
10011676390015240041033800000000000000080700000001201903130029084603031216212019031312168217730200002890PGTX0000000000003395500000000001131920190611000000030000000000034000000000000000001097909009020190313121707                                                      072290846041033800080700N6396649858           000000021
10011676390015240041033800000000000000080700000001201903130032767101031242432019031312428217740200002890PGTX0000000000002944500000000000981520190412000000030000000000029400000000000000000952103009020190313124312                                                      072327671041033800080700N6396648912           000000022
10011676390015240041033800000000000000080700000001201903130032767102031242432019031312428217740200002890PGTX0000000000002944500000000000981520190513000000030000000000029400000000000000000952106009020190313124312                                                      072327671041033800080700N6396648912           000000023
10011676390015240041033800000000000000080700000001201903130032767103031242432019031312428217740200002890PGTX0000000000002944500000000000981520190611000000030000000000029400000000000000000952109009020190313124312                                                      072327671041033800080700N6396648912           000000024
10011676390015240041033800000000000000080700000001201903130039358301011338132019031313378217750200002900PGTP0000000000000399000000000000399020190412000000020000000000008000000000000000000391003003020190313133835                                                      072393583041033800080700N6396646266           000000025
10011676390015240041033800000000000000080700000001201903130049894001011511182019031315118217760200002000PGTA0000000000000249000000000000249020190314000000015000000000003700000000000000000245300000020190313151143                                                      072498940041033800080700N6396640200           000000026
10011676390015240041033800000000000000080700000001201903130050222801011513532019031315138217770200002000PGTA0000000000001898000000000001898020190314000000015000000000028500000000000000001869500000020190313151420                                                      072502228041033800080700N6396643373           000000027
10011676390015240041033800000000000000080700000001201903130056063901011557562019031315578217780200002000PGTA0000000000000249000000000000249020190314000000015000000000003700000000000000000245300000020190313155816                                                      072560639041033800080700N6396643860           000000028
10011676390015240041033800000000000000080700000001201903130057349101011606592019031316068217790200002000PGTA0000000000000896000000000000896020190314000000015000000000013400000000000000000882600000020190313160729                                                      072573491041033800080700N6396644172           000000029
10011676390015240041033800000000000000080700000001201903130058871001011617242019031316178217800200002000PGTA0000000000001748000000000001748020190314000000015000000000026200000000000000001721800000020190313161746                                                      072588710041033800080700N6396647242           000000030
10011676390015240041033800000000000000080700000001201903130059517101011621522019031316218217810200002000PGTA0000000000000899000000000000899020190314000000015000000000013500000000000000000885500000020190313162213                                                      072595171041033800080700N6396648722           000000031
10011676390015240041033800000000000000080700000001201903130062343001011640582019031316408217820200002000PGTA0000000000000749500000000000749520190314000000015000000000011200000000000000000738300000020190313164119                                                      072623430041033800080700N6396648975           000000032
10011676390015240041033800000000000000080700000001201903130066300201011706282019031317068217830200002000PGTA0000000000000798000000000000798020190314000000015000000000012000000000000000000786000000020190313170650                                                      072663002041033800080700N6396643886           000000033
10011676390015240041033800000000000000080700000001201903130066645501011708322019031317088217840200002000PGTA0000000000000499000000000000499020190314000000015000000000007500000000000000000491500000020190313170855                                                      072666455041033800080700N6396644681           000000034
10011676390015240041033800000000000000080700000001201903130072635601011742282019031317428217850200002000PGTA0000000000000399000000000000399020190314000000015000000000006000000000000000000393000000020190313174250                                                      072726356041033800080700N6396645479           000000035
10011676390015240041033800000000000000080700000001201903130074682901031753012019031317528217860200002890PGTX2000000000001546500000000000515520190412000000000000000000000000000000000000000515503009099991201000000                                                      072746829041033800080700N6396641433           000000036
10011676390015240041033800000000000000080700000001201903130074682902031753012019031317528217860200002890PGTX2000000000001546500000000000515520190513000000000000000000000000000000000000000515506009099991201000000                                                      072746829041033800080700N6396641433           000000037
10011676390015240041033800000000000000080700000001201903130074682903031753012019031317528217860200002890PGTX2000000000001546500000000000515520190611000000000000000000000000000000000000000515509009099991201000000                                                      072746829041033800080700N6396641433           000000038
10011676390015240041033800000000000000080700000001201903130075060901011755012019031317548217870200002000PGTA0000000000001546500000000001546520190314000000015000000000023200000000000000001523300000020190313175524                                                      072750609041033800080700N6396641433           000000039
10011676390015240041033800000000000000080700000001201903130082559501011836352019031318368217880200002000PGTA0000000000000798000000000000798020190314000000015000000000012000000000000000000786000000020190313183657                                                      072825595041033800080700N6396641650           000000040
10011676390015240041033800000000000000080700000001201903130083734801011843572019031318438217890200002000PGTA0000000000000399000000000000399020190314000000015000000000006000000000000000000393000000020190313184427                                                      072837348041033800080700N6396642824           000000041
10011676390015240041033800000000000000080700000001201903130088417201031917112019031319168217900200002890PGTX0000000000001548500000000000516120190412000000030000000000015500000000000000000500603009020190313191742                                                      072884172041033800080700N6396641002           000000042
10011676390015240041033800000000000000080700000001201903130088417202031917112019031319168217900200002890PGTX0000000000001548500000000000516220190513000000030000000000015500000000000000000500706009020190313191742                                                      072884172041033800080700N6396641002           000000043
10011676390015240041033800000000000000080700000001201903130088417203031917112019031319168217900200002890PGTX0000000000001548500000000000516220190611000000030000000000015500000000000000000500709009020190313191742                                                      072884172041033800080700N6396641002           000000044
10011676390015240041033800000000000000080700000001201903130088661401011919102019031319188217910200002000PGTA0000000000000249000000000000249020190314000000015000000000003700000000000000000245300000020190313191929                                                      072886614041033800080700N6396644630           000000045
10011676390015240041033800000000000000080700000001201903130091309101021943202019031319438217920200002890PGTX0000000000002549000000000001274520190412000000030000000000038200000000000000001236303006020190313194340                                                      072913091041033800080700N6396641676           000000046
10011676390015240041033800000000000000080700000001201903130091309102021943202019031319438217920200002890PGTX0000000000002549000000000001274520190513000000030000000000038200000000000000001236306006020190313194340                                                      072913091041033800080700N6396641676           000000047
10011676390015240041033800000000000000080700000001201903130093141301032004042019031320038217930200002890PGTX0000000000004495500000000001498520190412000000030000000000045000000000000000001453503009020190313200426                                                      072931413041033800080700N6396645555           000000048
10011676390015240041033800000000000000080700000001201903130093141302032004042019031320038217930200002890PGTX0000000000004495500000000001498520190513000000030000000000045000000000000000001453506009020190313200426                                                      072931413041033800080700N6396645555           000000049
10011676390015240041033800000000000000080700000001201903130093141303032004042019031320038217930200002890PGTX0000000000004495500000000001498520190611000000030000000000045000000000000000001453509009020190313200426                                                      072931413041033800080700N6396645555           000000050
10011676390015240041033800000000000000080700000001201903130094700601022026102019031320258217940200002890PGTX0000000000001249500000000000624720190412000000030000000000018700000000000000000606003006020190313202632                                                      072947006041033800080700N6396649186           000000051
10011676390015240041033800000000000000080700000001201903130094700602022026102019031320258217940200002890PGTX0000000000001249500000000000624820190513000000030000000000018700000000000000000606106006020190313202632                                                      072947006041033800080700N6396649186           000000052
10011676390015240041033800000000000000080700000001201903130095162401012033282019031320338217950200002900PGTP0000000000001449500000000001449520190412000000020000000000029000000000000000001420503003020190313203347                                                      072951624041033800080700N6396641940           000000053
10011676390015240041033800000000000000080700000001201903130095814101022044052019031320438217960200002890PGTX0000000000001098000000000000549020190412000000030000000000016500000000000000000532503006020190313204427                                                      072958141041033800080700N6396648579           000000054
10011676390015240041033800000000000000080700000001201903130095814102022044052019031320438217960200002890PGTX0000000000001098000000000000549020190513000000030000000000016500000000000000000532506006020190313204427                                                      072958141041033800080700N6396648579           000000055
10011676390015240041033800000000000000080700000001201903130096243601012051172019031320518217970200002000PGTA0000000000001299000000000001299020190314000000015000000000019500000000000000001279500000020190313205140                                                      072962436041033800080700N6396642371           000000056
10011676390015240041033800000000000000080700000001201903130096836301032102082019031321018217980200002890PGTX0000000000001749000000000000583020190412000000030000000000017500000000000000000565503009020190313210227                                                      072968363041033800080700N6396640423           000000057
10011676390015240041033800000000000000080700000001201903130096836302032102082019031321018217980200002890PGTX0000000000001749000000000000583020190513000000030000000000017500000000000000000565506009020190313210227                                                      072968363041033800080700N6396640423           000000058
10011676390015240041033800000000000000080700000001201903130096836303032102082019031321018217980200002890PGTX0000000000001749000000000000583020190611000000030000000000017500000000000000000565509009020190313210227                                                      072968363041033800080700N6396640423           000000059
10011676390015240041033800000000000000080700000001201903130097478501012115382019031321158217990200002000PGTA0000000000000798000000000000798020190314000000015000000000012000000000000000000786000000020190313211600                                                      072974785041033800080700N6396648797           000000060
10011676390020910041033800000000000000081000000001201903130075329101011756252019031317569054290200002000PGTA0000000000000749500000000000749520190314000000015000000000011200000000000000000738300000020190313175653                                                      072753291041033800081000N6396644027           000000061
10011676390020910041033800000000000000081000000001201903130098644501022145472019031321459054300200002890PGTX0000000000001349500000000000674720190412000000030000000000020200000000000000000654503006020190313214624                                                      072986445041033800081000N6396641419           000000062
10011676390020910041033800000000000000081000000001201903130098644502022145472019031321459054300200002890PGTX0000000000001349500000000000674820190513000000030000000000020200000000000000000654606006020190313214624                                                      072986445041033800081000N6396641419           000000063
10011676390031440041033800000000000000081300000001201903130049879701011511102019031315107933960200002000PGTA0000000000002849000000000002849020190314000000015000000000042700000000000000002806300000020190313151142                                                      072498797041033800081300N6396645218           000000064
10011676390031440041033800000000000000081300000001201903130064860601031657262019031316577933970200002890PGTX0000000000002298000000000000766020190412000000030000000000023000000000000000000743003009020190313165757                                                      072648606041033800081300N6396643425           000000065
10011676390031440041033800000000000000081300000001201903130064860602031657262019031316577933970200002890PGTX0000000000002298000000000000766020190513000000030000000000023000000000000000000743006009020190313165757                                                      072648606041033800081300N6396643425           000000066
10011676390031440041033800000000000000081300000001201903130064860603031657262019031316577933970200002890PGTX0000000000002298000000000000766020190611000000030000000000023000000000000000000743009009020190313165757                                                      072648606041033800081300N6396643425           000000067
10011676390035780041033800000000000000081400000001201903130015605801011030262019031310301864470200002000PGTA0000000000001247500000000001247520190314000000015000000000018700000000000000001228800000020190313103058                                                      072156058041033800081400N6396648916           000000068
10011676390035780041033800000000000000081400000001201903130021909401011123062019031311221864480200002000PGTA0000000000000999500000000000999520190314000000015000000000015000000000000000000984500000020190313112333                                                      072219094041033800081400N6396647116           000000069
10011676390035780041033800000000000000081400000001201903130055570801011554212019031315541864490200002000PGTA0000000000001999000000000001999020190314000000015000000000030000000000000000001969000000020190313155445                                                      072555708041033800081400N6396648725           000000070
10011676390035780041033800000000000000081400000001201903130086394501011901412019031319011864500200002000PGTA0000000000001449000000000001449020190314000000015000000000021700000000000000001427300000020190313190207                                                      072863945041033800081400N6396644161           000000071
10011676390035780041033800000000000000081400000001201903130087344801011908462019031319081864510200002000PGTA0000000000001249500000000001249520190314000000015000000000018700000000000000001230800000020190313190922                                                      072873448041033800081400N6396644161           000000072
10011676390035780041033800000000000000081400000001201903130090557301011935452019031319351864520200002900PGTP0000000000000449500000000000449520190412000000020000000000009000000000000000000440503003020190313193611                                                      072905573041033800081400N6396645754           000000073
10011676390035780041033800000000000000081400000001201903130092204301011952542019031319521864530200002000PGTA0000000000000449500000000000449520190314000000015000000000006700000000000000000442800000020190313195321                                                      072922043041033800081400N6396647704           000000074
10011676390035780041033800000000000000081400000001201903130094558901012023582019031320231864540200002000PGTA0000000000001299000000000001299020190314000000015000000000019500000000000000001279500000020190313202425                                                      072945589041033800081400N6396640089           000000075
10011676390036590041033800000000000000081500000001201903130043496801011416092019031314151009120200002000PGTA0000000000000499500000000000499520190314000000015000000000007500000000000000000492000000020190313141642                                                      072434968041033800081500N6396641054           000000076
10011676390036590041033800000000000000081500000001201903130091349401011943442019031319431009130200002000PGTA0000000000001998000000000001998020190314000000015000000000030000000000000000001968000000020190313194414                                                      072913494041033800081500N6396649924           000000077
10011676390036590041033800000000000000081500000001201903130094249901012019232019031320191009140200002000PGTA0000000000002198500000000002198520190314000000015000000000033000000000000000002165500000020190313201949                                                      072942499041033800081500N6396641646           000000078
10011676390051980041033800000000000000094400000001201903130078534501011813272019031318136768300200002000PGTA0000000000003099000000000003099020190314000000015000000000046500000000000000003052500000020190313181407                                                      072785345041033800094400N6396643449           000000079
10011676390051980041033800000000000000094400000001201903130087330801021908402019031319086768310200002890PGTX0000000000001049000000000000524520190412000000030000000000015700000000000000000508803006020190313190918                                                      072873308041033800094400N6396646171           000000080
10011676390051980041033800000000000000094400000001201903130087330802021908402019031319086768310200002890PGTX0000000000001049000000000000524520190513000000030000000000015700000000000000000508806006020190313190918                                                      072873308041033800094400N6396646171           000000081
10011676390055110041033800000000000000106600000001201903130048373501011458462019031314584152180200002000PGTA0000000000001449000000000001449020190314000000015000000000021700000000000000001427300000020190313145913                                                      072483735041033800106600N6396649772           000000082
10011676390055110041033800000000000000106600000001201903130089276101011924102019031319244152190200002000PGTA0000000000000949500000000000949520190314000000015000000000014200000000000000000935300000020190313192439                                                      072892761041033800106600N6396641454           000000083
10011676390058640041033800000000000000114400000001201903130080313901011823152019031318230725690200002900PGTP0000000000000449500000000000449520190412000000020000000000009000000000000000000440503003020190313182347                                                      072803139041033800114400N6396640793           000000084
10011676390073010041033800000000000000132100000001201903130080773701011825552019031318257151600200002000PGTA0000000000001349000000000001349020190314000000015000000000020200000000000000001328800000020190313182629                                                      072807737041033800132100N6396642470           000000085
10011676390080220041033800000000000000142000000001201903130023254501031133392019031311335420540200002890PGTX0000000000003348000000000001116020190412000000030000000000033500000000000000001082503009020190313113401                                                      072232545041033800142000N6396646067           000000086
10011676390080220041033800000000000000142000000001201903130023254502031133392019031311335420540200002890PGTX0000000000003348000000000001116020190513000000030000000000033500000000000000001082506009020190313113401                                                      072232545041033800142000N6396646067           000000087
10011676390080220041033800000000000000142000000001201903130023254503031133392019031311335420540200002890PGTX0000000000003348000000000001116020190611000000030000000000033500000000000000001082509009020190313113401                                                      072232545041033800142000N6396646067           000000088
10011676390080220041033800000000000000142000000001201903130030865901021229182019031312295420550200002890PGTX0000000000001097000000000000548520190412000000030000000000016500000000000000000532003006020190313122945                                                      072308659041033800142000N6396645313           000000089
10011676390080220041033800000000000000142000000001201903130030865902021229182019031312295420550200002890PGTX0000000000001097000000000000548520190513000000030000000000016500000000000000000532006006020190313122945                                                      072308659041033800142000N6396645313           000000090
10011676390080220041033800000000000000142000000001201903130041347501041356232019031313565420560200002890PGTX0000000000004846500000000001211620190412000000030000000000036300000000000000001175303012020190313135648                                                      072413475041033800142000N6396648818           000000091
10011676390080220041033800000000000000142000000001201903130041347502041356232019031313565420560200002890PGTX0000000000004846500000000001211620190513000000030000000000036300000000000000001175306012020190313135648                                                      072413475041033800142000N6396648818           000000092
10011676390080220041033800000000000000142000000001201903130041347503041356232019031313565420560200002890PGTX0000000000004846500000000001211620190611000000030000000000036300000000000000001175309012020190313135648                                                      072413475041033800142000N6396648818           000000093
10011676390080220041033800000000000000142000000001201903130041347504041356232019031313565420560200002890PGTX0000000000004846500000000001211720190711000000030000000000036400000000000000001175312012020190313135648                                                      072413475041033800142000N6396648818           000000094
10011676390080220041033800000000000000142000000001201903130042040801021402482019031314025420570200002890PGTX0000000000001199500000000000599720190412000000030000000000018000000000000000000581703006020190313140311                                                      072420408041033800142000N6396648818           000000095
10011676390080220041033800000000000000142000000001201903130042040802021402482019031314025420570200002890PGTX0000000000001199500000000000599820190513000000030000000000018000000000000000000581806006020190313140311                                                      072420408041033800142000N6396648818           000000096
10011676390080220041033800000000000000142000000001201903130068794501041721142019031317205420580200002890PGTX0000000000003349000000000000837220190412000000030000000000025100000000000000000812103012020190313172138                                                      072687945041033800142000N6396643847           000000097
10011676390080220041033800000000000000142000000001201903130068794502041721142019031317205420580200002890PGTX0000000000003349000000000000837220190513000000030000000000025100000000000000000812106012020190313172138                                                      072687945041033800142000N6396643847           000000098
10011676390080220041033800000000000000142000000001201903130068794503041721142019031317205420580200002890PGTX0000000000003349000000000000837320190611000000030000000000025100000000000000000812209012020190313172138                                                      072687945041033800142000N6396643847           000000099
10011676390080220041033800000000000000142000000001201903130068794504041721142019031317205420580200002890PGTX0000000000003349000000000000837320190711000000030000000000025100000000000000000812212012020190313172138                                                      072687945041033800142000N6396643847           000000100
10011676390080220041033800000000000000142000000001201903130094546401012023482019031320235420590200002000PGTA0000000000000897000000000000897020190314000000015000000000013500000000000000000883500000020190313202414                                                      072945464041033800142000N6396642093           000000101
99ARQUIVO GERAL DE OPERACOES              BJRVCA1 2019031420190314022120BANRISUL  01167639000129000000100                                                                                                                                                                                                              000000102
