02103201803182121032018CEADM100390833         10440482000154GETNET S.A.         000000780GSSANT. V.8.0 400 BYTES                                                                                                                                                                                                                                                                                                
11009150        SMMAN008129102200320182203201803300305900130803572000000001000000000000000000240000000000240000000000000000000000000000000000000000000000240000000000000PF0101390833         00000000000000022012018000000000000000000000000000000000000000000000000000000000000000000000986 +                                                                                                                  
31009150        00812910220032018220320188370335813           +0000000002400400000000544915******6112   51986728000000004061222122017PF0263304422012018986                                                                                                                                                                                                                                                      
11009150        SMMAN008129101200320182203201803300305900130803572000000001000000000000000012990000000012990000000000000000000000000000000000000000000012990000000000000PF0101390833         00000000000000022012018000000000000000000000000000000000000000000000000000000000000000000000986 -                                                                                                                  
31009150        00812910120032018220320188370335812           -0000000129900400000000544915******6112   51986728000000004061222122017PF0263304422012018986                                                                                                                                                                                                                                                      
11471240        SVPOS675538408200320181904201803300305900130803572000000001000000000000000015493000000015175000000000000000000000318000000000000000000015175000000000000PF0102390833         00000000000000000000000000000000000000000000000000000000000000000000000000000000000000000000986 +                                                                                                                  
21471240        67553840800000001895420032018232526406655******2668   0000000309850000000000000000000000000201000000015493190420180000655357POSC390833         03036070986N+                                                                                                                                                                                                                                    
11471240        SVPOS675538408200320182105201803300305900130803572000000001000000000000000015492000000015175000000000000000000000317000000000000000000015175000000000000PF0202390833         00000000000000000000000000000000000000000000000000000000000000000000000000000000000000000000986 +                                                                                                                  
21471240        67553840800000001895420032018232526406655******2668   0000000309850000000000000000000000000202000000015492210520180000655357POSC390833         03036070986N+                                                                                                                                                                                                                                    
11468998        SVPOS675538386200320181904201803300305900130803572000000001000000000000000026983000000026430000000000000000000000553000000000000000000026430000000000000PF0102390833         00000000000000000000000000000000000000000000000000000000000000000000000000000000000000000000986 +                                                                                                                  
21468998        67553838600000003742020032018210247498442******2558   0000000539650000000000000000000000000201000000026983190420180000064533POSC390833         02909974986N+                                                                                                                                                                                                                                    
11468998        SVPOS675538386200320182105201803300305900130803572000000001000000000000000026982000000026429000000000000000000000553000000000000000000026429000000000000PF0202390833         00000000000000000000000000000000000000000000000000000000000000000000000000000000000000000000986 +                                                                                                                  
21468998        67553838600000003742020032018210247498442******2558   0000000539650000000000000000000000000202000000026982210520180000064533POSC390833         02909974986N+                                                                                                                                                                                                                                    
11371686        SVPOS675538371200320181904201803300305900130803572000000001000000000000000015869000000015543000000000000000000000326000000000000000000015543000000000000PF0104390833         00000000000000000000000000000000000000000000000000000000000000000000000000000000000000000000986 +                                                                                                                  
21371686        67553837100000003329220032018210912498453******4711   0000000634700000000000000000000000000401000000015869190420180000064663POSC390833         02595870986N+                                                                                                                                                                                                                                    
11371686        SVPOS675538371200320182105201803300305900130803572000000001000000000000000015867000000015542000000000000000000000325000000000000000000015542000000000000PF0204390833         00000000000000000000000000000000000000000000000000000000000000000000000000000000000000000000986 +                                                                                                                  
21371686        67553837100000003329220032018210912498453******4711   0000000634700000000000000000000000000402000000015867210520180000064663POSC390833         02595870986N+                                                                                                                                                                                                                                    
11371686        SVPOS675538371200320181806201803300305900130803572000000001000000000000000015867000000015542000000000000000000000325000000000000000000015542000000000000PF0304390833         00000000000000000000000000000000000000000000000000000000000000000000000000000000000000000000986 +                                                                                                                  
21371686        67553837100000003329220032018210912498453******4711   0000000634700000000000000000000000000403000000015867180620180000064663POSC390833         02595870986N+                                                                                                                                                                                                                                    
11371686        SVPOS675538371200320181807201803300305900130803572000000001000000000000000015867000000015542000000000000000000000325000000000000000000015542000000000000PF0404390833         00000000000000000000000000000000000000000000000000000000000000000000000000000000000000000000986 +                                                                                                                  
21371686        67553837100000003329220032018210912498453******4711   0000000634700000000000000000000000000404000000015867180720180000064663POSC390833         02595870986N+                                                                                                                                                                                                                                    
11009152        SVPOS675538349200320181904201803300305900130803572000000002000000000000000016490000000016185000000000000000000000305000000000000000000016185000000000000PF0101390833         00000000000000000000000000000000000000000000000000000000000000000000000000000000000000000000986 +                                                                                                                  
21009152        67553834900000004002820032018211534498442******6453   0000000099950000000000000000000000000101000000009995190420180000075382POSC390833         02654482986N+                                                                                                                                                                                                                                    
21009152        67553834900000004003020032018211750453211******0006   0000000064950000000000000000000000000101000000006495190420180000682574POSC390833         02654482986N+                                                                                                                                                                                                                                    
11009146        SVPOS675538342200320181904201803300305900130803572000000001000000000000000004993000000004890000000000000000000000103000000000000000000004890000000000000PF0103390833         00000000000000000000000000000000000000000000000000000000000000000000000000000000000000000000986 +                                                                                                                  
21009146        67553834200000004358020032018220211498408******3510   0000000149750000000000000000000000000301000000004993190420180000028901POSC390833         02633043986N+                                                                                                                                                                                                                                    
11009146        SVPOS675538342200320182105201803300305900130803572000000001000000000000000004991000000004889000000000000000000000102000000000000000000004889000000000000PF0203390833         00000000000000000000000000000000000000000000000000000000000000000000000000000000000000000000986 +                                                                                                                  
21009146        67553834200000004358020032018220211498408******3510   0000000149750000000000000000000000000302000000004991210520180000028901POSC390833         02633043986N+                                                                                                                                                                                                                                    
11009146        SVPOS675538342200320181806201803300305900130803572000000001000000000000000004991000000004889000000000000000000000102000000000000000000004889000000000000PF0303390833         00000000000000000000000000000000000000000000000000000000000000000000000000000000000000000000986 +                                                                                                                  
21009146        67553834200000004358020032018220211498408******3510   0000000149750000000000000000000000000303000000004991180620180000028901POSC390833         02633043986N+                                                                                                                                                                                                                                    
11009145        SVPOS675538317200320181904201803300305900130803572000000001000000000000000023743000000023256000000000000000000000487000000000000000000023256000000000000PF0102390833         00000000000000000000000000000000000000000000000000000000000000000000000000000000000000000000986 +                                                                                                                  
21009145        67553831700000000327720032018210457498401******4190   0000000474850000000000000000000000000201000000023743190420180000058725POSC390833         02635498986N+                                                                                                                                                                                                                                    
11009145        SVPOS675538317200320182105201803300305900130803572000000001000000000000000023742000000023256000000000000000000000486000000000000000000023256000000000000PF0202390833         00000000000000000000000000000000000000000000000000000000000000000000000000000000000000000000986 +                                                                                                                  
21009145        67553831700000000327720032018210457498401******4190   0000000474850000000000000000000000000202000000023742210520180000058725POSC390833         02635498986N+                                                                                                                                                                                                                                    
11009141        SVPOS675538308200320181904201803300305900130803572000000001000000000000000011490000000011277000000000000000000000213000000000000000000011277000000000000PF0101390833         00000000000000000000000000000000000000000000000000000000000000000000000000000000000000000000986 +                                                                                                                  
21009141        67553830800000002401620032018205005498406******8551   0000000114900000000000000000000000000101000000011490190420180000037547POSC390833         02628098986N+                                                                                                                                                                                                                                    
11009140        SVPOS675538289200320181904201803300305900130803572000000001000000000000000007248000000007099000000000000000000000149000000000000000000007099000000000000PF0102390833         00000000000000000000000000000000000000000000000000000000000000000000000000000000000000000000986 +                                                                                                                  
21009140        67553828900000000210920032018210606456137******1941   0000000144950000000000000000000000000201000000007248190420180000047056POSC390833         02879644986N+                                                                                                                                                                                                                                    
11009140        SVPOS675538289200320182105201803300305900130803572000000001000000000000000007247000000007099000000000000000000000148000000000000000000007099000000000000PF0202390833         00000000000000000000000000000000000000000000000000000000000000000000000000000000000000000000986 +                                                                                                                  
21009140        67553828900000000210920032018210606456137******1941   0000000144950000000000000000000000000202000000007247210520180000047056POSC390833         02879644986N+                                                                                                                                                                                                                                    
11002503        SVPOS675538276200320181904201803300305900130803572000000001000000000000000017480000000017157000000000000000000000323000000000000000000017157000000000000PF0101390833         00000000000000000000000000000000000000000000000000000000000000000000000000000000000000000000986 +                                                                                                                  
21002503        67553827600000004938820032018211050466079******4767   0000000174800000000000000000000000000101000000017480190420180000773250POSC390833         02628082986N+                                                                                                                                                                                                                                    
11002501        SVPOS675538254200320181904201803300305900130803572000000001000000000000000005995000000005884000000000000000000000111000000000000000000005884000000000000PF0101390833         00000000000000000000000000000000000000000000000000000000000000000000000000000000000000000000986 +                                                                                                                  
21002501        67553825400000004450620032018205542453211******1348   0000000059950000000000000000000000000101000000005995190420180000673450POSC390833         02628088986N+                                                                                                                                                                                                                                    
1442695         SVPOS675538236200320181904201803300305900130803572000000001000000000000000008864000000008680000000000000000000000184000000000000000000008680000000000000PF0104390833         00000000000000000000000000000000000000000000000000000000000000000000000000000000000000000000986 +                                                                                                                  
2442695         67553823600000004132220032018213439498442******8846   0000000354500000000000000000000000000401000000008864190420180000098807POSC390833         02633022986N+                                                                                                                                                                                                                                    
1442695         SVPOS675538236200320182105201803300305900130803572000000001000000000000000008862000000008681000000000000000000000181000000000000000000008681000000000000PF0204390833         00000000000000000000000000000000000000000000000000000000000000000000000000000000000000000000986 +                                                                                                                  
2442695         67553823600000004132220032018213439498442******8846   0000000354500000000000000000000000000402000000008862210520180000098807POSC390833         02633022986N+                                                                                                                                                                                                                                    
1442695         SVPOS675538236200320181806201803300305900130803572000000001000000000000000008862000000008681000000000000000000000181000000000000000000008681000000000000PF0304390833         00000000000000000000000000000000000000000000000000000000000000000000000000000000000000000000986 +                                                                                                                  
2442695         67553823600000004132220032018213439498442******8846   0000000354500000000000000000000000000403000000008862180620180000098807POSC390833         02633022986N+                                                                                                                                                                                                                                    
1442695         SVPOS675538236200320181807201803300305900130803572000000001000000000000000008862000000008681000000000000000000000181000000000000000000008681000000000000PF0404390833         00000000000000000000000000000000000000000000000000000000000000000000000000000000000000000000986 +                                                                                                                  
2442695         67553823600000004132220032018213439498442******8846   0000000354500000000000000000000000000404000000008862180720180000098807POSC390833         02633022986N+                                                                                                                                                                                                                                    
11637504        SMTEF675523585200320181904201803300305900130803572000000001000000000000000006995000000006851000000000000000000000144000000000000000000006851000000000000PF0102390833         00000000000000000000000000000000000000000000000000000000000000000000000000000000000000000000986 +                                                                                                                  
21637504        67552358500000002108620032018221047544315******9305   0000000139900000000000000000000000000201000000006995190420180000017163TEFC390833         03690342986N+                                                                                                                                                                                                                                    
11637504        SMTEF675523585200320182105201803300305900130803572000000001000000000000000006995000000006852000000000000000000000143000000000000000000006852000000000000PF0202390833         00000000000000000000000000000000000000000000000000000000000000000000000000000000000000000000986 +                                                                                                                  
21637504        67552358500000002108620032018221047544315******9305   0000000139900000000000000000000000000202000000006995210520180000017163TEFC390833         03690342986N+                                                                                                                                                                                                                                    
11513259        SMTEF675523568200320181904201803300305900130803572000000001000000000000000018475000000018133000000000000000000000342000000000000000000018133000000000000PF0101390833         00000000000000000000000000000000000000000000000000000000000000000000000000000000000000000000986 +                                                                                                                  
21513259        67552356800000001561820032018212604548573******8585   0000000184750000000000000000000000000101000000018475190420180000050092TEFC390833         03507039986N+                                                                                                                                                                                                                                    
11471240        SMPOS675523550200320181904201803300305900130803572000000001000000000000000004495000000004412000000000000000000000083000000000000000000004412000000000000PF0101390833         00000000000000000000000000000000000000000000000000000000000000000000000000000000000000000000986 +                                                                                                                  
21471240        67552355000000000278120032018231017548474******7926   0000000044950000000000000000000000000101000000004495190420180000057404POSC390833         03036070986N+                                                                                                                                                                                                                                    
11352948        SMPOS675523537200320181904201803300305900130803572000000001000000000000000011970000000011749000000000000000000000221000000000000000000011749000000000000PF0101390833         00000000000000000000000000000000000000000000000000000000000000000000000000000000000000000000986 +                                                                                                                  
21352948        67552353700000003045620032018213724515590******7387   0000000119700000000000000000000000000101000000011970190420180000380575POSC390833         02578396986N+                                                                                                                                                                                                                                    
11170712        SMPOS675523528200320181904201803300305900130803572000000001000000000000000006980000000006837000000000000000000000143000000000000000000006837000000000000PF0102390833         00000000000000000000000000000000000000000000000000000000000000000000000000000000000000000000986 +                                                                                                                  
21170712        67552352800000003220620032018213315546479******2399   0000000139600000000000000000000000000201000000006980190420180000052761POSC390833         02766106986N+                                                                                                                                                                                                                                    
11170712        SMPOS675523528200320182105201803300305900130803572000000001000000000000000006980000000006837000000000000000000000143000000000000000000006837000000000000PF0202390833         00000000000000000000000000000000000000000000000000000000000000000000000000000000000000000000986 +                                                                                                                  
21170712        67552352800000003220620032018213315546479******2399   0000000139600000000000000000000000000202000000006980210520180000052761POSC390833         02766106986N+                                                                                                                                                                                                                                    
11170712        SMPOS675523510200320181904201803300305900130803572000000001000000000000000009990000000009805000000000000000000000185000000000000000000009805000000000000PF0101390833         00000000000000000000000000000000000000000000000000000000000000000000000000000000000000000000986 +                                                                                                                  
21170712        67552351000000003220420032018210822523421******1397   0000000099900000000000000000000000000101000000009990190420180000WAQNP3POSC390833         02766106986N+                                                                                                                                                                                                                                    
11009150        SMPOS675523490200320181904201803300305900130803572000000001000000000000000004495000000004412000000000000000000000083000000000000000000004412000000000000PF0101390833         00000000000000000000000000000000000000000000000000000000000000000000000000000000000000000000986 +                                                                                                                  
21009150        67552349000000004286620032018213645552937******9957   0000000044950000000000000000000000000101000000004495190420180000186547POSC390833         02633044986N+                                                                                                                                                                                                                                    
11009149        SMPOS675523477200320181904201803300305900130803572000000002000000000000000062975000000061810000000000000000000001165000000000000000000061810000000000000PF0101390833         00000000000000000000000000000000000000000000000000000000000000000000000000000000000000000000986 +                                                                                                                  
21009149        67552347700000000611920032018214659514945******5218   0000000269900000000000000000000000000101000000026990190420180000019539POSC390833         02633051986N+                                                                                                                                                                                                                                    
21009149        67552347700000004923220032018213142514868******9944   0000000359850000000000000000000000000101000000035985190420180000088435POSC390833         02633051986N+                                                                                                                                                                                                                                    
11009144        SMPOS675523453200320181904201803300305900130803572000000002000000000000000013990000000013731000000000000000000000259000000000000000000013731000000000000PF0101390833         00000000000000000000000000000000000000000000000000000000000000000000000000000000000000000000986 +                                                                                                                  
21009144        67552345300000000516320032018215833515590******2852   0000000069900000000000000000000000000101000000006990190420180000584970POSC390833         02642064986N+                                                                                                                                                                                                                                    
21009144        67552345300000003873020032018215905527496******4033   0000000070000000000000000000000000000101000000007000190420180000045206POSC390833         02642064986N+                                                                                                                                                                                                                                    
11009143        SMPOS675523445200320181904201803300305900130803572000000001000000000000000005990000000005866000000000000000000000124000000000000000000005866000000000000PF0103390833         00000000000000000000000000000000000000000000000000000000000000000000000000000000000000000000986 +                                                                                                                  
21009143        67552344500000004432420032018220116546852******6118   0000000179700000000000000000000000000301000000005990190420180000R16470POSC390833         02628075986N+                                                                                                                                                                                                                                    
11009143        SMPOS675523445200320182105201803300305900130803572000000001000000000000000005990000000005868000000000000000000000122000000000000000000005868000000000000PF0203390833         00000000000000000000000000000000000000000000000000000000000000000000000000000000000000000000986 +                                                                                                                  
21009143        67552344500000004432420032018220116546852******6118   0000000179700000000000000000000000000302000000005990210520180000R16470POSC390833         02628075986N+                                                                                                                                                                                                                                    
11009143        SMPOS675523445200320181806201803300305900130803572000000001000000000000000005990000000005868000000000000000000000122000000000000000000005868000000000000PF0303390833         00000000000000000000000000000000000000000000000000000000000000000000000000000000000000000000986 +                                                                                                                  
21009143        67552344500000004432420032018220116546852******6118   0000000179700000000000000000000000000303000000005990180620180000R16470POSC390833         02628075986N+                                                                                                                                                                                                                                    
11009141        SMPOS675523428200320181904201803300305900130803572000000001000000000000000007996000000007830000000000000000000000166000000000000000000007830000000000000PF0104390833         00000000000000000000000000000000000000000000000000000000000000000000000000000000000000000000986 +                                                                                                                  
21009141        67552342800000002401820032018220046544731******4636   0000000319750000000000000000000000000401000000007996190420180000014875POSC390833         02628098986N+                                                                                                                                                                                                                                    
11009141        SMPOS675523428200320182105201803300305900130803572000000001000000000000000007993000000007830000000000000000000000163000000000000000000007830000000000000PF0204390833         00000000000000000000000000000000000000000000000000000000000000000000000000000000000000000000986 +                                                                                                                  
21009141        67552342800000002401820032018220046544731******4636   0000000319750000000000000000000000000402000000007993210520180000014875POSC390833         02628098986N+                                                                                                                                                                                                                                    
11009141        SMPOS675523428200320181806201803300305900130803572000000001000000000000000007993000000007830000000000000000000000163000000000000000000007830000000000000PF0304390833         00000000000000000000000000000000000000000000000000000000000000000000000000000000000000000000986 +                                                                                                                  
21009141        67552342800000002401820032018220046544731******4636   0000000319750000000000000000000000000403000000007993180620180000014875POSC390833         02628098986N+                                                                                                                                                                                                                                    
11009141        SMPOS675523428200320181807201803300305900130803572000000001000000000000000007993000000007830000000000000000000000163000000000000000000007830000000000000PF0404390833         00000000000000000000000000000000000000000000000000000000000000000000000000000000000000000000986 +                                                                                                                  
21009141        67552342800000002401820032018220046544731******4636   0000000319750000000000000000000000000404000000007993180720180000014875POSC390833         02628098986N+                                                                                                                                                                                                                                    
11009140        SMPOS675523409200320181904201803300305900130803572000000001000000000000000007990000000007842000000000000000000000148000000000000000000007842000000000000PF0101390833         00000000000000000000000000000000000000000000000000000000000000000000000000000000000000000000986 +                                                                                                                  
21009140        67552340900000003409020032018205222548573******0826   0000000079900000000000000000000000000101000000007990190420180000035875POSC390833         02879644986N+                                                                                                                                                                                                                                    
11002718        SMPOS675523391200320181904201803300305900130803572000000001000000000000000009995000000009810000000000000000000000185000000000000000000009810000000000000PF0101390833         00000000000000000000000000000000000000000000000000000000000000000000000000000000000000000000986 +                                                                                                                  
21002718        67552339100000000525120032018205348544731******4913   0000000099950000000000000000000000000101000000009995190420180000540074POSC390833         02628084986N+                                                                                                                                                                                                                                    
11002510        SMPOS675523364200320181904201803300305900130803572000000001000000000000000008993000000008808000000000000000000000185000000000000000000008808000000000000PF0102390833         00000000000000000000000000000000000000000000000000000000000000000000000000000000000000000000986 +                                                                                                                  
21002510        67552336400000000543320032018210034532930******0212   0000000179850000000000000000000000000201000000008993190420180000R09685POSC390833         02633049986N+                                                                                                                                                                                                                                    
11002510        SMPOS675523364200320182105201803300305900130803572000000001000000000000000008992000000008808000000000000000000000184000000000000000000008808000000000000PF0202390833         00000000000000000000000000000000000000000000000000000000000000000000000000000000000000000000986 +                                                                                                                  
21002510        67552336400000000543320032018210034532930******0212   0000000179850000000000000000000000000202000000008992210520180000R09685POSC390833         02633049986N+                                                                                                                                                                                                                                    
11002509        SMTEF675523331200320181904201803300305900130803572000000004000000000000000046965000000046096000000000000000000000869000000000000000000046096000000000000PF0101390833         00000000000000000000000000000000000000000000000000000000000000000000000000000000000000000000986 +                                                                                                                  
21002509        67552333100000000150020032018213437525662******1794   0000000054950000000000000000000000000101000000005495190420180000067976TEFC390833         05286040986N+                                                                                                                                                                                                                                    
21002509        67552333100000000150220032018215658552128******8331   0000000129850000000000000000000000000101000000012985190420180000632866TEFC390833         05286040986N+                                                                                                                                                                                                                                    
21002509        67552333100000000150420032018220720552128******4881   0000000164900000000000000000000000000101000000016490190420180000769610TEFC390833         05286040986N+                                                                                                                                                                                                                                    
21002509        67552333100000000117520032018210756536805******1709   0000000119950000000000000000000000000101000000011995190420180000680629TEFC390833         05286040986N+                                                                                                                                                                                                                                    
1442695         SMPOS675523298200320181904201803300305900130803572000000001000000000000000011746000000011503000000000000000000000243000000000000000000011503000000000000PF0104390833         00000000000000000000000000000000000000000000000000000000000000000000000000000000000000000000986 +                                                                                                                  
2442695         67552329800000004132020032018212626512707******3165   0000000469750000000000000000000000000401000000011746190420180000778431POSC390833         02633022986N+                                                                                                                                                                                                                                    
1442695         SMPOS675523298200320182105201803300305900130803572000000001000000000000000011743000000011503000000000000000000000240000000000000000000011503000000000000PF0204390833         00000000000000000000000000000000000000000000000000000000000000000000000000000000000000000000986 +                                                                                                                  
2442695         67552329800000004132020032018212626512707******3165   0000000469750000000000000000000000000402000000011743210520180000778431POSC390833         02633022986N+                                                                                                                                                                                                                                    
1442695         SMPOS675523298200320181806201803300305900130803572000000001000000000000000011743000000011503000000000000000000000240000000000000000000011503000000000000PF0304390833         00000000000000000000000000000000000000000000000000000000000000000000000000000000000000000000986 +                                                                                                                  
2442695         67552329800000004132020032018212626512707******3165   0000000469750000000000000000000000000403000000011743180620180000778431POSC390833         02633022986N+                                                                                                                                                                                                                                    
1442695         SMPOS675523298200320181807201803300305900130803572000000001000000000000000011743000000011503000000000000000000000240000000000000000000011503000000000000PF0404390833         00000000000000000000000000000000000000000000000000000000000000000000000000000000000000000000986 +                                                                                                                  
2442695         67552329800000004132020032018212626512707******3165   0000000469750000000000000000000000000404000000011743180720180000778431POSC390833         02633022986N+                                                                                                                                                                                                                                    
14215208        SVTEF675120412200320181904201803300305900130803572000000001000000000000000007995000000007831000000000000000000000164000000000000000000007831000000000000PF0103390833         00000000000000000000000000000000000000000000000000000000000000000000000000000000000000000000986 +                                                                                                                  
24215208        67512041200000000968220032018195517498406******7710   0000000239850000000000000000000000000301000000007995190420180000046150TEFC390833         04768898986N+                                                                                                                                                                                                                                    
14215208        SVTEF675120412200320182105201803300305900130803572000000001000000000000000007995000000007831000000000000000000000164000000000000000000007831000000000000PF0203390833         00000000000000000000000000000000000000000000000000000000000000000000000000000000000000000000986 +                                                                                                                  
24215208        67512041200000000968220032018195517498406******7710   0000000239850000000000000000000000000302000000007995210520180000046150TEFC390833         04768898986N+                                                                                                                                                                                                                                    
14215208        SVTEF675120412200320181806201803300305900130803572000000001000000000000000007995000000007831000000000000000000000164000000000000000000007831000000000000PF0303390833         00000000000000000000000000000000000000000000000000000000000000000000000000000000000000000000986 +                                                                                                                  
24215208        67512041200000000968220032018195517498406******7710   0000000239850000000000000000000000000303000000007995180620180000046150TEFC390833         04768898986N+                                                                                                                                                                                                                                    
14215208        SVTEF675120397200320181904201803300305900130803572000000001000000000000000009485000000009310000000000000000000000175000000000000000000009310000000000000PF0101390833         00000000000000000000000000000000000000000000000000000000000000000000000000000000000000000000986 +                                                                                                                  
24215208        67512039700000000967820032018181423493715******3193   0000000094850000000000000000000000000101000000009485190420180000003539TEFC390833         04768898986E+                                                                                                                                                                                                                                    
14158083        SVTEF675120360200320181904201803300305900130803572000000001000000000000000007324000000007174000000000000000000000150000000000000000000007174000000000000PF0103390833         00000000000000000000000000000000000000000000000000000000000000000000000000000000000000000000986 +                                                                                                                  
24158083        67512036000000000154120032018164856422061******8080   0000000219700000000000000000000000000301000000007324190420180000491657TEFC390833         04566162986N+                                                                                                                                                                                                                                    
14158083        SVTEF675120360200320182105201803300305900130803572000000001000000000000000007323000000007173000000000000000000000150000000000000000000007173000000000000PF0203390833         00000000000000000000000000000000000000000000000000000000000000000000000000000000000000000000986 +                                                                                                                  
24158083        67512036000000000154120032018164856422061******8080   0000000219700000000000000000000000000302000000007323210520180000491657TEFC390833         04566162986N+                                                                                                                                                                                                                                    
14158083        SVTEF675120360200320181806201803300305900130803572000000001000000000000000007323000000007173000000000000000000000150000000000000000000007173000000000000PF0303390833         00000000000000000000000000000000000000000000000000000000000000000000000000000000000000000000986 +                                                                                                                  
24158083        67512036000000000154120032018164856422061******8080   0000000219700000000000000000000000000303000000007323180620180000491657TEFC390833         04566162986N+                                                                                                                                                                                                                                    
11731085        SVTEF675120319200320181904201803300305900130803572000000001000000000000000026975000000026476000000000000000000000499000000000000000000026476000000000000PF0101390833         00000000000000000000000000000000000000000000000000000000000000000000000000000000000000000000986 +                                                                                                                  
21731085        67512031900000000690820032018195153409308******6874   0000000269750000000000000000000000000101000000026975190420180000520775TEFC390833         04116026986N+                                                                                                                                                                                                                                    
11637504        SVTEF675120281200320181904201803300305900130803572000000001000000000000000015490000000015171000000000000000000000319000000000000000000015171000000000000PF0105390833         00000000000000000000000000000000000000000000000000000000000000000000000000000000000000000000986 +                                                                                                                  
21637504        67512028100000000194720032018200948403217******1628   0000000774340000000000000000000000000501000000015490190420180000037711TEFC390833         03690342986N+                                                                                                                                                                                                                                    
11637504        SVTEF675120281200320182105201803300305900130803572000000001000000000000000015486000000015169000000000000000000000317000000000000000000015169000000000000PF0205390833         00000000000000000000000000000000000000000000000000000000000000000000000000000000000000000000986 +                                                                                                                  
21637504        67512028100000000194720032018200948403217******1628   0000000774340000000000000000000000000502000000015486210520180000037711TEFC390833         03690342986N+                                                                                                                                                                                                                                    
11637504        SVTEF675120281200320181806201803300305900130803572000000001000000000000000015486000000015169000000000000000000000317000000000000000000015169000000000000PF0305390833         00000000000000000000000000000000000000000000000000000000000000000000000000000000000000000000986 +                                                                                                                  
21637504        67512028100000000194720032018200948403217******1628   0000000774340000000000000000000000000503000000015486180620180000037711TEFC390833         03690342986N+                                                                                                                                                                                                                                    
11637504        SVTEF675120281200320181807201803300305900130803572000000001000000000000000015486000000015169000000000000000000000317000000000000000000015169000000000000PF0405390833         00000000000000000000000000000000000000000000000000000000000000000000000000000000000000000000986 +                                                                                                                  
21637504        67512028100000000194720032018200948403217******1628   0000000774340000000000000000000000000504000000015486180720180000037711TEFC390833         03690342986N+                                                                                                                                                                                                                                    
11637504        SVTEF675120281200320181708201803300305900130803572000000001000000000000000015486000000015169000000000000000000000317000000000000000000015169000000000000PF0505390833         00000000000000000000000000000000000000000000000000000000000000000000000000000000000000000000986 +                                                                                                                  
21637504        67512028100000000194720032018200948403217******1628   0000000774340000000000000000000000000505000000015486170820180000037711TEFC390833         03690342986N+                                                                                                                                                                                                                                    
11637504        SVTEF675120230200320181904201803300305900130803572000000001000000000000000007993000000007829000000000000000000000164000000000000000000007829000000000000PF0103390833         00000000000000000000000000000000000000000000000000000000000000000000000000000000000000000000986 +                                                                                                                  
21637504        67512023000000002108220032018194602455181******0914   0000000239790000000000000000000000000301000000007993190420180000662272TEFC390833         03690342986N+                                                                                                                                                                                                                                    
11637504        SVTEF675120230200320182105201803300305900130803572000000001000000000000000007993000000007829000000000000000000000164000000000000000000007829000000000000PF0203390833         00000000000000000000000000000000000000000000000000000000000000000000000000000000000000000000986 +                                                                                                                  
21637504        67512023000000002108220032018194602455181******0914   0000000239790000000000000000000000000302000000007993210520180000662272TEFC390833         03690342986N+                                                                                                                                                                                                                                    
11637504        SVTEF675120230200320181806201803300305900130803572000000001000000000000000007993000000007829000000000000000000000164000000000000000000007829000000000000PF0303390833         00000000000000000000000000000000000000000000000000000000000000000000000000000000000000000000986 +                                                                                                                  
21637504        67512023000000002108220032018194602455181******0914   0000000239790000000000000000000000000303000000007993180620180000662272TEFC390833         03690342986N+                                                                                                                                                                                                                                    
11637504        SVTEF675120210200320181904201803300305900130803572000000001000000000000000013495000000013218000000000000000000000277000000000000000000013218000000000000PF0102390833         00000000000000000000000000000000000000000000000000000000000000000000000000000000000000000000986 +                                                                                                                  
21637504        67512021000000002107620032018185955498453******4852   0000000269900000000000000000000000000201000000013495190420180000033678TEFC390833         03690342986N+                                                                                                                                                                                                                                    
11637504        SVTEF675120210200320182105201803300305900130803572000000001000000000000000013495000000013219000000000000000000000276000000000000000000013219000000000000PF0202390833         00000000000000000000000000000000000000000000000000000000000000000000000000000000000000000000986 +                                                                                                                  
21637504        67512021000000002107620032018185955498453******4852   0000000269900000000000000000000000000202000000013495210520180000033678TEFC390833         03690342986N+                                                                                                                                                                                                                                    
11637504        SVTEF675120161200320181904201803300305900130803572000000002000000000000000034475000000033838000000000000000000000637000000000000000000033838000000000000PF0101390833         00000000000000000000000000000000000000000000000000000000000000000000000000000000000000000000986 +                                                                                                                  
21637504        67512016100000002107820032018190254498423******7273   0000000089950000000000000000000000000101000000008995190420180000040058TEFC390833         03690342986N+                                                                                                                                                                                                                                    
21637504        67512016100000002107420032018183511498401******2385   0000000254800000000000000000000000000101000000025480190420180000075252TEFC390833         03690342986N+                                                                                                                                                                                                                                    
11637504        SVTEF675120064200320181904201803300305900130803572000000001000000000000000080960000000079462000000000000000000001498000000000000000000079462000000000000PF0101390833         00000000000000000000000000000000000000000000000000000000000000000000000000000000000000000000986 +                                                                                                                  
21637504        67512006400000001005220032018164658453997******3192   0000000809600000000000000000000000000101000000080960190420180000074828TEFC390833         03940758986E+                                                                                                                                                                                                                                    
11582086        SVPOS675120029200320181904201803300305900130803572000000001000000000000000002990000000002935000000000000000000000055000000000000000000002935000000000000PF0101390833         00000000000000000000000000000000000000000000000000000000000000000000000000000000000000000000986 +                                                                                                                  
21582086        67512002900000001993420032018185939498407******1925   0000000029900000000000000000000000000101000000002990190420180000033794POSC390833         03126887986N+                                                                                                                                                                                                                                    
11580519        SVTEF675120008200320181904201803300305900130803572000000001000000000000000005998000000005875000000000000000000000123000000000000000000005875000000000000PF0102390833         00000000000000000000000000000000000000000000000000000000000000000000000000000000000000000000986 +                                                                                                                  
21580519        67512000800000000229620032018160240421844******5909   0000000119950000000000000000000000000201000000005998190420180000062602TEFC390833         05168989986N+                                                                                                                                                                                                                                    
11580519        SVTEF675120008200320182105201803300305900130803572000000001000000000000000005997000000005874000000000000000000000123000000000000000000005874000000000000PF0202390833         00000000000000000000000000000000000000000000000000000000000000000000000000000000000000000000986 +                                                                                                                  
21580519        67512000800000000229620032018160240421844******5909   0000000119950000000000000000000000000202000000005997210520180000062602TEFC390833         05168989986N+                                                                                                                                                                                                                                    
11580519        SVTEF675119971200320181904201803300305900130803572000000001000000000000000003995000000003921000000000000000000000074000000000000000000003921000000000000PF0101390833         00000000000000000000000000000000000000000000000000000000000000000000000000000000000000000000986 +                                                                                                                  
21580519        67511997100000000230020032018173558422061******6174   0000000039950000000000000000000000000101000000003995190420180000361662TEFC390833         05168989986N+                                                                                                                                                                                                                                    
11580519        SVPOS675119925200320181904201803300305900130803572000000002000000000000000018490000000018148000000000000000000000342000000000000000000018148000000000000PF0101390833         00000000000000000000000000000000000000000000000000000000000000000000000000000000000000000000986 +                                                                                                                  
21580519        67511992500000000416020032018170929498406******0887   0000000134950000000000000000000000000101000000013495190420180000850501POSC390833         03126900986N+                                                                                                                                                                                                                                    
21580519        67511992500000000415820032018165735421965******5713   0000000049950000000000000000000000000101000000004995190420180000892080POSC390833         03126900986N+                                                                                                                                                                                                                                    
11516462        SVTEF675119878200320181904201803300305900130803572000000001000000000000000002990000000002935000000000000000000000055000000000000000000002935000000000000PF0101390833         00000000000000000000000000000000000000000000000000000000000000000000000000000000000000000000986 +                                                                                                                  
21516462        67511987800000000083120032018161127422053******7028   0000000029900000000000000000000000000101000000002990190420180000046991TEFC390833         03632792986N+                                                                                                                                                                                                                                    
11513259        SVTEF675119844200320181904201803300305900130803572000000001000000000000000007985000000007837000000000000000000000148000000000000000000007837000000000000PF0101390833         00000000000000000000000000000000000000000000000000000000000000000000000000000000000000000000986 +                                                                                                                  
21513259        67511984400000001561220032018202712450995******2607   0000000079850000000000000000000000000101000000007985190420180000004148TEFC390833         03507039986E+                                                                                                                                                                                                                                    
11471240        SVPOS675119771200320181904201803300305900130803572000000002000000000000000015480000000015194000000000000000000000286000000000000000000015194000000000000PF0101390833         00000000000000000000000000000000000000000000000000000000000000000000000000000000000000000000986 +                                                                                                                  
21471240        67511977100000001895020032018221020498442******5455   0000000104850000000000000000000000000101000000010485190420180000073124POSC390833         03036070986N+                                                                                                                                                                                                                                    
21471240        67511977100000001894820032018220707459360******7493   0000000049950000000000000000000000000101000000004995190420180000134635POSC390833         03036070986N+                                                                                                                                                                                                                                    
11471240        SVPOS675119739200320181904201803300305900130803572000000001000000000000000018970000000018619000000000000000000000351000000000000000000018619000000000000PF0101390833         00000000000000000000000000000000000000000000000000000000000000000000000000000000000000000000986 +                                                                                                                  
21471240        67511973900000001895220032018224553405071******9070   0000000189700000000000000000000000000101000000018970190420180000012102POSC390833         03036070986E+                                                                                                                                                                                                                                    
11469244        SVPOS675119708200320181904201803300305900130803572000000001000000000000000009621000000009423000000000000000000000198000000000000000000009423000000000000PF0104390833         00000000000000000000000000000000000000000000000000000000000000000000000000000000000000000000986 +                                                                                                                  
21469244        67511970800000000152120032018194111459080******4579   0000000384750000000000000000000000000401000000009621190420180000072398POSC390833         03036065986N+                                                                                                                                                                                                                                    
11469244        SVPOS675119708200320182105201803300305900130803572000000001000000000000000009618000000009421000000000000000000000197000000000000000000009421000000000000PF0204390833         00000000000000000000000000000000000000000000000000000000000000000000000000000000000000000000986 +                                                                                                                  
21469244        67511970800000000152120032018194111459080******4579   0000000384750000000000000000000000000402000000009618210520180000072398POSC390833         03036065986N+                                                                                                                                                                                                                                    
11469244        SVPOS675119708200320181806201803300305900130803572000000001000000000000000009618000000009421000000000000000000000197000000000000000000009421000000000000PF0304390833         00000000000000000000000000000000000000000000000000000000000000000000000000000000000000000000986 +                                                                                                                  
21469244        67511970800000000152120032018194111459080******4579   0000000384750000000000000000000000000403000000009618180620180000072398POSC390833         03036065986N+                                                                                                                                                                                                                                    
11469244        SVPOS675119708200320181807201803300305900130803572000000001000000000000000009618000000009421000000000000000000000197000000000000000000009421000000000000PF0404390833         00000000000000000000000000000000000000000000000000000000000000000000000000000000000000000000986 +                                                                                                                  
21469244        67511970800000000152120032018194111459080******4579   0000000384750000000000000000000000000404000000009618180720180000072398POSC390833         03036065986N+                                                                                                                                                                                                                                    
11469244        SVPOS675119666200320181904201803300305900130803572000000001000000000000000004995000000004892000000000000000000000103000000000000000000004892000000000000PF0102390833         00000000000000000000000000000000000000000000000000000000000000000000000000000000000000000000986 +                                                                                                                  
21469244        67511966600000002027620032018194536459080******4579   0000000099900000000000000000000000000201000000004995190420180000080314POSC390833         03036065986N+                                                                                                                                                                                                                                    
11469244        SVPOS675119666200320182105201803300305900130803572000000001000000000000000004995000000004893000000000000000000000102000000000000000000004893000000000000PF0202390833         00000000000000000000000000000000000000000000000000000000000000000000000000000000000000000000986 +                                                                                                                  
21469244        67511966600000002027620032018194536459080******4579   0000000099900000000000000000000000000202000000004995210520180000080314POSC390833         03036065986N+                                                                                                                                                                                                                                    
11468998        SVPOS675119601200320181904201803300305900130803572000000001000000000000000004000000000003926000000000000000000000074000000000000000000003926000000000000PF0101390833         00000000000000000000000000000000000000000000000000000000000000000000000000000000000000000000986 +                                                                                                                  
21468998        67511960100000003741820032018191233474525******1106   0000000040000000000000000000000000000101000000004000190420180000303483POSC390833         02909974986N+                                                                                                                                                                                                                                    
11352948        SVPOS675119530200320181904201803300305900130803572000000001000000000000000005999000000005876000000000000000000000123000000000000000000005876000000000000PF0103390833         00000000000000000000000000000000000000000000000000000000000000000000000000000000000000000000986 +                                                                                                                  
21352948        67511953000000003044820032018170842467112******2486   0000000179950000000000000000000000000301000000005999190420180000092376POSC390833         02578396986N+                                                                                                                                                                                                                                    
11352948        SVPOS675119530200320182105201803300305900130803572000000001000000000000000005998000000005875000000000000000000000123000000000000000000005875000000000000PF0203390833         00000000000000000000000000000000000000000000000000000000000000000000000000000000000000000000986 +                                                                                                                  
21352948        67511953000000003044820032018170842467112******2486   0000000179950000000000000000000000000302000000005998210520180000092376POSC390833         02578396986N+                                                                                                                                                                                                                                    
11352948        SVPOS675119530200320181806201803300305900130803572000000001000000000000000005998000000005875000000000000000000000123000000000000000000005875000000000000PF0303390833         00000000000000000000000000000000000000000000000000000000000000000000000000000000000000000000986 +                                                                                                                  
21352948        67511953000000003044820032018170842467112******2486   0000000179950000000000000000000000000303000000005998180620180000092376POSC390833         02578396986N+                                                                                                                                                                                                                                    
11170712        SVPOS675119495200320181904201803300305900130803572000000001000000000000000006328000000006197000000000000000000000131000000000000000000006197000000000000PF0103390833         00000000000000000000000000000000000000000000000000000000000000000000000000000000000000000000986 +                                                                                                                  
21170712        67511949500000003219820032018153908459383******5840   0000000189800000000000000000000000000301000000006328190420180000899477POSC390833         02766106986N+                                                                                                                                                                                                                                    
11170712        SVPOS675119495200320182105201803300305900130803572000000001000000000000000006326000000006197000000000000000000000129000000000000000000006197000000000000PF0203390833         00000000000000000000000000000000000000000000000000000000000000000000000000000000000000000000986 +                                                                                                                  
21170712        67511949500000003219820032018153908459383******5840   0000000189800000000000000000000000000302000000006326210520180000899477POSC390833         02766106986N+                                                                                                                                                                                                                                    
11170712        SVPOS675119495200320181806201803300305900130803572000000001000000000000000006326000000006197000000000000000000000129000000000000000000006197000000000000PF0303390833         00000000000000000000000000000000000000000000000000000000000000000000000000000000000000000000986 +                                                                                                                  
21170712        67511949500000003219820032018153908459383******5840   0000000189800000000000000000000000000303000000006326180620180000899477POSC390833         02766106986N+                                                                                                                                                                                                                                    
11170711        SVPOS675119468200320181904201803300305900130803572000000001000000000000000004998000000004894000000000000000000000104000000000000000000004894000000000000PF0105390833         00000000000000000000000000000000000000000000000000000000000000000000000000000000000000000000986 +                                                                                                                  
21170711        67511946800000003066220032018172908421845******7968   0000000249900000000000000000000000000501000000004998190420180000011665POSC390833         02808323986N+                                                                                                                                                                                                                                    
11170711        SVPOS675119468200320182105201803300305900130803572000000001000000000000000004998000000004896000000000000000000000102000000000000000000004896000000000000PF0205390833         00000000000000000000000000000000000000000000000000000000000000000000000000000000000000000000986 +                                                                                                                  
21170711        67511946800000003066220032018172908421845******7968   0000000249900000000000000000000000000502000000004998210520180000011665POSC390833         02808323986N+                                                                                                                                                                                                                                    
11170711        SVPOS675119468200320181806201803300305900130803572000000001000000000000000004998000000004896000000000000000000000102000000000000000000004896000000000000PF0305390833         00000000000000000000000000000000000000000000000000000000000000000000000000000000000000000000986 +                                                                                                                  
21170711        67511946800000003066220032018172908421845******7968   0000000249900000000000000000000000000503000000004998180620180000011665POSC390833         02808323986N+                                                                                                                                                                                                                                    
11170711        SVPOS675119468200320181807201803300305900130803572000000001000000000000000004998000000004896000000000000000000000102000000000000000000004896000000000000PF0405390833         00000000000000000000000000000000000000000000000000000000000000000000000000000000000000000000986 +                                                                                                                  
21170711        67511946800000003066220032018172908421845******7968   0000000249900000000000000000000000000504000000004998180720180000011665POSC390833         02808323986N+                                                                                                                                                                                                                                    
11170711        SVPOS675119468200320181708201803300305900130803572000000001000000000000000004998000000004896000000000000000000000102000000000000000000004896000000000000PF0505390833         00000000000000000000000000000000000000000000000000000000000000000000000000000000000000000000986 +                                                                                                                  
21170711        67511946800000003066220032018172908421845******7968   0000000249900000000000000000000000000505000000004998170820180000011665POSC390833         02808323986N+                                                                                                                                                                                                                                    
11170711        SVPOS675119436200320181904201803300305900130803572000000001000000000000000017160000000016807000000000000000000000353000000000000000000016807000000000000PF0103390833         00000000000000000000000000000000000000000000000000000000000000000000000000000000000000000000986 +                                                                                                                  
21170711        67511943600000003066420032018174415498406******3915   0000000514800000000000000000000000000301000000017160190420180000944530POSC390833         02808323986N+                                                                                                                                                                                                                                    
11170711        SVPOS675119436200320182105201803300305900130803572000000001000000000000000017160000000016809000000000000000000000351000000000000000000016809000000000000PF0203390833         00000000000000000000000000000000000000000000000000000000000000000000000000000000000000000000986 +                                                                                                                  
21170711        67511943600000003066420032018174415498406******3915   0000000514800000000000000000000000000302000000017160210520180000944530POSC390833         02808323986N+                                                                                                                                                                                                                                    
11170711        SVPOS675119436200320181806201803300305900130803572000000001000000000000000017160000000016809000000000000000000000351000000000000000000016809000000000000PF0303390833         00000000000000000000000000000000000000000000000000000000000000000000000000000000000000000000986 +                                                                                                                  
21170711        67511943600000003066420032018174415498406******3915   0000000514800000000000000000000000000303000000017160180620180000944530POSC390833         02808323986N+                                                                                                                                                                                                                                    
11170711        SVPOS675119406200320181904201803300305900130803572000000001000000000000000002998000000002936000000000000000000000062000000000000000000002936000000000000PF0102390833         00000000000000000000000000000000000000000000000000000000000000000000000000000000000000000000986 +                                                                                                                  
21170711        67511940600000003066620032018174726421845******7968   0000000059950000000000000000000000000201000000002998190420180000021872POSC390833         02808323986N+                                                                                                                                                                                                                                    
11170711        SVPOS675119406200320182105201803300305900130803572000000001000000000000000002997000000002936000000000000000000000061000000000000000000002936000000000000PF0202390833         00000000000000000000000000000000000000000000000000000000000000000000000000000000000000000000986 +                                                                                                                  
21170711        67511940600000003066620032018174726421845******7968   0000000059950000000000000000000000000202000000002997210520180000021872POSC390833         02808323986N+                                                                                                                                                                                                                                    
11170711        SVPOS675119398200320181904201803300305900130803572000000002000000000000000009475000000009300000000000000000000000175000000000000000000009300000000000000PF0101390833         00000000000000000000000000000000000000000000000000000000000000000000000000000000000000000000986 +                                                                                                                  
21170711        67511939800000003066820032018181250498407******4317   0000000064850000000000000000000000000101000000006485190420180000019130POSC390833         02808323986N+                                                                                                                                                                                                                                    
21170711        67511939800000003067020032018181700498407******9425   0000000029900000000000000000000000000101000000002990190420180000031172POSC390833         02808323986N+                                                                                                                                                                                                                                    
11009150        SVPOS675119341200320181904201803300305900130803572000000001000000000000000007248000000007099000000000000000000000149000000000000000000007099000000000000PF0102390833         00000000000000000000000000000000000000000000000000000000000000000000000000000000000000000000986 +                                                                                                                  
21009150        67511934100000000533320032018173632430535******6129   0000000144950000000000000000000000000201000000007248190420180000077537POSC390833         02633044986N+                                                                                                                                                                                                                                    
11009150        SVPOS675119341200320182105201803300305900130803572000000001000000000000000007247000000007099000000000000000000000148000000000000000000007099000000000000PF0202390833         00000000000000000000000000000000000000000000000000000000000000000000000000000000000000000000986 +                                                                                                                  
21009150        67511934100000000533320032018173632430535******6129   0000000144950000000000000000000000000202000000007247210520180000077537POSC390833         02633044986N+                                                                                                                                                                                                                                    
11009150        SVPOS675119278200320181904201803300305900130803572000000001000000000000000003995000000003921000000000000000000000074000000000000000000003921000000000000PF0101390833         00000000000000000000000000000000000000000000000000000000000000000000000000000000000000000000986 +                                                                                                                  
21009150        67511927800000004286020032018185926498423******4015   0000000039950000000000000000000000000101000000003995190420180000032266POSC390833         02633044986N+                                                                                                                                                                                                                                    
11009147        SVPOS675119237200320181904201803300305900130803572000000001000000000000000004372000000004281000000000000000000000091000000000000000000004281000000000000PF0104390833         00000000000000000000000000000000000000000000000000000000000000000000000000000000000000000000986 +                                                                                                                  
21009147        67511923700000005205620032018173558498442******6372   0000000174850000000000000000000000000401000000004372190420180000920390POSC390833         02633046986N+                                                                                                                                                                                                                                    
11009147        SVPOS675119237200320182105201803300305900130803572000000001000000000000000004371000000004282000000000000000000000089000000000000000000004282000000000000PF0204390833         00000000000000000000000000000000000000000000000000000000000000000000000000000000000000000000986 +                                                                                                                  
21009147        67511923700000005205620032018173558498442******6372   0000000174850000000000000000000000000402000000004371210520180000920390POSC390833         02633046986N+                                                                                                                                                                                                                                    
11009147        SVPOS675119237200320181806201803300305900130803572000000001000000000000000004371000000004282000000000000000000000089000000000000000000004282000000000000PF0304390833         00000000000000000000000000000000000000000000000000000000000000000000000000000000000000000000986 +                                                                                                                  
21009147        67511923700000005205620032018173558498442******6372   0000000174850000000000000000000000000403000000004371180620180000920390POSC390833         02633046986N+                                                                                                                                                                                                                                    
11009147        SVPOS675119237200320181807201803300305900130803572000000001000000000000000004371000000004282000000000000000000000089000000000000000000004282000000000000PF0404390833         00000000000000000000000000000000000000000000000000000000000000000000000000000000000000000000986 +                                                                                                                  
21009147        67511923700000005205620032018173558498442******6372   0000000174850000000000000000000000000404000000004371180720180000920390POSC390833         02633046986N+                                                                                                                                                                                                                                    
11009147        SVPOS675119220200320181904201803300305900130803572000000001000000000000000007990000000007842000000000000000000000148000000000000000000007842000000000000PF0101390833         00000000000000000000000000000000000000000000000000000000000000000000000000000000000000000000986 +                                                                                                                  
21009147        67511922000000000385120032018190311455183******6938   0000000079900000000000000000000000000101000000007990190420180000632172POSC390833         02633046986N+                                                                                                                                                                                                                                    
11009146        SVPOS675119197200320181904201803300305900130803572000000001000000000000000009495000000009298000000000000000000000197000000000000000000009298000000000000PF0104390833         00000000000000000000000000000000000000000000000000000000000000000000000000000000000000000000986 +                                                                                                                  
21009146        67511919700000004357420032018185330459383******1367   0000000379800000000000000000000000000401000000009495190420180000735940POSC390833         02633043986N+                                                                                                                                                                                                                                    
11009146        SVPOS675119197200320182105201803300305900130803572000000001000000000000000009495000000009301000000000000000000000194000000000000000000009301000000000000PF0204390833         00000000000000000000000000000000000000000000000000000000000000000000000000000000000000000000986 +                                                                                                                  
21009146        67511919700000004357420032018185330459383******1367   0000000379800000000000000000000000000402000000009495210520180000735940POSC390833         02633043986N+                                                                                                                                                                                                                                    
11009146        SVPOS675119197200320181806201803300305900130803572000000001000000000000000009495000000009301000000000000000000000194000000000000000000009301000000000000PF0304390833         00000000000000000000000000000000000000000000000000000000000000000000000000000000000000000000986 +                                                                                                                  
21009146        67511919700000004357420032018185330459383******1367   0000000379800000000000000000000000000403000000009495180620180000735940POSC390833         02633043986N+                                                                                                                                                                                                                                    
11009146        SVPOS675119197200320181807201803300305900130803572000000001000000000000000009495000000009301000000000000000000000194000000000000000000009301000000000000PF0404390833         00000000000000000000000000000000000000000000000000000000000000000000000000000000000000000000986 +                                                                                                                  
21009146        67511919700000004357420032018185330459383******1367   0000000379800000000000000000000000000404000000009495180720180000735940POSC390833         02633043986N+                                                                                                                                                                                                                                    
11009146        SVPOS675119180200320181904201803300305900130803572000000001000000000000000015723000000015400000000000000000000000323000000000000000000015400000000000000PF0102390833         00000000000000000000000000000000000000000000000000000000000000000000000000000000000000000000986 +                                                                                                                  
21009146        67511918000000000503520032018171819401370******3016   0000000314450000000000000000000000000201000000015723190420180000061030POSC390833         02633043986N+                                                                                                                                                                                                                                    
11009146        SVPOS675119180200320182105201803300305900130803572000000001000000000000000015722000000015400000000000000000000000322000000000000000000015400000000000000PF0202390833         00000000000000000000000000000000000000000000000000000000000000000000000000000000000000000000986 +                                                                                                                  
21009146        67511918000000000503520032018171819401370******3016   0000000314450000000000000000000000000202000000015722210520180000061030POSC390833         02633043986N+                                                                                                                                                                                                                                    
