02312201704010623122017CEADM100390833         10440482000154GETNET S.A.         000000692GSSANT. V.8.0 400 BYTES                                                                                                                                                                                                                                                                                                
1390833         EDPOS520408130221220172612201703300305900130803572000000002000000000000000012970000000012776000000000000000000000194000000000000000000012776000000000000PF0101390833         00000000000000000000000000000000000000000000000000000000000000000000000000000000000000000000986 +                                                                                                                  
2390833         52040813000000000030222122017231740627780******4938   0000000054950000000000000000000000000101000000005495261220170000396069POSC390833         04896442986N+                                                                                                                                                                                                                                    
2390833         52040813000000000030822122017233728509000******0107   0000000074750000000000000000000000000101000000007475261220170000331639POSC390833         04896442986N+                                                                                                                                                                                                                                    
11468998        SEPOS520405974221220172612201703300305900130803572000000002000000000000000031970000000031602000000000000000000000368000000000000000000031602000000000000PF0101390833         00000000000000000000000000000000000000000000000000000000000000000000000000000000000000000000986 +                                                                                                                  
21468998        52040597400000003524022122017234227498407******5649   0000000179900000000000000000000000000101000000017990261220170000285589POSC390833         02909974986N+                                                                                                                                                                                                                                    
21468998        52040597400000003522822122017224751498423******4670   0000000139800000000000000000000000000101000000013980261220170000782309POSC390833         02909974986N+                                                                                                                                                                                                                                    
11009149        SEPOS520405953221220172612201703300305900130803572000000003000000000000000034950000000034549000000000000000000000401000000000000000000034549000000000000PF0101390833         00000000000000000000000000000000000000000000000000000000000000000000000000000000000000000000986 +                                                                                                                  
21009149        52040595300000004673422122017231246483042******7104   0000000129900000000000000000000000000101000000012990261220170000330754POSC390833         02633051986N+                                                                                                                                                                                                                                    
21009149        52040595300000004673622122017232824498453******9104   0000000149700000000000000000000000000101000000014970261220170000784534POSC390833         02633051986N+                                                                                                                                                                                                                                    
21009149        52040595300000004673022122017230722483042******8102   0000000069900000000000000000000000000101000000006990261220170000330843POSC390833         02633051986N+                                                                                                                                                                                                                                    
11009146        SEPOS520405949221220172612201703300305900130803572000000001000000000000000014990000000014818000000000000000000000172000000000000000000014818000000000000PF0101390833         00000000000000000000000000000000000000000000000000000000000000000000000000000000000000000000986 +                                                                                                                  
21009146        52040594900000004114622122017232327498423******7683   0000000149900000000000000000000000000101000000014990261220170000784246POSC390833         02633043986N+                                                                                                                                                                                                                                    
11009145        SEPOS520405940221220172612201703300305900130803572000000001000000000000000013980000000013819000000000000000000000161000000000000000000013819000000000000PF0101390833         00000000000000000000000000000000000000000000000000000000000000000000000000000000000000000000986 +                                                                                                                  
21009145        52040594000000003337622122017225433410393******7385   0000000139800000000000000000000000000101000000013980261220170000330896POSC390833         02635498986N+                                                                                                                                                                                                                                    
11009137        SEPOS520405930221220172612201703300305900130803572000000001000000000000000027960000000027638000000000000000000000322000000000000000000027638000000000000PF0101390833         00000000000000000000000000000000000000000000000000000000000000000000000000000000000000000000986 +                                                                                                                  
21009137        52040593000000005316622122017230629498423******9943   0000000279600000000000000000000000000101000000027960261220170000283214POSC390833         02628081986N+                                                                                                                                                                                                                                    
11002510        SEPOS520405924221220172612201703300305900130803572000000001000000000000000012990000000012841000000000000000000000149000000000000000000012841000000000000PF0101390833         00000000000000000000000000000000000000000000000000000000000000000000000000000000000000000000986 +                                                                                                                  
21002510        52040592400000004819822122017225111498423******1427   0000000129900000000000000000000000000101000000012990261220170000782289POSC390833         02633049986N+                                                                                                                                                                                                                                    
11002509        SETEF520405918221220172612201703300305900130803572000000001000000000000000019990000000019760000000000000000000000230000000000000000000019760000000000000PF0101390833         00000000000000000000000000000000000000000000000000000000000000000000000000000000000000000000986 +                                                                                                                  
21002509        52040591800000000011822122017225845498453******6532   0000000199900000000000000000000000000101000000019990261220170000182740TEFC390833         05286040986N+                                                                                                                                                                                                                                    
11002507        SEPOS520405899221220172612201703300305900130803572000000001000000000000000037980000000037543000000000000000000000437000000000000000000037543000000000000PF0101390833         00000000000000000000000000000000000000000000000000000000000000000000000000000000000000000000986 +                                                                                                                  
21002507        52040589900000002602022122017231823439267******1577   0000000379800000000000000000000000000101000000037980261220170000401030POSC390833         02628092986N+                                                                                                                                                                                                                                    
1390833         SEPOS520405893221220172612201703300305900130803572000000001000000000000000026475000000026171000000000000000000000304000000000000000000026171000000000000PF0101390833         00000000000000000000000000000000000000000000000000000000000000000000000000000000000000000000986 +                                                                                                                  
2390833         52040589300000000029022122017225421498423******0992   0000000264750000000000000000000000000101000000026475261220170000182503POSC390833         04896442986N+                                                                                                                                                                                                                                    
11581518        SVPOS520402868221220172201201803300305900130803572000000001000000000000000010388000000010175000000000000000000000213000000000000000000010175000000000000PF0105390833         00000000000000000000000000000000000000000000000000000000000000000000000000000000000000000000986 +                                                                                                                  
21581518        52040286800000001914822122017225450410425******8687   0000000519400000000000000000000000000501000000010388220120180000651507POSC390833         03126891986N+                                                                                                                                                                                                                                    
11581518        SVPOS520402868221220172002201803300305900130803572000000001000000000000000010388000000010175000000000000000000000213000000000000000000010175000000000000PF0205390833         00000000000000000000000000000000000000000000000000000000000000000000000000000000000000000000986 +                                                                                                                  
21581518        52040286800000001914822122017225450410425******8687   0000000519400000000000000000000000000502000000010388200220180000651507POSC390833         03126891986N+                                                                                                                                                                                                                                    
11581518        SVPOS520402868221220172203201803300305900130803572000000001000000000000000010388000000010175000000000000000000000213000000000000000000010175000000000000PF0305390833         00000000000000000000000000000000000000000000000000000000000000000000000000000000000000000000986 +                                                                                                                  
21581518        52040286800000001914822122017225450410425******8687   0000000519400000000000000000000000000503000000010388220320180000651507POSC390833         03126891986N+                                                                                                                                                                                                                                    
11581518        SVPOS520402868221220172304201803300305900130803572000000001000000000000000010388000000010175000000000000000000000213000000000000000000010175000000000000PF0405390833         00000000000000000000000000000000000000000000000000000000000000000000000000000000000000000000986 +                                                                                                                  
21581518        52040286800000001914822122017225450410425******8687   0000000519400000000000000000000000000504000000010388230420180000651507POSC390833         03126891986N+                                                                                                                                                                                                                                    
11581518        SVPOS520402868221220172105201803300305900130803572000000001000000000000000010388000000010175000000000000000000000213000000000000000000010175000000000000PF0505390833         00000000000000000000000000000000000000000000000000000000000000000000000000000000000000000000986 +                                                                                                                  
21581518        52040286800000001914822122017225450410425******8687   0000000519400000000000000000000000000505000000010388210520180000651507POSC390833         03126891986N+                                                                                                                                                                                                                                    
11468998        SVPOS520402861221220172201201803300305900130803572000000001000000000000000003998000000003916000000000000000000000082000000000000000000003916000000000000PF0105390833         00000000000000000000000000000000000000000000000000000000000000000000000000000000000000000000986 +                                                                                                                  
21468998        52040286100000003523422122017231237422012******6115   0000000199900000000000000000000000000501000000003998220120180000046738POSC390833         02909974986N+                                                                                                                                                                                                                                    
11468998        SVPOS520402861221220172002201803300305900130803572000000001000000000000000003998000000003916000000000000000000000082000000000000000000003916000000000000PF0205390833         00000000000000000000000000000000000000000000000000000000000000000000000000000000000000000000986 +                                                                                                                  
21468998        52040286100000003523422122017231237422012******6115   0000000199900000000000000000000000000502000000003998200220180000046738POSC390833         02909974986N+                                                                                                                                                                                                                                    
11468998        SVPOS520402861221220172203201803300305900130803572000000001000000000000000003998000000003916000000000000000000000082000000000000000000003916000000000000PF0305390833         00000000000000000000000000000000000000000000000000000000000000000000000000000000000000000000986 +                                                                                                                  
21468998        52040286100000003523422122017231237422012******6115   0000000199900000000000000000000000000503000000003998220320180000046738POSC390833         02909974986N+                                                                                                                                                                                                                                    
11468998        SVPOS520402861221220172304201803300305900130803572000000001000000000000000003998000000003916000000000000000000000082000000000000000000003916000000000000PF0405390833         00000000000000000000000000000000000000000000000000000000000000000000000000000000000000000000986 +                                                                                                                  
21468998        52040286100000003523422122017231237422012******6115   0000000199900000000000000000000000000504000000003998230420180000046738POSC390833         02909974986N+                                                                                                                                                                                                                                    
11468998        SVPOS520402861221220172105201803300305900130803572000000001000000000000000003998000000003916000000000000000000000082000000000000000000003916000000000000PF0505390833         00000000000000000000000000000000000000000000000000000000000000000000000000000000000000000000986 +                                                                                                                  
21468998        52040286100000003523422122017231237422012******6115   0000000199900000000000000000000000000505000000003998210520180000046738POSC390833         02909974986N+                                                                                                                                                                                                                                    
11352948        SVPOS520402854221220172201201803300305900130803572000000001000000000000000007492000000007337000000000000000000000155000000000000000000007337000000000000PF0104390833         00000000000000000000000000000000000000000000000000000000000000000000000000000000000000000000986 +                                                                                                                  
21352948        52040285400000002904422122017230021498442******1357   0000000299650000000000000000000000000401000000007492220120180000664741POSC390833         02578396986N+                                                                                                                                                                                                                                    
11352948        SVPOS520402854221220172002201803300305900130803572000000001000000000000000007491000000007338000000000000000000000153000000000000000000007338000000000000PF0204390833         00000000000000000000000000000000000000000000000000000000000000000000000000000000000000000000986 +                                                                                                                  
21352948        52040285400000002904422122017230021498442******1357   0000000299650000000000000000000000000402000000007491200220180000664741POSC390833         02578396986N+                                                                                                                                                                                                                                    
11352948        SVPOS520402854221220172203201803300305900130803572000000001000000000000000007491000000007338000000000000000000000153000000000000000000007338000000000000PF0304390833         00000000000000000000000000000000000000000000000000000000000000000000000000000000000000000000986 +                                                                                                                  
21352948        52040285400000002904422122017230021498442******1357   0000000299650000000000000000000000000403000000007491220320180000664741POSC390833         02578396986N+                                                                                                                                                                                                                                    
11352948        SVPOS520402854221220172304201803300305900130803572000000001000000000000000007491000000007338000000000000000000000153000000000000000000007338000000000000PF0404390833         00000000000000000000000000000000000000000000000000000000000000000000000000000000000000000000986 +                                                                                                                  
21352948        52040285400000002904422122017230021498442******1357   0000000299650000000000000000000000000404000000007491230420180000664741POSC390833         02578396986N+                                                                                                                                                                                                                                    
11009146        SVPOS520402848221220172201201803300305900130803572000000001000000000000000004796000000004696000000000000000000000100000000000000000000004696000000000000PF0105390833         00000000000000000000000000000000000000000000000000000000000000000000000000000000000000000000986 +                                                                                                                  
21009146        52040284800000004114022122017225708441524******8303   0000000239800000000000000000000000000501000000004796220120180000574849POSC390833         02633043986N+                                                                                                                                                                                                                                    
11009146        SVPOS520402848221220172002201803300305900130803572000000001000000000000000004796000000004698000000000000000000000098000000000000000000004698000000000000PF0205390833         00000000000000000000000000000000000000000000000000000000000000000000000000000000000000000000986 +                                                                                                                  
21009146        52040284800000004114022122017225708441524******8303   0000000239800000000000000000000000000502000000004796200220180000574849POSC390833         02633043986N+                                                                                                                                                                                                                                    
11009146        SVPOS520402848221220172203201803300305900130803572000000001000000000000000004796000000004698000000000000000000000098000000000000000000004698000000000000PF0305390833         00000000000000000000000000000000000000000000000000000000000000000000000000000000000000000000986 +                                                                                                                  
21009146        52040284800000004114022122017225708441524******8303   0000000239800000000000000000000000000503000000004796220320180000574849POSC390833         02633043986N+                                                                                                                                                                                                                                    
11009146        SVPOS520402848221220172304201803300305900130803572000000001000000000000000004796000000004698000000000000000000000098000000000000000000004698000000000000PF0405390833         00000000000000000000000000000000000000000000000000000000000000000000000000000000000000000000986 +                                                                                                                  
21009146        52040284800000004114022122017225708441524******8303   0000000239800000000000000000000000000504000000004796230420180000574849POSC390833         02633043986N+                                                                                                                                                                                                                                    
11009146        SVPOS520402848221220172105201803300305900130803572000000001000000000000000004796000000004698000000000000000000000098000000000000000000004698000000000000PF0505390833         00000000000000000000000000000000000000000000000000000000000000000000000000000000000000000000986 +                                                                                                                  
21009146        52040284800000004114022122017225708441524******8303   0000000239800000000000000000000000000505000000004796210520180000574849POSC390833         02633043986N+                                                                                                                                                                                                                                    
11009146        SVPOS520402843221220172201201803300305900130803572000000001000000000000000018485000000018106000000000000000000000379000000000000000000018106000000000000PF0102390833         00000000000000000000000000000000000000000000000000000000000000000000000000000000000000000000986 +                                                                                                                  
21009146        52040284300000004114422122017230510498453******2269   0000000369700000000000000000000000000201000000018485220120180000671700POSC390833         02633043986N+                                                                                                                                                                                                                                    
11009146        SVPOS520402843221220172002201803300305900130803572000000001000000000000000018485000000018106000000000000000000000379000000000000000000018106000000000000PF0202390833         00000000000000000000000000000000000000000000000000000000000000000000000000000000000000000000986 +                                                                                                                  
21009146        52040284300000004114422122017230510498453******2269   0000000369700000000000000000000000000202000000018485200220180000671700POSC390833         02633043986N+                                                                                                                                                                                                                                    
1442761         SVPOS520402837221220172201201803300305900130803572000000001000000000000000004990000000004898000000000000000000000092000000000000000000004898000000000000PF0101390833         00000000000000000000000000000000000000000000000000000000000000000000000000000000000000000000986 +                                                                                                                  
2442761         52040283700000005069622122017225057498406******4767   0000000049900000000000000000000000000101000000004990220120180000650896POSC390833         02633038986N+                                                                                                                                                                                                                                    
1390833         SVPOS520402827221220172201201803300305900130803572000000001000000000000000017589000000017227000000000000000000000362000000000000000000017227000000000000PF0103390833         00000000000000000000000000000000000000000000000000000000000000000000000000000000000000000000986 +                                                                                                                  
2390833         52040282700000000030422122017232926498453******6685   0000000527650000000000000000000000000301000000017589220120180000699749POSC390833         04896442986N+                                                                                                                                                                                                                                    
1390833         SVPOS520402827221220172002201803300305900130803572000000001000000000000000017588000000017228000000000000000000000360000000000000000000017228000000000000PF0203390833         00000000000000000000000000000000000000000000000000000000000000000000000000000000000000000000986 +                                                                                                                  
2390833         52040282700000000030422122017232926498453******6685   0000000527650000000000000000000000000302000000017588200220180000699749POSC390833         04896442986N+                                                                                                                                                                                                                                    
1390833         SVPOS520402827221220172203201803300305900130803572000000001000000000000000017588000000017228000000000000000000000360000000000000000000017228000000000000PF0303390833         00000000000000000000000000000000000000000000000000000000000000000000000000000000000000000000986 +                                                                                                                  
2390833         52040282700000000030422122017232926498453******6685   0000000527650000000000000000000000000303000000017588220320180000699749POSC390833         04896442986N+                                                                                                                                                                                                                                    
11468998        SRPOS520400982221220172612201703300305900130803572000000001000000000000000007990000000007898000000000000000000000092000000000000000000007898000000000000PF0101390833         00000000000000000000000000000000000000000000000000000000000000000000000000000000000000000000986 +                                                                                                                  
21468998        52040098200000003523822122017234039603689*********80530000000079900000000000000000000000000101000000007990261220170000474791POSC390833         02909974986N+                                                                                                                                                                                                                                    
11468998        SRPOS520400974221220172612201703300305900130803572000000001000000000000000011485000000011353000000000000000000000132000000000000000000011353000000000000PF0101390833         00000000000000000000000000000000000000000000000000000000000000000000000000000000000000000000986 +                                                                                                                  
21468998        52040097400000003524222122017234617589916******0164   0000000114850000000000000000000000000101000000011485261220170000050796POSC390833         02909974986N+                                                                                                                                                                                                                                    
11009150        SRPOS520400967221220172612201703300305900130803572000000001000000000000000011980000000011842000000000000000000000138000000000000000000011842000000000000PF0101390833         00000000000000000000000000000000000000000000000000000000000000000000000000000000000000000000986 +                                                                                                                  
21009150        52040096700000004066822122017225345603689*********24030000000119800000000000000000000000000101000000011980261220170000410303POSC390833         02633044986N+                                                                                                                                                                                                                                    
11009149        SRPOS520400957221220172612201703300305900130803572000000002000000000000000033960000000033570000000000000000000000390000000000000000000033570000000000000PF0101390833         00000000000000000000000000000000000000000000000000000000000000000000000000000000000000000000986 +                                                                                                                  
21009149        52040095700000004673822122017234153603689*********75410000000249700000000000000000000000000101000000024970261220170000472435POSC390833         02633051986N+                                                                                                                                                                                                                                    
21009149        52040095700000004673222122017230938525663******2506   0000000089900000000000000000000000000101000000008990261220170000035806POSC390833         02633051986N+                                                                                                                                                                                                                                    
11009146        SRPOS520400948221220172612201703300305900130803572000000001000000000000000044970000000044453000000000000000000000517000000000000000000044453000000000000PF0101390833         00000000000000000000000000000000000000000000000000000000000000000000000000000000000000000000986 +                                                                                                                  
21009146        52040094800000004113822122017225259502121******1731   0000000449700000000000000000000000000101000000044970261220170000533949POSC390833         02633043986N+                                                                                                                                                                                                                                    
11009141        SRPOS520400945221220172612201703300305900130803572000000001000000000000000004495000000004443000000000000000000000052000000000000000000004443000000000000PF0101390833         00000000000000000000000000000000000000000000000000000000000000000000000000000000000000000000986 +                                                                                                                  
21009141        52040094500000002136022122017230948552693******2411   0000000044950000000000000000000000000101000000004495261220170000095959POSC390833         02628098986N+                                                                                                                                                                                                                                    
11002510        SRPOS520400940221220172612201703300305900130803572000000001000000000000000006990000000006910000000000000000000000080000000000000000000006910000000000000PF0101390833         00000000000000000000000000000000000000000000000000000000000000000000000000000000000000000000986 +                                                                                                                  
21002510        52040094000000004820022122017230504518759******1021   0000000069900000000000000000000000000101000000006990261220170000263836POSC390833         02633049986N+                                                                                                                                                                                                                                    
11002509        SRPOS520400932221220172612201703300305900130803572000000001000000000000000022980000000022716000000000000000000000264000000000000000000022716000000000000PF0101390833         00000000000000000000000000000000000000000000000000000000000000000000000000000000000000000000986 +                                                                                                                  
21002509        52040093200000003386222122017231503544731******3337   0000000229800000000000000000000000000101000000022980261220170000151369POSC390833         02635496986N+                                                                                                                                                                                                                                    
11002503        SRPOS520400927221220172612201703300305900130803572000000001000000000000000025970000000025671000000000000000000000299000000000000000000025671000000000000PF0101390833         00000000000000000000000000000000000000000000000000000000000000000000000000000000000000000000986 +                                                                                                                  
21002503        52040092700000004726822122017230641502121******1218   0000000259700000000000000000000000000101000000025970261220170000070835POSC390833         02628082986N+                                                                                                                                                                                                                                    
11002501        SRPOS520400915221220172612201703300305900130803572000000001000000000000000013980000000013819000000000000000000000161000000000000000000013819000000000000PF0101390833         00000000000000000000000000000000000000000000000000000000000000000000000000000000000000000000986 +                                                                                                                  
21002501        52040091500000004224622122017225408552693******9804   0000000139800000000000000000000000000101000000013980261220170000570181POSC390833         02628088986N+                                                                                                                                                                                                                                    
1390833         SRPOS520400901221220172612201703300305900130803572000000004000000000000000015960000000015777000000000000000000000183000000000000000000015777000000000000PF0101390833         00000000000000000000000000000000000000000000000000000000000000000000000000000000000000000000986 +                                                                                                                  
2390833         52040090100000000030622122017233255549167******3667   0000000044950000000000000000000000000101000000004495261220170000042214POSC390833         04896442986N+                                                                                                                                                                                                                                    
2390833         52040090100000000029222122017230106589916******6146   0000000049800000000000000000000000000101000000004980261220170000033637POSC390833         04896442986N+                                                                                                                                                                                                                                    
2390833         52040090100000000029822122017231418515894******9577   0000000034950000000000000000000000000101000000003495261220170000129270POSC390833         04896442986N+                                                                                                                                                                                                                                    
2390833         52040090100000000031222122017234310603689*********38470000000029900000000000000000000000000101000000002990261220170000473423POSC390833         04896442986N+                                                                                                                                                                                                                                    
11581518        SMPOS520396731221220172201201803300305900130803572000000001000000000000000010394000000010181000000000000000000000213000000000000000000010181000000000000PF0105390833         00000000000000000000000000000000000000000000000000000000000000000000000000000000000000000000986 +                                                                                                                  
21581518        52039673100000001915022122017230525515590******1646   0000000519700000000000000000000000000501000000010394220120180000054463POSC390833         03126891986N+                                                                                                                                                                                                                                    
11581518        SMPOS520396731221220172002201803300305900130803572000000001000000000000000010394000000010181000000000000000000000213000000000000000000010181000000000000PF0205390833         00000000000000000000000000000000000000000000000000000000000000000000000000000000000000000000986 +                                                                                                                  
21581518        52039673100000001915022122017230525515590******1646   0000000519700000000000000000000000000502000000010394200220180000054463POSC390833         03126891986N+                                                                                                                                                                                                                                    
11581518        SMPOS520396731221220172203201803300305900130803572000000001000000000000000010394000000010181000000000000000000000213000000000000000000010181000000000000PF0305390833         00000000000000000000000000000000000000000000000000000000000000000000000000000000000000000000986 +                                                                                                                  
21581518        52039673100000001915022122017230525515590******1646   0000000519700000000000000000000000000503000000010394220320180000054463POSC390833         03126891986N+                                                                                                                                                                                                                                    
11581518        SMPOS520396731221220172304201803300305900130803572000000001000000000000000010394000000010181000000000000000000000213000000000000000000010181000000000000PF0405390833         00000000000000000000000000000000000000000000000000000000000000000000000000000000000000000000986 +                                                                                                                  
21581518        52039673100000001915022122017230525515590******1646   0000000519700000000000000000000000000504000000010394230420180000054463POSC390833         03126891986N+                                                                                                                                                                                                                                    
11581518        SMPOS520396731221220172105201803300305900130803572000000001000000000000000010394000000010181000000000000000000000213000000000000000000010181000000000000PF0505390833         00000000000000000000000000000000000000000000000000000000000000000000000000000000000000000000986 +                                                                                                                  
21581518        52039673100000001915022122017230525515590******1646   0000000519700000000000000000000000000505000000010394210520180000054463POSC390833         03126891986N+                                                                                                                                                                                                                                    
11468998        SMPOS520396721221220172201201803300305900130803572000000002000000000000000014475000000014177000000000000000000000298000000000000000000014177000000000000PF0102390833         00000000000000000000000000000000000000000000000000000000000000000000000000000000000000000000986 +                                                                                                                  
21468998        52039672100000003523622122017233231515894******4697   0000000149700000000000000000000000000201000000007485220120180000457590POSC390833         02909974986N+                                                                                                                                                                                                                                    
21468998        52039672100000003523222122017230514523421******2445   000000013980000000000000000000000000020100000000699022012018000000A3MXPOSC390833         02909974986N+                                                                                                                                                                                                                                    
11468998        SMPOS520396721221220172002201803300305900130803572000000002000000000000000014475000000014179000000000000000000000296000000000000000000014179000000000000PF0202390833         00000000000000000000000000000000000000000000000000000000000000000000000000000000000000000000986 +                                                                                                                  
21468998        52039672100000003523622122017233231515894******4697   0000000149700000000000000000000000000202000000007485200220180000457590POSC390833         02909974986N+                                                                                                                                                                                                                                    
21468998        52039672100000003523222122017230514523421******2445   000000013980000000000000000000000000020200000000699020022018000000A3MXPOSC390833         02909974986N+                                                                                                                                                                                                                                    
11468998        SMPOS520396714221220172201201803300305900130803572000000001000000000000000004990000000004898000000000000000000000092000000000000000000004898000000000000PF0101390833         00000000000000000000000000000000000000000000000000000000000000000000000000000000000000000000986 +                                                                                                                  
21468998        52039671400000003523022122017225036552236******2717   0000000049900000000000000000000000000101000000004990220120180000053880POSC390833         02909974986N+                                                                                                                                                                                                                                    
11352948        SMPOS520396707221220172201201803300305900130803572000000001000000000000000014475000000014207000000000000000000000268000000000000000000014207000000000000PF0101390833         00000000000000000000000000000000000000000000000000000000000000000000000000000000000000000000986 +                                                                                                                  
21352948        52039670700000002904222122017225129527437******8035   0000000144750000000000000000000000000101000000014475220120180000R46472POSC390833         02578396986N+                                                                                                                                                                                                                                    
11009150        SMPOS520396701221220172201201803300305900130803572000000001000000000000000004495000000004403000000000000000000000092000000000000000000004403000000000000PF0102390833         00000000000000000000000000000000000000000000000000000000000000000000000000000000000000000000986 +                                                                                                                  
21009150        52039670100000004067022122017225827553636******9071   0000000089900000000000000000000000000201000000004495220120180000066687POSC390833         02633044986N+                                                                                                                                                                                                                                    
11009150        SMPOS520396701221220172002201803300305900130803572000000001000000000000000004495000000004403000000000000000000000092000000000000000000004403000000000000PF0202390833         00000000000000000000000000000000000000000000000000000000000000000000000000000000000000000000986 +                                                                                                                  
21009150        52039670100000004067022122017225827553636******9071   0000000089900000000000000000000000000202000000004495200220180000066687POSC390833         02633044986N+                                                                                                                                                                                                                                    
11009149        SMPOS520396695221220172201201803300305900130803572000000001000000000000000006990000000006861000000000000000000000129000000000000000000006861000000000000PF0101390833         00000000000000000000000000000000000000000000000000000000000000000000000000000000000000000000986 +                                                                                                                  
21009149        52039669500000004672822122017230432530034******5232   0000000069900000000000000000000000000101000000006990220120180000078037POSC390833         02633051986N+                                                                                                                                                                                                                                    
11009147        SMPOS520396690221220172201201803300305900130803572000000001000000000000000004330000000004240000000000000000000000090000000000000000000004240000000000000PF0103390833         00000000000000000000000000000000000000000000000000000000000000000000000000000000000000000000986 +                                                                                                                  
21009147        52039669000000004933422122017230616530994******8540   0000000129900000000000000000000000000301000000004330220120180000097080POSC390833         02633046986N+                                                                                                                                                                                                                                    
11009147        SMPOS520396690221220172002201803300305900130803572000000001000000000000000004330000000004242000000000000000000000088000000000000000000004242000000000000PF0203390833         00000000000000000000000000000000000000000000000000000000000000000000000000000000000000000000986 +                                                                                                                  
21009147        52039669000000004933422122017230616530994******8540   0000000129900000000000000000000000000302000000004330200220180000097080POSC390833         02633046986N+                                                                                                                                                                                                                                    
11009147        SMPOS520396690221220172203201803300305900130803572000000001000000000000000004330000000004242000000000000000000000088000000000000000000004242000000000000PF0303390833         00000000000000000000000000000000000000000000000000000000000000000000000000000000000000000000986 +                                                                                                                  
21009147        52039669000000004933422122017230616530994******8540   0000000129900000000000000000000000000303000000004330220320180000097080POSC390833         02633046986N+                                                                                                                                                                                                                                    
11009146        SMPOS520396679221220172201201803300305900130803572000000003000000000000000045960000000045110000000000000000000000850000000000000000000045110000000000000PF0101390833         00000000000000000000000000000000000000000000000000000000000000000000000000000000000000000000986 +                                                                                                                  
21009146        52039667900000004114822122017234200536805******4867   0000000069900000000000000000000000000101000000006990220120180000624699POSC390833         02633043986N+                                                                                                                                                                                                                                    
21009146        52039667900000004115022122017234353527468******9844   0000000109900000000000000000000000000101000000010990220120180000026428POSC390833         02633043986N+                                                                                                                                                                                                                                    
21009146        52039667900000004114222122017230439515590******8374   0000000279800000000000000000000000000101000000027980220120180000051764POSC390833         02633043986N+                                                                                                                                                                                                                                    
11009137        SMPOS520396660221220172201201803300305900130803572000000001000000000000000013988000000013698000000000000000000000290000000000000000000013698000000000000PF0105390833         00000000000000000000000000000000000000000000000000000000000000000000000000000000000000000000986 +                                                                                                                  
21009137        52039666000000005316022122017225510516220******3690   00000006994000000000000000000000000005010000000139882201201800007MKO3BPOSC390833         02628081986N+                                                                                                                                                                                                                                    
11009137        SMPOS520396660221220172002201803300305900130803572000000001000000000000000013988000000013702000000000000000000000286000000000000000000013702000000000000PF0205390833         00000000000000000000000000000000000000000000000000000000000000000000000000000000000000000000986 +                                                                                                                  
21009137        52039666000000005316022122017225510516220******3690   00000006994000000000000000000000000005020000000139882002201800007MKO3BPOSC390833         02628081986N+                                                                                                                                                                                                                                    
11009137        SMPOS520396660221220172203201803300305900130803572000000001000000000000000013988000000013702000000000000000000000286000000000000000000013702000000000000PF0305390833         00000000000000000000000000000000000000000000000000000000000000000000000000000000000000000000986 +                                                                                                                  
21009137        52039666000000005316022122017225510516220******3690   00000006994000000000000000000000000005030000000139882203201800007MKO3BPOSC390833         02628081986N+                                                                                                                                                                                                                                    
11009137        SMPOS520396660221220172304201803300305900130803572000000001000000000000000013988000000013702000000000000000000000286000000000000000000013702000000000000PF0405390833         00000000000000000000000000000000000000000000000000000000000000000000000000000000000000000000986 +                                                                                                                  
21009137        52039666000000005316022122017225510516220******3690   00000006994000000000000000000000000005040000000139882304201800007MKO3BPOSC390833         02628081986N+                                                                                                                                                                                                                                    
11009137        SMPOS520396660221220172105201803300305900130803572000000001000000000000000013988000000013702000000000000000000000286000000000000000000013702000000000000PF0505390833         00000000000000000000000000000000000000000000000000000000000000000000000000000000000000000000986 +                                                                                                                  
21009137        52039666000000005316022122017225510516220******3690   00000006994000000000000000000000000005050000000139882105201800007MKO3BPOSC390833         02628081986N+                                                                                                                                                                                                                                    
11002509        SMPOS520396651221220172201201803300305900130803572000000002000000000000000006990000000006846000000000000000000000144000000000000000000006846000000000000PF0102390833         00000000000000000000000000000000000000000000000000000000000000000000000000000000000000000000986 +                                                                                                                  
21002509        52039665100000003386422122017234347536805******2903   0000000069900000000000000000000000000201000000003495220120180000640366POSC390833         02635496986N+                                                                                                                                                                                                                                    
21002509        52039665100000003386022122017230507518454******9580   0000000069900000000000000000000000000201000000003495220120180000240617POSC390833         02635496986N+                                                                                                                                                                                                                                    
11002509        SMPOS520396651221220172002201803300305900130803572000000002000000000000000006990000000006848000000000000000000000142000000000000000000006848000000000000PF0202390833         00000000000000000000000000000000000000000000000000000000000000000000000000000000000000000000986 +                                                                                                                  
21002509        52039665100000003386022122017230507518454******9580   0000000069900000000000000000000000000202000000003495200220180000240617POSC390833         02635496986N+                                                                                                                                                                                                                                    
21002509        52039665100000003386422122017234347536805******2903   0000000069900000000000000000000000000202000000003495200220180000640366POSC390833         02635496986N+                                                                                                                                                                                                                                    
11002502        SMPOS520396641221220172201201803300305900130803572000000001000000000000000004660000000004563000000000000000000000097000000000000000000004563000000000000PF0103390833         00000000000000000000000000000000000000000000000000000000000000000000000000000000000000000000986 +                                                                                                                  
21002502        52039664100000003351422122017225220522840******1672   0000000139800000000000000000000000000301000000004660220120180000523868POSC390833         02628069986N+                                                                                                                                                                                                                                    
11002502        SMPOS520396641221220172002201803300305900130803572000000001000000000000000004660000000004565000000000000000000000095000000000000000000004565000000000000PF0203390833         00000000000000000000000000000000000000000000000000000000000000000000000000000000000000000000986 +                                                                                                                  
21002502        52039664100000003351422122017225220522840******1672   0000000139800000000000000000000000000302000000004660200220180000523868POSC390833         02628069986N+                                                                                                                                                                                                                                    
11002502        SMPOS520396641221220172203201803300305900130803572000000001000000000000000004660000000004565000000000000000000000095000000000000000000004565000000000000PF0303390833         00000000000000000000000000000000000000000000000000000000000000000000000000000000000000000000986 +                                                                                                                  
21002502        52039664100000003351422122017225220522840******1672   0000000139800000000000000000000000000303000000004660220320180000523868POSC390833         02628069986N+                                                                                                                                                                                                                                    
1442647         SMPOS520396634221220172201201803300305900130803572000000001000000000000000018478000000018099000000000000000000000379000000000000000000018099000000000000PF0102390833         00000000000000000000000000000000000000000000000000000000000000000000000000000000000000000000986 +                                                                                                                  
2442647         52039663400000004496422122017225455554906******9610   0000000369550000000000000000000000000201000000018478220120180000062145POSC390833         02734968986N+                                                                                                                                                                                                                                    
1442647         SMPOS520396634221220172002201803300305900130803572000000001000000000000000018477000000018098000000000000000000000379000000000000000000018098000000000000PF0202390833         00000000000000000000000000000000000000000000000000000000000000000000000000000000000000000000986 +                                                                                                                  
2442647         52039663400000004496422122017225455554906******9610   0000000369550000000000000000000000000202000000018477200220180000062145POSC390833         02734968986N+                                                                                                                                                                                                                                    
1390833         SMPOS520396629221220172201201803300305900130803572000000001000000000000000005243000000005135000000000000000000000108000000000000000000005135000000000000PF0102390833         00000000000000000000000000000000000000000000000000000000000000000000000000000000000000000000986 +                                                                                                                  
2390833         52039662900000000031022122017233948540593******2788   0000000104850000000000000000000000000201000000005243220120180000732174POSC390833         04896442986N+                                                                                                                                                                                                                                    
1390833         SMPOS520396629221220172002201803300305900130803572000000001000000000000000005242000000005135000000000000000000000107000000000000000000005135000000000000PF0202390833         00000000000000000000000000000000000000000000000000000000000000000000000000000000000000000000986 +                                                                                                                  
2390833         52039662900000000031022122017233948540593******2788   0000000104850000000000000000000000000202000000005242200220180000732174POSC390833         04896442986N+                                                                                                                                                                                                                                    
1390833         SMPOS520396620221220172201201803300305900130803572000000001000000000000000004495000000004412000000000000000000000083000000000000000000004412000000000000PF0101390833         00000000000000000000000000000000000000000000000000000000000000000000000000000000000000000000986 +                                                                                                                  
2390833         52039662000000000030022122017231546526787******9026   0000000044950000000000000000000000000101000000004495220120180000R49206POSC390833         04896442986N+                                                                                                                                                                                                                                    
1390833         EDPOS520264758221220172612201703300305900130803572000000001000000000000000013980000000013770000000000000000000000210000000000000000000013770000000000000PF0101390833         00000000000000000000000000000000000000000000000000000000000000000000000000000000000000000000986 +                                                                                                                  
2390833         52026475800000000002622122017192636627780******0983   0000000139800000000000000000000000000101000000013980261220170000439462POSC390833         04896546986N+                                                                                                                                                                                                                                    
1390833         EDPOS520264684221220172612201703300305900130803572000000005000000000000000023915000000023556000000000000000000000359000000000000000000023556000000000000PF0101390833         00000000000000000000000000000000000000000000000000000000000000000000000000000000000000000000986 +                                                                                                                  
2390833         52026468400000000026622122017214640506775******8223   0000000069850000000000000000000000000101000000006985261220170000092566POSC390833         04896442986N+                                                                                                                                                                                                                                    
2390833         52026468400000000028422122017224158509000******7100   0000000024900000000000000000000000000101000000002490261220170000331170POSC390833         04896442986N+                                                                                                                                                                                                                                    
2390833         52026468400000000027222122017220853506722******8560   0000000024900000000000000000000000000101000000002490261220170000911208POSC390833         04896442986N+                                                                                                                                                                                                                                    
2390833         52026468400000000027822122017222249506727******7105   0000000059800000000000000000000000000101000000005980261220170000331180POSC390833         04896442986N+                                                                                                                                                                                                                                    
2390833         52026468400000000027422122017221604506775******2173   0000000059700000000000000000000000000101000000005970261220170000127886POSC390833         04896442986N+                                                                                                                                                                                                                                    
1390833         EDPOS520264651221220172612201703300305900130803572000000001000000000000000013980000000013770000000000000000000000210000000000000000000013770000000000000PF0101390833         00000000000000000000000000000000000000000000000000000000000000000000000000000000000000000000986 +                                                                                                                  
2390833         52026465100000000009022122017193605627780******1844   0000000139800000000000000000000000000101000000013980261220170000636886POSC390833         04896436986N+                                                                                                                                                                                                                                    
1390833         EDPOS520264613221220172612201703300305900130803572000000002000000000000000017980000000017710000000000000000000000270000000000000000000017710000000000000PF0101390833         00000000000000000000000000000000000000000000000000000000000000000000000000000000000000000000986 +                                                                                                                  
2390833         52026461300000000020422122017215746627780******3882   0000000089900000000000000000000000000101000000008990261220170000808067POSC390833         03064697986N+                                                                                                                                                                                                                                    
2390833         52026461300000000020222122017214755627780******2978   0000000089900000000000000000000000000101000000008990261220170000708592POSC390833         03064697986N+                                                                                                                                                                                                                                    
14215208        SETEF520187878221220172612201703300305900130803572000000002000000000000000020228000000019996000000000000000000000232000000000000000000019996000000000000PF0101390833         00000000000000000000000000000000000000000000000000000000000000000000000000000000000000000000986 +                                                                                                                  
24215208        52018787800000000744022122017210258439267******1492   0000000132380000000000000000000000000101000000013238261220170000162027TEFC390833         04768898986N+                                                                                                                                                                                                                                    
24215208        52018787800000000742822122017191553498453******2597   0000000069900000000000000000000000000101000000006990261220170000669369TEFC390833         04768898986N+                                                                                                                                                                                                                                    
14158083        SETEF520187827221220172612201703300305900130803572000000001000000000000000018980000000018762000000000000000000000218000000000000000000018762000000000000PF0101390833         00000000000000000000000000000000000000000000000000000000000000000000000000000000000000000000986 +                                                                                                                  
24158083        52018782700000001019222122017202309498423******6744   0000000189800000000000000000000000000101000000018980261220170000173412TEFC390833         04566162986N+                                                                                                                                                                                                                                    
11731085        SETEF520187752221220172612201703300305900130803572000000004000000000000000060895000000060195000000000000000000000700000000000000000000060195000000000000PF0101390833         00000000000000000000000000000000000000000000000000000000000000000000000000000000000000000000986 +                                                                                                                  
21731085        52018775200000000594222122017201929409600******7379   0000000109400000000000000000000000000101000000010940261220170000329378TEFC390833         04116026986N+                                                                                                                                                                                                                                    
21731085        52018775200000000594622122017202658498453******5049   0000000349750000000000000000000000000101000000034975261220170000273664TEFC390833         04116026986N+                                                                                                                                                                                                                                    
21731085        52018775200000000594022122017201317498407******8482   0000000049900000000000000000000000000101000000004990261220170000172809TEFC390833         04116026986N+                                                                                                                                                                                                                                    
21731085        52018775200000000592822122017193302476608******2107   0000000099900000000000000000000000000101000000009990261220170000329235TEFC390833         04116026986N+                                                                                                                                                                                                                                    
11637504        SETEF520187666221220172612201703300305900130803572000000001000000000000000004990000000004933000000000000000000000057000000000000000000004933000000000000PF0101390833         00000000000000000000000000000000000000000000000000000000000000000000000000000000000000000000986 +                                                                                                                  
21637504        52018766600000000856622122017210148498423******4746   0000000049900000000000000000000000000101000000004990261220170000675727TEFC390833         03940758986N+                                                                                                                                                                                                                                    
11637504        SETEF520187629221220172612201703300305900130803572000000001000000000000000030960000000030604000000000000000000000356000000000000000000030604000000000000PF0101390833         00000000000000000000000000000000000000000000000000000000000000000000000000000000000000000000986 +                                                                                                                  
21637504        52018762900000001905022122017220246498407******4664   0000000309600000000000000000000000000101000000030960261220170000679390TEFC390833         03690342986N+                                                                                                                                                                                                                                    
11582086        SEPOS520187522221220172612201703300305900130803572000000006000000000000000072385000000071552000000000000000000000833000000000000000000071552000000000000PF0101390833         00000000000000000000000000000000000000000000000000000000000000000000000000000000000000000000986 +                                                                                                                  
21582086        52018752200000001870022122017215617473200******3103   0000000099800000000000000000000000000101000000009980261220170000330132POSC390833         03126887986N+                                                                                                                                                                                                                                    
21582086        52018752200000001866622122017185253498442******2088   0000000079850000000000000000000000000101000000007985261220170000768051POSC390833         03126887986N+                                                                                                                                                                                                                                    
21582086        52018752200000001868222122017201311473200******2105   0000000174750000000000000000000000000101000000017475261220170000329868POSC390833         03126887986N+                                                                                                                                                                                                                                    
21582086        52018752200000001867822122017193154400178******6146   0000000199600000000000000000000000000101000000019960261220170000370390POSC390833         03126887986N+                                                                                                                                                                                                                                    
21582086        52018752200000001869222122017204003441524******5799   0000000109900000000000000000000000000101000000010990261220170000411777POSC390833         03126887986N+                                                                                                                                                                                                                                    
21582086        52018752200000001869022122017203755476608******4100   0000000059950000000000000000000000000101000000005995261220170000330069POSC390833         03126887986N+                                                                                                                                                                                                                                    
11581518        SEPOS520187433221220172612201703300305900130803572000000003000000000000000080425000000079500000000000000000000000925000000000000000000079500000000000000PF0101390833         00000000000000000000000000000000000000000000000000000000000000000000000000000000000000000000986 +                                                                                                                  
21581518        52018743300000001914022122017214858439267******2780   0000000389800000000000000000000000000101000000038980261220170000714863POSC390833         03126891986N+                                                                                                                                                                                                                                    
21581518        52018743300000001913822122017213434400176******7113   0000000174850000000000000000000000000101000000017485261220170000277682POSC390833         03126891986N+                                                                                                                                                                                                                                    
21581518        52018743300000001912622122017191538498406******4804   0000000239600000000000000000000000000101000000023960261220170000169348POSC390833         03126891986N+                                                                                                                                                                                                                                    
11580519        SETEF520187358221220172612201703300305900130803572000000004000000000000000053415000000052801000000000000000000000614000000000000000000052801000000000000PF0101390833         00000000000000000000000000000000000000000000000000000000000000000000000000000000000000000000986 +                                                                                                                  
21580519        52018735800000000063622122017211202476608******6321   0000000054950000000000000000000000000101000000005495261220170000330210TEFC390833         05168989986N+                                                                                                                                                                                                                                    
21580519        52018735800000000062222122017203424498453******9127   0000000044950000000000000000000000000101000000004495261220170000374083TEFC390833         05168989986N+                                                                                                                                                                                                                                    
21580519        52018735800000000063422122017210809476608******5104   0000000344350000000000000000000000000101000000034435261220170000330088TEFC390833         05168989986N+                                                                                                                                                                                                                                    
21580519        52018735800000000063022122017205903483042******0207   0000000089900000000000000000000000000101000000008990261220170000329692TEFC390833         05168989986N+                                                                                                                                                                                                                                    
11580519        SEPOS520187219221220172612201703300305900130803572000000004000000000000000061460000000060753000000000000000000000707000000000000000000060753000000000000PF0101390833         00000000000000000000000000000000000000000000000000000000000000000000000000000000000000000000986 +                                                                                                                  
21580519        52018721900000000087022122017204542476608******9106   0000000179850000000000000000000000000101000000017985261220170000329566POSC390833         03126900986N+                                                                                                                                                                                                                                    
21580519        52018721900000000086422122017203448476332******6110   0000000194900000000000000000000000000101000000019490261220170000044550POSC390833         03126900986N+                                                                                                                                                                                                                                    
21580519        52018721900000000086622122017203736498442******7904   0000000194900000000000000000000000000101000000019490261220170000274280POSC390833         03126900986N+                                                                                                                                                                                                                                    
21580519        52018721900000000085822122017201155498442******5161   0000000044950000000000000000000000000101000000004495261220170000172737POSC390833         03126900986N+                                                                                                                                                                                                                                    
11516462        SETEF520187159221220172612201703300305900130803572000000001000000000000000030460000000030110000000000000000000000350000000000000000000030110000000000000PF0101390833         00000000000000000000000000000000000000000000000000000000000000000000000000000000000000000000986 +                                                                                                                  
21516462        52018715900000001710622122017200919476608******7206   0000000304600000000000000000000000000101000000030460261220170000329764TEFC390833         03632792986N+                                                                                                                                                                                                                                    
11516462        SETEF520187101221220172612201703300305900130803572000000001000000000000000006990000000006910000000000000000000000080000000000000000000006910000000000000PF0101390833         00000000000000000000000000000000000000000000000000000000000000000000000000000000000000000000986 +                                                                                                                  
21516462        52018710100000001710422122017192407473200******9100   0000000069900000000000000000000000000101000000006990261220170000329424TEFC390833         03602398986N+                                                                                                                                                                                                                                    
11513259        SETEF520187078221220172612201703300305900130803572000000001000000000000000049900000000049326000000000000000000000574000000000000000000049326000000000000PF0101390833         00000000000000000000000000000000000000000000000000000000000000000000000000000000000000000000986 +                                                                                                                  
21513259        52018707800000001405222122017195701498406******4791   0000000499000000000000000000000000000101000000049900261220170000171835TEFC390833         03507039986N+                                                                                                                                                                                                                                    
11471240        SEPOS520186985221220172612201703300305900130803572000000002000000000000000013980000000013820000000000000000000000160000000000000000000013820000000000000PF0101390833         00000000000000000000000000000000000000000000000000000000000000000000000000000000000000000000986 +                                                                                                                  
21471240        52018698500000001646622122017202106498431******0687   0000000089900000000000000000000000000101000000008990261220170000173286POSC390833         03036070986N+                                                                                                                                                                                                                                    
21471240        52018698500000001647022122017212217439267******9563   0000000049900000000000000000000000000101000000004990261220170000408612POSC390833         03036070986N+                                                                                                                                                                                                                                    
11471240        SEPOS520186981221220172612201703300305900130803572000000001000000000000000006990000000006910000000000000000000000080000000000000000000006910000000000000PF0101390833         00000000000000000000000000000000000000000000000000000000000000000000000000000000000000000000986 +                                                                                                                  
21471240        52018698100000001646822122017203843442548******4711   0000000069900000000000000000000000000101000000006990261220170000360265POSC390833         03036070986E+                                                                                                                                                                                                                                    
11469244        SEPOS520186896221220172612201703300305900130803572000000003000000000000000038940000000038492000000000000000000000448000000000000000000038492000000000000PF0101390833         00000000000000000000000000000000000000000000000000000000000000000000000000000000000000000000986 +                                                                                                                  
21469244        52018689600000001873022122017203348400178******2136   0000000079900000000000000000000000000101000000007990261220170000274058POSC390833         03036065986N+                                                                                                                                                                                                                                    
21469244        52018689600000001874422122017215216473200******3106   0000000239600000000000000000000000000101000000023960261220170000330658POSC390833         03036065986N+                                                                                                                                                                                                                                    
21469244        52018689600000001873422122017204746476331******3123   0000000069900000000000000000000000000101000000006990261220170000057337POSC390833         03036065986N+                                                                                                                                                                                                                                    
11468998        SEPOS520186805221220172612201703300305900130803572000000005000000000000000064930000000064183000000000000000000000747000000000000000000064183000000000000PF0101390833         00000000000000000000000000000000000000000000000000000000000000000000000000000000000000000000986 +                                                                                                                  
21468998        52018680500000003521822122017222257439267******2023   0000000099800000000000000000000000000101000000009980261220170000061294POSC390833         02909974986N+                                                                                                                                                                                                                                    
21468998        52018680500000003516422122017194030498408******9943   0000000059900000000000000000000000000101000000005990261220170000371087POSC390833         02909974986N+                                                                                                                                                                                                                                    
21468998        52018680500000003516222122017193642409600******2841   0000000199900000000000000000000000000101000000019990261220170000328668POSC390833         02909974986N+                                                                                                                                                                                                                                    
21468998        52018680500000003516022122017191629498442******2718   0000000139800000000000000000000000000101000000013980261220170000269631POSC390833         02909974986N+                                                                                                                                                                                                                                    
21468998        52018680500000003522422122017224044439267******2864   0000000149900000000000000000000000000101000000014990261220170000195525POSC390833         02909974986N+                                                                                                                                                                                                                                    
11468997        SEPOS520186686221220172612201703300305900130803572000000005000000000000000091445000000090394000000000000000000001051000000000000000000090394000000000000PF0101390833         00000000000000000000000000000000000000000000000000000000000000000000000000000000000000000000986 +                                                                                                                  
21468997        52018668600000001632222122017204828400178******2145   0000000169800000000000000000000000000101000000016980261220170000875088POSC390833         03193102986N+                                                                                                                                                                                                                                    
21468997        52018668600000001631222122017200218498453******1150   0000000074950000000000000000000000000101000000007495261220170000172321POSC390833         03193102986N+                                                                                                                                                                                                                                    
21468997        52018668600000001634222122017220101498453******7813   0000000089900000000000000000000000000101000000008990261220170000679445POSC390833         03193102986N+                                                                                                                                                                                                                                    
21468997        52018668600000001633222122017213521476608******3107   0000000370000000000000000000000000000101000000037000261220170000330604POSC390833         03193102986N+                                                                                                                                                                                                                                    
21468997        52018668600000001633422122017213726476608******3107   0000000209800000000000000000000000000101000000020980261220170000329898POSC390833         03193102986N+                                                                                                                                                                                                                                    
11468997        SEPOS520186612221220172612201703300305900130803572000000003000000000000000023970000000023695000000000000000000000275000000000000000000023695000000000000PF0101390833         00000000000000000000000000000000000000000000000000000000000000000000000000000000000000000000986 +                                                                                                                  
21468997        52018661200000002517422122017192827409600******2114   0000000069900000000000000000000000000101000000006990261220170000328985POSC390833         02909957986N+                                                                                                                                                                                                                                    
21468997        52018661200000002518622122017205954498401******0472   0000000049900000000000000000000000000101000000004990261220170000275773POSC390833         02909957986N+                                                                                                                                                                                                                                    
21468997        52018661200000002517022122017191109491675******7893   0000000119900000000000000000000000000101000000011990261220170000140701POSC390833         02909957986N+                                                                                                                                                                                                                                    
11371686        SEPOS520186488221220172612201703300305900130803572000000004000000000000000060920000000060220000000000000000000000700000000000000000000060220000000000000PF0101390833         00000000000000000000000000000000000000000000000000000000000000000000000000000000000000000000986 +                                                                                                                  
