01003201904022810032019CEADM100390833         10440482000154GETNET S.A.         000001134GSSANT. V.8.0 400 BYTES                                                                                                                                                                                                                                                                                                
11002501        SVPOS392497366090320190804201903300305900130803572000000001000000000000000013495000000013245000000000000000000000250000000000000000000013245000000000000PF01011002501        00000000000000000000000000000000000000000000000000000000000000000000000000000000000000000000986 +                                                                                                                  
21002501        39249736600000006124809032019210841419590******9975   0000000134950000000000000000000000000101000000013495080420190000184503POSC1002501        02628088986N+                                                                                                                                                                                                                                    
11002501        SMPOS392469717090320190804201903300305900130803572000000001000000000000000008990000000008805000000000000000000000185000000000000000000008805000000000000PF01031002501        00000000000000000000000000000000000000000000000000000000000000000000000000000000000000000000986 +                                                                                                                  
21002501        39246971700000006125009032019215808515590******2018   0000000269700000000000000000000000000301000000008990080420190000001957POSC1002501        02628088986N+                                                                                                                                                                                                                                    
11002501        SMPOS392469717090320190805201903300305900130803572000000001000000000000000008990000000008806000000000000000000000184000000000000000000008806000000000000PF02031002501        00000000000000000000000000000000000000000000000000000000000000000000000000000000000000000000986 +                                                                                                                  
21002501        39246971700000006125009032019215808515590******2018   0000000269700000000000000000000000000302000000008990080520190000001957POSC1002501        02628088986N+                                                                                                                                                                                                                                    
11002501        SMPOS392469717090320190706201903300305900130803572000000001000000000000000008990000000008806000000000000000000000184000000000000000000008806000000000000PF03031002501        00000000000000000000000000000000000000000000000000000000000000000000000000000000000000000000986 +                                                                                                                  
21002501        39246971700000006125009032019215808515590******2018   0000000269700000000000000000000000000303000000008990070620190000001957POSC1002501        02628088986N+                                                                                                                                                                                                                                    
11002501        EDPOS392212770090320191103201903300305900130803572000000002000000000000000017485000000017284000000000000000000000201000000000000000000017284000000000000PF01011002501        00000000000000000000000000000000000000000000000000000000000000000000000000000000000000000000986 +                                                                                                                  
21002501        39221277000000006121809032019173706509000******5100   0000000044950000000000000000000000000101000000004495110320190000140404POSC1002501        02628088986N+                                                                                                                                                                                                                                    
21002501        39221277000000006123209032019194632506776******2506   0000000129900000000000000000000000000101000000012990110320190000126998POSC1002501        02628088986N+                                                                                                                                                                                                                                    
11002501        ACPOS392167290090320190804201903300305900130803572000000002000000000000000018970000000018619000000000000000000000351000000000000000000018619000000000000PF01011002501        00000000000000000000000000000000000000000000000000000000000000000000000000000000000000000000986 +                                                                                                                  
21002501        39216729000000006123009032019192004377169*****2355    0000000144750000000000000000000000000101000000014475080420190000621886POSC1002501        02628088986N+                                                                                                                                                                                                                                    
21002501        39216729000000006122809032019191137377169*****2355    0000000044950000000000000000000000000101000000004495080420190000634435POSC1002501        02628088986N+                                                                                                                                                                                                                                    
11002501        SEPOS392125228090320191103201903300305900130803572000000002000000000000000017490000000017289000000000000000000000201000000000000000000017289000000000000PF01011002501        00000000000000000000000000000000000000000000000000000000000000000000000000000000000000000000986 +                                                                                                                  
21002501        39212522800000006120609032019160820476608******9220   0000000049950000000000000000000000000101000000004995110320190000139900POSC1002501        02628088986N+                                                                                                                                                                                                                                    
21002501        39212522800000006121409032019165640400178******0148   0000000124950000000000000000000000000101000000012495110320190000761126POSC1002501        02628088986N+                                                                                                                                                                                                                                    
11002501        SVPOS392027971090320190804201903300305900130803572000000001000000000000000009245000000009053000000000000000000000192000000000000000000009053000000000000PF01061002501        00000000000000000000000000000000000000000000000000000000000000000000000000000000000000000000986 +                                                                                                                  
21002501        39202797100000006122609032019185904464299******6519   0000000554650000000000000000000000000601000000009245080420190000030055POSC1002501        02628088986N+                                                                                                                                                                                                                                    
11002501        SVPOS392027971090320190805201903300305900130803572000000001000000000000000009244000000009055000000000000000000000189000000000000000000009055000000000000PF02061002501        00000000000000000000000000000000000000000000000000000000000000000000000000000000000000000000986 +                                                                                                                  
21002501        39202797100000006122609032019185904464299******6519   0000000554650000000000000000000000000602000000009244080520190000030055POSC1002501        02628088986N+                                                                                                                                                                                                                                    
11002501        SVPOS392027971090320190706201903300305900130803572000000001000000000000000009244000000009055000000000000000000000189000000000000000000009055000000000000PF03061002501        00000000000000000000000000000000000000000000000000000000000000000000000000000000000000000000986 +                                                                                                                  
21002501        39202797100000006122609032019185904464299******6519   0000000554650000000000000000000000000603000000009244070620190000030055POSC1002501        02628088986N+                                                                                                                                                                                                                                    
11002501        SVPOS392027971090320190807201903300305900130803572000000001000000000000000009244000000009055000000000000000000000189000000000000000000009055000000000000PF04061002501        00000000000000000000000000000000000000000000000000000000000000000000000000000000000000000000986 +                                                                                                                  
21002501        39202797100000006122609032019185904464299******6519   0000000554650000000000000000000000000604000000009244080720190000030055POSC1002501        02628088986N+                                                                                                                                                                                                                                    
11002501        SVPOS392027971090320190608201903300305900130803572000000001000000000000000009244000000009055000000000000000000000189000000000000000000009055000000000000PF05061002501        00000000000000000000000000000000000000000000000000000000000000000000000000000000000000000000986 +                                                                                                                  
21002501        39202797100000006122609032019185904464299******6519   0000000554650000000000000000000000000605000000009244060820190000030055POSC1002501        02628088986N+                                                                                                                                                                                                                                    
11002501        SVPOS392027971090320190509201903300305900130803572000000001000000000000000009244000000009055000000000000000000000189000000000000000000009055000000000000PF06061002501        00000000000000000000000000000000000000000000000000000000000000000000000000000000000000000000986 +                                                                                                                  
21002501        39202797100000006122609032019185904464299******6519   0000000554650000000000000000000000000606000000009244050920190000030055POSC1002501        02628088986N+                                                                                                                                                                                                                                    
11002501        SVPOS392027949090320190804201903300305900130803572000000001000000000000000018985000000018634000000000000000000000351000000000000000000018634000000000000PF01011002501        00000000000000000000000000000000000000000000000000000000000000000000000000000000000000000000986 +                                                                                                                  
21002501        39202794900000006123609032019200414485464******0094   0000000189850000000000000000000000000101000000018985080420190000006356POSC1002501        02628088986N+                                                                                                                                                                                                                                    
11002501        SVPOS392027913090320190804201903300305900130803572000000001000000000000000023980000000023536000000000000000000000444000000000000000000023536000000000000PF01011002501        00000000000000000000000000000000000000000000000000000000000000000000000000000000000000000000986 +                                                                                                                  
21002501        39202791300000006120809032019163822426354******6827   0000000239800000000000000000000000000101000000023980080420190000310737POSC1002501        02628088986E+                                                                                                                                                                                                                                    
11002501        SRPOS391902548090320191103201903300305900130803572000000003000000000000000039965000000039505000000000000000000000460000000000000000000039505000000000000PF01011002501        00000000000000000000000000000000000000000000000000000000000000000000000000000000000000000000986 +                                                                                                                  
21002501        39190254800000006123809032019200632515590******4922   0000000104900000000000000000000000000101000000010490110320190000083657POSC1002501        02628088986N+                                                                                                                                                                                                                                    
21002501        39190254800000006123409032019194940603689*********23510000000234800000000000000000000000000101000000023480110320190000425248POSC1002501        02628088986N+                                                                                                                                                                                                                                    
21002501        39190254800000006122209032019180235515590******4764   0000000059950000000000000000000000000101000000005995110320190000043967POSC1002501        02628088986N+                                                                                                                                                                                                                                    
11002501        SMPOS391853014090320190804201903300305900130803572000000001000000000000000014663000000014361000000000000000000000302000000000000000000014361000000000000PF01031002501        00000000000000000000000000000000000000000000000000000000000000000000000000000000000000000000986 +                                                                                                                  
21002501        39185301400000006121609032019170736522688******2600   0000000439850000000000000000000000000301000000014663080420190000521747POSC1002501        02628088986N+                                                                                                                                                                                                                                    
11002501        SMPOS391853014090320190805201903300305900130803572000000001000000000000000014661000000014361000000000000000000000300000000000000000000014361000000000000PF02031002501        00000000000000000000000000000000000000000000000000000000000000000000000000000000000000000000986 +                                                                                                                  
21002501        39185301400000006121609032019170736522688******2600   0000000439850000000000000000000000000302000000014661080520190000521747POSC1002501        02628088986N+                                                                                                                                                                                                                                    
11002501        SMPOS391853014090320190706201903300305900130803572000000001000000000000000014661000000014361000000000000000000000300000000000000000000014361000000000000PF03031002501        00000000000000000000000000000000000000000000000000000000000000000000000000000000000000000000986 +                                                                                                                  
21002501        39185301400000006121609032019170736522688******2600   0000000439850000000000000000000000000303000000014661070620190000521747POSC1002501        02628088986N+                                                                                                                                                                                                                                    
11002501        SMPOS391852975090320190804201903300305900130803572000000006000000000000000046450000000045591000000000000000000000859000000000000000000045591000000000000PF01011002501        00000000000000000000000000000000000000000000000000000000000000000000000000000000000000000000986 +                                                                                                                  
21002501        39185297500000006122009032019180100514945******4896   0000000184950000000000000000000000000101000000018495080420190000017113POSC1002501        02628088986N+                                                                                                                                                                                                                                    
21002501        39185297500000006124209032019201101544315******0478   0000000024900000000000000000000000000101000000002490080420190000492740POSC1002501        02628088986N+                                                                                                                                                                                                                                    
21002501        39185297500000006124609032019202054536805******3256   0000000074950000000000000000000000000101000000007495080420190000630337POSC1002501        02628088986N+                                                                                                                                                                                                                                    
21002501        39185297500000006124009032019200907523421******3444   0000000044950000000000000000000000000101000000004495080420190000312073POSC1002501        02628088986N+                                                                                                                                                                                                                                    
21002501        39185297500000006122409032019182442536805******8713   0000000039900000000000000000000000000101000000003990080420190000665798POSC1002501        02628088986N+                                                                                                                                                                                                                                    
21002501        39185297500000006124409032019201316544731******1266   0000000094850000000000000000000000000101000000009485080420190000152367POSC1002501        02628088986N+                                                                                                                                                                                                                                    
11002501        SMPOS391852949090320190804201903300305900130803572000000002000000000000000019485000000019125000000000000000000000360000000000000000000019125000000000000PF01011002501        00000000000000000000000000000000000000000000000000000000000000000000000000000000000000000000986 +                                                                                                                  
21002501        39185294900000006121209032019165453535583******8085   0000000029950000000000000000000000000101000000002995080420190000722085POSC1002501        02628088986E+                                                                                                                                                                                                                                    
21002501        39185294900000006121009032019164022535583******0651   0000000164900000000000000000000000000101000000016490080420190000720416POSC1002501        02628088986E+                                                                                                                                                                                                                                    
11002501        SEPOS391327777090320191103201903300305900130803572000000001000000000000000004495000000004443000000000000000000000052000000000000000000004443000000000000PF01011002501        00000000000000000000000000000000000000000000000000000000000000000000000000000000000000000000986 +                                                                                                                  
21002501        39132777700000006117409032019114836473200******4204   0000000044950000000000000000000000000101000000004495110320190000137308POSC1002501        02628088986N+                                                                                                                                                                                                                                    
11002501        SVPOS391253296090320190804201903300305900130803572000000002000000000000000015152000000014840000000000000000000000312000000000000000000014840000000000000PF01031002501        00000000000000000000000000000000000000000000000000000000000000000000000000000000000000000000986 +                                                                                                                  
21002501        39125329600000006120209032019153958498442******6068   0000000184900000000000000000000000000301000000006164080420190000698077POSC1002501        02628088986N+                                                                                                                                                                                                                                    
21002501        39125329600000006119209032019144425453211******7695   0000000269600000000000000000000000000301000000008988080420190000663344POSC1002501        02628088986N+                                                                                                                                                                                                                                    
11002501        SVPOS391253296090320190805201903300305900130803572000000002000000000000000015149000000014839000000000000000000000310000000000000000000014839000000000000PF02031002501        00000000000000000000000000000000000000000000000000000000000000000000000000000000000000000000986 +                                                                                                                  
21002501        39125329600000006119209032019144425453211******7695   0000000269600000000000000000000000000302000000008986080520190000663344POSC1002501        02628088986N+                                                                                                                                                                                                                                    
21002501        39125329600000006120209032019153958498442******6068   0000000184900000000000000000000000000302000000006163080520190000698077POSC1002501        02628088986N+                                                                                                                                                                                                                                    
11002501        SVPOS391253296090320190706201903300305900130803572000000002000000000000000015149000000014839000000000000000000000310000000000000000000014839000000000000PF03031002501        00000000000000000000000000000000000000000000000000000000000000000000000000000000000000000000986 +                                                                                                                  
21002501        39125329600000006119209032019144425453211******7695   0000000269600000000000000000000000000303000000008986070620190000663344POSC1002501        02628088986N+                                                                                                                                                                                                                                    
21002501        39125329600000006120209032019153958498442******6068   0000000184900000000000000000000000000303000000006163070620190000698077POSC1002501        02628088986N+                                                                                                                                                                                                                                    
11002501        SVPOS391253156090320190804201903300305900130803572000000004000000000000000047445000000046568000000000000000000000877000000000000000000046568000000000000PF01011002501        00000000000000000000000000000000000000000000000000000000000000000000000000000000000000000000986 +                                                                                                                  
21002501        39125315600000006118209032019135916498406******5049   0000000124850000000000000000000000000101000000012485080420190000005341POSC1002501        02628088986N+                                                                                                                                                                                                                                    
21002501        39125315600000006119009032019141802485464******0895   0000000069900000000000000000000000000101000000006990080420190000063074POSC1002501        02628088986N+                                                                                                                                                                                                                                    
21002501        39125315600000006118009032019134300453211******0548   0000000049800000000000000000000000000101000000004980080420190000650595POSC1002501        02628088986N+                                                                                                                                                                                                                                    
21002501        39125315600000006117609032019131307498453******5967   0000000229900000000000000000000000000101000000022990080420190000049519POSC1002501        02628088986N+                                                                                                                                                                                                                                    
11002501        SRPOS391164895090320191103201903300305900130803572000000006000000000000000076425000000075547000000000000000000000878000000000000000000075547000000000000PF01011002501        00000000000000000000000000000000000000000000000000000000000000000000000000000000000000000000986 +                                                                                                                  
21002501        39116489500000006118809032019141616502121******1480   0000000194750000000000000000000000000101000000019475110320190000182351POSC1002501        02628088986N+                                                                                                                                                                                                                                    
21002501        39116489500000006120409032019154713603689*********34020000000119850000000000000000000000000101000000011985110320190000010519POSC1002501        02628088986N+                                                                                                                                                                                                                                    
21002501        39116489500000006117809032019131554603689*********53360000000020000000000000000000000000000101000000002000110320190000933570POSC1002501        02628088986N+                                                                                                                                                                                                                                    
21002501        39116489500000006119609032019151219502121******8647   0000000189850000000000000000000000000101000000018985110320190000142459POSC1002501        02628088986N+                                                                                                                                                                                                                                    
21002501        39116489500000006119409032019150858511781******2024   0000000149950000000000000000000000000101000000014995110320190000171778POSC1002501        02628088986N+                                                                                                                                                                                                                                    
21002501        39116489500000006119809032019152503514945******2358   0000000089850000000000000000000000000101000000008985110320190000535362POSC1002501        02628088986N+                                                                                                                                                                                                                                    
11002501        SMPOS391110129090320190804201903300305900130803572000000003000000000000000041965000000041188000000000000000000000777000000000000000000041188000000000000PF01011002501        00000000000000000000000000000000000000000000000000000000000000000000000000000000000000000000986 +                                                                                                                  
21002501        39111012900000006120009032019152645544540******8214   0000000134950000000000000000000000000101000000013495080420190000017742POSC1002501        02628088986N+                                                                                                                                                                                                                                    
21002501        39111012900000006118409032019140708552289******6023   0000000204850000000000000000000000000101000000020485080420190000066037POSC1002501        02628088986N+                                                                                                                                                                                                                                    
21002501        39111012900000006118609032019141127548724******3370   0000000079850000000000000000000000000101000000007985080420190000032409POSC1002501        02628088986N+                                                                                                                                                                                                                                    
11002501        SEPOS390904970090320191103201903300305900130803572000000001000000000000000014490000000014323000000000000000000000167000000000000000000014323000000000000PF01011002501        00000000000000000000000000000000000000000000000000000000000000000000000000000000000000000000986 +                                                                                                                  
21002501        39090497000000006117009032019113334498453******1165   0000000144900000000000000000000000000101000000014490110320190000641739POSC1002501        02628088986N+                                                                                                                                                                                                                                    
11002501        SVPOS390795991090320190804201903300305900130803572000000001000000000000000006495000000006375000000000000000000000120000000000000000000006375000000000000PF01011002501        00000000000000000000000000000000000000000000000000000000000000000000000000000000000000000000986 +                                                                                                                  
21002501        39079599100000006117209032019114350498423******0675   0000000064950000000000000000000000000101000000006495080420190000889152POSC1002501        02628088986N+                                                                                                                                                                                                                                    
11002501        SRPOS390608452090320191103201903300305900130803572000000001000000000000000002490000000002461000000000000000000000029000000000000000000002461000000000000PF01011002501        00000000000000000000000000000000000000000000000000000000000000000000000000000000000000000000986 +                                                                                                                  
21002501        39060845200000006116609032019105707544540******5852   0000000024900000000000000000000000000101000000002490110320190000196909POSC1002501        02628088986N+                                                                                                                                                                                                                                    
11002502        HCPOS392254255090320190804201903300305900130803572000000001000000000000000009535000000009292000000000000000000000243000000000000000000009292000000000000PF01021002502        00000000000000000000000000000000000000000000000000000000000000000000000000000000000000000000986 +                                                                                                                  
21002502        39225425500000004892409032019180808606282******1157   0000000190700000000000000000000000000201000000009535080420190000044636POSC1002502        02628069986N+                                                                                                                                                                                                                                    
11002502        HCPOS392254255090320190805201903300305900130803572000000001000000000000000009535000000009292000000000000000000000243000000000000000000009292000000000000PF02021002502        00000000000000000000000000000000000000000000000000000000000000000000000000000000000000000000986 +                                                                                                                  
21002502        39225425500000004892409032019180808606282******1157   0000000190700000000000000000000000000202000000009535080520190000044636POSC1002502        02628069986N+                                                                                                                                                                                                                                    
11002502        EDPOS392212821090320191103201903300305900130803572000000003000000000000000044985000000044468000000000000000000000517000000000000000000044468000000000000PF01011002502        00000000000000000000000000000000000000000000000000000000000000000000000000000000000000000000986 +                                                                                                                  
21002502        39221282100000004893209032019185007650492******3103   0000000179950000000000000000000000000101000000017995110320190000141899POSC1002502        02628069986N+                                                                                                                                                                                                                                    
21002502        39221282100000004891809032019165813650491******2103   0000000139950000000000000000000000000101000000013995110320190000140733POSC1002502        02628069986N+                                                                                                                                                                                                                                    
21002502        39221282100000004893009032019183454627780******0723   0000000129950000000000000000000000000101000000012995110320190000671319POSC1002502        02628069986N+                                                                                                                                                                                                                                    
11002502        SEPOS392125282090320191103201903300305900130803572000000002000000000000000007985000000007893000000000000000000000092000000000000000000007893000000000000PF01011002502        00000000000000000000000000000000000000000000000000000000000000000000000000000000000000000000986 +                                                                                                                  
21002502        39212528200000004894009032019200518423808******2059   0000000039900000000000000000000000000101000000003990110320190000053369POSC1002502        02628069986N+                                                                                                                                                                                                                                    
21002502        39212528200000004892009032019172644498453******0089   0000000039950000000000000000000000000101000000003995110320190000662821POSC1002502        02628069986N+                                                                                                                                                                                                                                    
11002502        SRPOS391902563090320191103201903300305900130803572000000002000000000000000021475000000021228000000000000000000000247000000000000000000021228000000000000PF01011002502        00000000000000000000000000000000000000000000000000000000000000000000000000000000000000000000986 +                                                                                                                  
21002502        39190256300000004892809032019183305589916******4470   0000000134850000000000000000000000000101000000013485110320190000720072POSC1002502        02628069986N+                                                                                                                                                                                                                                    
21002502        39190256300000004892209032019174941523284******9667   0000000079900000000000000000000000000101000000007990110320190000679096POSC1002502        02628069986N+                                                                                                                                                                                                                                    
11002502        SMPOS391853056090320190804201903300305900130803572000000001000000000000000007158000000007010000000000000000000000148000000000000000000007010000000000000PF01031002502        00000000000000000000000000000000000000000000000000000000000000000000000000000000000000000000986 +                                                                                                                  
21002502        39185305600000004893609032019192956530780******0760   0000000214700000000000000000000000000301000000007158080420190000088194POSC1002502        02628069986N+                                                                                                                                                                                                                                    
11002502        SMPOS391853056090320190805201903300305900130803572000000001000000000000000007156000000007010000000000000000000000146000000000000000000007010000000000000PF02031002502        00000000000000000000000000000000000000000000000000000000000000000000000000000000000000000000986 +                                                                                                                  
21002502        39185305600000004893609032019192956530780******0760   0000000214700000000000000000000000000302000000007156080520190000088194POSC1002502        02628069986N+                                                                                                                                                                                                                                    
11002502        SMPOS391853056090320190706201903300305900130803572000000001000000000000000007156000000007010000000000000000000000146000000000000000000007010000000000000PF03031002502        00000000000000000000000000000000000000000000000000000000000000000000000000000000000000000000986 +                                                                                                                  
21002502        39185305600000004893609032019192956530780******0760   0000000214700000000000000000000000000303000000007156070620190000088194POSC1002502        02628069986N+                                                                                                                                                                                                                                    
11002502        SMPOS391853035090320190804201903300305900130803572000000002000000000000000012236000000011985000000000000000000000251000000000000000000011985000000000000PF01021002502        00000000000000000000000000000000000000000000000000000000000000000000000000000000000000000000986 +                                                                                                                  
21002502        39185303500000004893809032019193831515601******4103   0000000129850000000000000000000000000201000000006493080420190000280615POSC1002502        02628069986N+                                                                                                                                                                                                                                    
21002502        39185303500000004892609032019181416544315******3364   0000000114850000000000000000000000000201000000005743080420190000402073POSC1002502        02628069986N+                                                                                                                                                                                                                                    
11002502        SMPOS391853035090320190805201903300305900130803572000000002000000000000000012234000000011984000000000000000000000250000000000000000000011984000000000000PF02021002502        00000000000000000000000000000000000000000000000000000000000000000000000000000000000000000000986 +                                                                                                                  
21002502        39185303500000004893809032019193831515601******4103   0000000129850000000000000000000000000202000000006492080520190000280615POSC1002502        02628069986N+                                                                                                                                                                                                                                    
21002502        39185303500000004892609032019181416544315******3364   0000000114850000000000000000000000000202000000005742080520190000402073POSC1002502        02628069986N+                                                                                                                                                                                                                                    
11002502        SMPOS391853027090320190804201903300305900130803572000000001000000000000000004995000000004903000000000000000000000092000000000000000000004903000000000000PF01011002502        00000000000000000000000000000000000000000000000000000000000000000000000000000000000000000000986 +                                                                                                                  
21002502        39185302700000004893409032019190458542820******0406   0000000049950000000000000000000000000101000000004995080420190000051760POSC1002502        02628069986N+                                                                                                                                                                                                                                    
11002502        EDPOS391422096090320191103201903300305900130803572000000001000000000000000011990000000011852000000000000000000000138000000000000000000011852000000000000PF01011002502        00000000000000000000000000000000000000000000000000000000000000000000000000000000000000000000986 +                                                                                                                  
21002502        39142209600000004890209032019143640650491******2109   0000000119900000000000000000000000000101000000011990110320190000138457POSC1002502        02628069986N+                                                                                                                                                                                                                                    
11002502        SEPOS391327793090320191103201903300305900130803572000000003000000000000000019465000000019241000000000000000000000224000000000000000000019241000000000000PF01011002502        00000000000000000000000000000000000000000000000000000000000000000000000000000000000000000000986 +                                                                                                                  
21002502        39132779300000004891009032019152135498453******8874   0000000034950000000000000000000000000101000000003495110320190000655314POSC1002502        02628069986N+                                                                                                                                                                                                                                    
21002502        39132779300000004890809032019151532498453******9546   0000000119750000000000000000000000000101000000011975110320190000654949POSC1002502        02628069986N+                                                                                                                                                                                                                                    
21002502        39132779300000004891609032019154101476608******0132   0000000039950000000000000000000000000101000000003995110320190000139475POSC1002502        02628069986N+                                                                                                                                                                                                                                    
11002502        SVPOS391253335090320190804201903300305900130803572000000002000000000000000011490000000011277000000000000000000000213000000000000000000011277000000000000PF01011002502        00000000000000000000000000000000000000000000000000000000000000000000000000000000000000000000986 +                                                                                                                  
21002502        39125333500000004891209032019152200498453******8874   0000000039950000000000000000000000000101000000003995080420190000643204POSC1002502        02628069986N+                                                                                                                                                                                                                                    
21002502        39125333500000004891409032019152631422061******4519   0000000074950000000000000000000000000101000000007495080420190000264965POSC1002502        02628069986N+                                                                                                                                                                                                                                    
11002502        SRPOS391164973090320191103201903300305900130803572000000001000000000000000013990000000013829000000000000000000000161000000000000000000013829000000000000PF01011002502        00000000000000000000000000000000000000000000000000000000000000000000000000000000000000000000986 +                                                                                                                  
21002502        39116497300000004890609032019144001523284******1895   0000000139900000000000000000000000000101000000013990110320190000478408POSC1002502        02628069986N+                                                                                                                                                                                                                                    
11002503        SEPOS392505907090320191103201903300305900130803572000000001000000000000000050935000000050349000000000000000000000586000000000000000000050349000000000000PF01011002503        00000000000000000000000000000000000000000000000000000000000000000000000000000000000000000000986 +                                                                                                                  
21002503        39250590700000006210009032019210846498407******1239   0000000509350000000000000000000000000101000000050935110320190000776148POSC1002503        02628082986N+                                                                                                                                                                                                                                    
11002503        SVTEF392497392090320190804201903300305900130803572000000002000000000000000014980000000014703000000000000000000000277000000000000000000014703000000000000PF01011002503        00000000000000000000000000000000000000000000000000000000000000000000000000000000000000000000986 +                                                                                                                  
21002503        39249739200000002813809032019215816498408******3480   0000000064950000000000000000000000000101000000006495080420190000646561TEFC1002503        03775744986N+                                                                                                                                                                                                                                    
21002503        39249739200000002813609032019211818470598******8469   0000000084850000000000000000000000000101000000008485080420190000084902TEFC1002503        03775744986N+                                                                                                                                                                                                                                    
11002503        SRTEF392482937090320191103201903300305900130803572000000001000000000000000030975000000030619000000000000000000000356000000000000000000030619000000000000PF01011002503        00000000000000000000000000000000000000000000000000000000000000000000000000000000000000000000986 +                                                                                                                  
21002503        39248293700000002813409032019205842523284******9774   0000000309750000000000000000000000000101000000030975110320190000852624TEFC1002503        03775744986N+                                                                                                                                                                                                                                    
11002503        EDTEF392212940090320191103201903300305900130803572000000001000000000000000016975000000016780000000000000000000000195000000000000000000016780000000000000PF01011002503        00000000000000000000000000000000000000000000000000000000000000000000000000000000000000000000986 +                                                                                                                  
21002503        39221294000000002812209032019200823506775******5442   0000000169750000000000000000000000000101000000016975110320190000161341TEFC1002503        03775744986N+                                                                                                                                                                                                                                    
11002503        EDPOS392212898090320191103201903300305900130803572000000001000000000000000005990000000005921000000000000000000000069000000000000000000005921000000000000PF01011002503        00000000000000000000000000000000000000000000000000000000000000000000000000000000000000000000986 +                                                                                                                  
21002503        39221289800000006205809032019161053627780******7657   0000000059900000000000000000000000000101000000005990110320190000104266POSC1002503        02628082986N+                                                                                                                                                                                                                                    
11002503        ECPOS392178074090320190804201903300305900130803572000000001000000000000000004833000000004734000000000000000000000099000000000000000000004734000000000000PF01031002503        00000000000000000000000000000000000000000000000000000000000000000000000000000000000000000000986 +                                                                                                                  
21002503        39217807400000006208009032019170930651652******9957   0000000144950000000000000000000000000301000000004833080420190000695673POSC1002503        02628082986N+                                                                                                                                                                                                                                    
11002503        ECPOS392178074090320190805201903300305900130803572000000001000000000000000004831000000004732000000000000000000000099000000000000000000004732000000000000PF02031002503        00000000000000000000000000000000000000000000000000000000000000000000000000000000000000000000986 +                                                                                                                  
21002503        39217807400000006208009032019170930651652******9957   0000000144950000000000000000000000000302000000004831080520190000695673POSC1002503        02628082986N+                                                                                                                                                                                                                                    
11002503        ECPOS392178074090320190706201903300305900130803572000000001000000000000000004831000000004732000000000000000000000099000000000000000000004732000000000000PF03031002503        00000000000000000000000000000000000000000000000000000000000000000000000000000000000000000000986 +                                                                                                                  
21002503        39217807400000006208009032019170930651652******9957   0000000144950000000000000000000000000303000000004831070620190000695673POSC1002503        02628082986N+                                                                                                                                                                                                                                    
11002503        SETEF392125422090320191103201903300305900130803572000000004000000000000000037970000000037533000000000000000000000437000000000000000000037533000000000000PF01011002503        00000000000000000000000000000000000000000000000000000000000000000000000000000000000000000000986 +                                                                                                                  
21002503        39212542200000002810609032019190823439267******7645   0000000124950000000000000000000000000101000000012495110320190000244345TEFC1002503        03775744986N+                                                                                                                                                                                                                                    
21002503        39212542200000002811209032019191708498423******0524   0000000144950000000000000000000000000101000000014495110320190000169453TEFC1002503        03775744986N+                                                                                                                                                                                                                                    
21002503        39212542200000002812009032019200629498453******9309   0000000069900000000000000000000000000101000000006990110320190000172411TEFC1002503        03775744986N+                                                                                                                                                                                                                                    
21002503        39212542200000002811809032019200018498401******0723   0000000039900000000000000000000000000101000000003990110320190000172041TEFC1002503        03775744986N+                                                                                                                                                                                                                                    
11002503        SEPOS392125361090320191103201903300305900130803572000000004000000000000000060445000000059750000000000000000000000695000000000000000000059750000000000000PF01011002503        00000000000000000000000000000000000000000000000000000000000000000000000000000000000000000000986 +                                                                                                                  
21002503        39212536100000006206209032019161852498442******0148   0000000219750000000000000000000000000101000000021975110320190000358755POSC1002503        02628082986N+                                                                                                                                                                                                                                    
21002503        39212536100000006206809032019163322498442******0148   0000000149850000000000000000000000000101000000014985110320190000659623POSC1002503        02628082986N+                                                                                                                                                                                                                                    
21002503        39212536100000006208809032019182053498423******9198   0000000114900000000000000000000000000101000000011490110320190000666074POSC1002503        02628082986N+                                                                                                                                                                                                                                    
21002503        39212536100000006205409032019155243498453******8090   0000000119950000000000000000000000000101000000011995110320190000257183POSC1002503        02628082986N+                                                                                                                                                                                                                                    
11002503        SEPOS392125347090320191103201903300305900130803572000000001000000000000000028990000000028657000000000000000000000333000000000000000000028657000000000000PF01011002503        00000000000000000000000000000000000000000000000000000000000000000000000000000000000000000000986 +                                                                                                                  
21002503        39212534700000006206009032019161628480625******3413   0000000289900000000000000000000000000101000000028990110320190000158613POSC1002503        02628082986N+                                                                                                                                                                                                                                    
11002503        SVTEF392028110090320190804201903300305900130803572000000001000000000000000014395000000014100000000000000000000000295000000000000000000014100000000000000PF01061002503        00000000000000000000000000000000000000000000000000000000000000000000000000000000000000000000986 +                                                                                                                  
21002503        39202811000000002813209032019203609412177******3158   0000000863550000000000000000000000000601000000014395080420190000094702TEFC1002503        03775744986N+                                                                                                                                                                                                                                    
11002503        SVTEF392028110090320190805201903300305900130803572000000001000000000000000014392000000014097000000000000000000000295000000000000000000014097000000000000PF02061002503        00000000000000000000000000000000000000000000000000000000000000000000000000000000000000000000986 +                                                                                                                  
21002503        39202811000000002813209032019203609412177******3158   0000000863550000000000000000000000000602000000014392080520190000094702TEFC1002503        03775744986N+                                                                                                                                                                                                                                    
11002503        SVTEF392028110090320190706201903300305900130803572000000001000000000000000014392000000014097000000000000000000000295000000000000000000014097000000000000PF03061002503        00000000000000000000000000000000000000000000000000000000000000000000000000000000000000000000986 +                                                                                                                  
21002503        39202811000000002813209032019203609412177******3158   0000000863550000000000000000000000000603000000014392070620190000094702TEFC1002503        03775744986N+                                                                                                                                                                                                                                    
11002503        SVTEF392028110090320190807201903300305900130803572000000001000000000000000014392000000014097000000000000000000000295000000000000000000014097000000000000PF04061002503        00000000000000000000000000000000000000000000000000000000000000000000000000000000000000000000986 +                                                                                                                  
21002503        39202811000000002813209032019203609412177******3158   0000000863550000000000000000000000000604000000014392080720190000094702TEFC1002503        03775744986N+                                                                                                                                                                                                                                    
11002503        SVTEF392028110090320190608201903300305900130803572000000001000000000000000014392000000014097000000000000000000000295000000000000000000014097000000000000PF05061002503        00000000000000000000000000000000000000000000000000000000000000000000000000000000000000000000986 +                                                                                                                  
21002503        39202811000000002813209032019203609412177******3158   0000000863550000000000000000000000000605000000014392060820190000094702TEFC1002503        03775744986N+                                                                                                                                                                                                                                    
11002503        SVTEF392028110090320190509201903300305900130803572000000001000000000000000014392000000014097000000000000000000000295000000000000000000014097000000000000PF06061002503        00000000000000000000000000000000000000000000000000000000000000000000000000000000000000000000986 +                                                                                                                  
21002503        39202811000000002813209032019203609412177******3158   0000000863550000000000000000000000000606000000014392050920190000094702TEFC1002503        03775744986N+                                                                                                                                                                                                                                    
11002503        SVTEF392028096090320190804201903300305900130803572000000001000000000000000010121000000009912000000000000000000000209000000000000000000009912000000000000PF01041002503        00000000000000000000000000000000000000000000000000000000000000000000000000000000000000000000986 +                                                                                                                  
21002503        39202809600000002809809032019183947498401******8053   0000000404750000000000000000000000000401000000010121080420190000082540TEFC1002503        03775744986N+                                                                                                                                                                                                                                    
11002503        SVTEF392028096090320190805201903300305900130803572000000001000000000000000010118000000009911000000000000000000000207000000000000000000009911000000000000PF02041002503        00000000000000000000000000000000000000000000000000000000000000000000000000000000000000000000986 +                                                                                                                  
21002503        39202809600000002809809032019183947498401******8053   0000000404750000000000000000000000000402000000010118080520190000082540TEFC1002503        03775744986N+                                                                                                                                                                                                                                    
11002503        SVTEF392028096090320190706201903300305900130803572000000001000000000000000010118000000009911000000000000000000000207000000000000000000009911000000000000PF03041002503        00000000000000000000000000000000000000000000000000000000000000000000000000000000000000000000986 +                                                                                                                  
21002503        39202809600000002809809032019183947498401******8053   0000000404750000000000000000000000000403000000010118070620190000082540TEFC1002503        03775744986N+                                                                                                                                                                                                                                    
11002503        SVTEF392028096090320190807201903300305900130803572000000001000000000000000010118000000009911000000000000000000000207000000000000000000009911000000000000PF04041002503        00000000000000000000000000000000000000000000000000000000000000000000000000000000000000000000986 +                                                                                                                  
21002503        39202809600000002809809032019183947498401******8053   0000000404750000000000000000000000000404000000010118080720190000082540TEFC1002503        03775744986N+                                                                                                                                                                                                                                    
11002503        SVPOS392028061090320190804201903300305900130803572000000001000000000000000004833000000004734000000000000000000000099000000000000000000004734000000000000PF01031002503        00000000000000000000000000000000000000000000000000000000000000000000000000000000000000000000986 +                                                                                                                  
21002503        39202806100000006209609032019195715498453******6384   0000000144950000000000000000000000000301000000004833080420190000084956POSC1002503        02628082986N+                                                                                                                                                                                                                                    
11002503        SVPOS392028061090320190805201903300305900130803572000000001000000000000000004831000000004732000000000000000000000099000000000000000000004732000000000000PF02031002503        00000000000000000000000000000000000000000000000000000000000000000000000000000000000000000000986 +                                                                                                                  
21002503        39202806100000006209609032019195715498453******6384   0000000144950000000000000000000000000302000000004831080520190000084956POSC1002503        02628082986N+                                                                                                                                                                                                                                    
11002503        SVPOS392028061090320190706201903300305900130803572000000001000000000000000004831000000004732000000000000000000000099000000000000000000004732000000000000PF03031002503        00000000000000000000000000000000000000000000000000000000000000000000000000000000000000000000986 +                                                                                                                  
21002503        39202806100000006209609032019195715498453******6384   0000000144950000000000000000000000000303000000004831070620190000084956POSC1002503        02628082986N+                                                                                                                                                                                                                                    
11002503        SVTEF392028085090320190804201903300305900130803572000000001000000000000000009490000000009295000000000000000000000195000000000000000000009295000000000000PF01021002503        00000000000000000000000000000000000000000000000000000000000000000000000000000000000000000000986 +                                                                                                                  
21002503        39202808500000002811409032019191748455183******4936   0000000189800000000000000000000000000201000000009490080420190000681802TEFC1002503        03775744986N+                                                                                                                                                                                                                                    
11002503        SVTEF392028085090320190805201903300305900130803572000000001000000000000000009490000000009296000000000000000000000194000000000000000000009296000000000000PF02021002503        00000000000000000000000000000000000000000000000000000000000000000000000000000000000000000000986 +                                                                                                                  
21002503        39202808500000002811409032019191748455183******4936   0000000189800000000000000000000000000202000000009490080520190000681802TEFC1002503        03775744986N+                                                                                                                                                                                                                                    
11002503        SVTEF392028075090320190804201903300305900130803572000000001000000000000000008480000000008323000000000000000000000157000000000000000000008323000000000000PF01011002503        00000000000000000000000000000000000000000000000000000000000000000000000000000000000000000000986 +                                                                                                                  
21002503        39202807500000002812809032019203035498406******2725   0000000084800000000000000000000000000101000000008480080420190000066189TEFC1002503        03775744986N+                                                                                                                                                                                                                                    
11002503        SVPOS392028035090320190804201903300305900130803572000000003000000000000000021965000000021559000000000000000000000406000000000000000000021559000000000000PF01011002503        00000000000000000000000000000000000000000000000000000000000000000000000000000000000000000000986 +                                                                                                                  
21002503        39202803500000006207809032019170016421960******3134   0000000044950000000000000000000000000101000000004495080420190000611457POSC1002503        02628082986N+                                                                                                                                                                                                                                    
21002503        39202803500000006207609032019165819421960******3134   0000000104800000000000000000000000000101000000010480080420190000891600POSC1002503        02628082986N+                                                                                                                                                                                                                                    
21002503        39202803500000006207209032019163947476331******2114   0000000069900000000000000000000000000101000000006990080420190000040189POSC1002503        02628082986N+                                                                                                                                                                                                                                    
11002503        SRTEF391902607090320191103201903300305900130803572000000001000000000000000011980000000011842000000000000000000000138000000000000000000011842000000000000PF01011002503        00000000000000000000000000000000000000000000000000000000000000000000000000000000000000000000986 +                                                                                                                  
21002503        39190260700000002813009032019203224554906******3476   0000000119800000000000000000000000000101000000011980110320190000082639TEFC1002503        03775744986N+                                                                                                                                                                                                                                    
11002503        SRPOS391902579090320191103201903300305900130803572000000004000000000000000049950000000049375000000000000000000000575000000000000000000049375000000000000PF01011002503        00000000000000000000000000000000000000000000000000000000000000000000000000000000000000000000986 +                                                                                                                  
21002503        39190257900000006205609032019160121554906******2009   0000000039950000000000000000000000000101000000003995110320190000770698POSC1002503        02628082986N+                                                                                                                                                                                                                                    
21002503        39190257900000006207009032019163652515590******8746   0000000059900000000000000000000000000101000000005990110320190000371276POSC1002503        02628082986N+                                                                                                                                                                                                                                    
21002503        39190257900000006206409032019162432515601******8719   0000000294750000000000000000000000000101000000029475110320190000302318POSC1002503        02628082986N+                                                                                                                                                                                                                                    
21002503        39190257900000006207409032019164715515590******6272   0000000104900000000000000000000000000101000000010490110320190000473868POSC1002503        02628082986N+                                                                                                                                                                                                                                    
11002503        SMTEF391853149090320190804201903300305900130803572000000001000000000000000012329000000012075000000000000000000000254000000000000000000012075000000000000PF01031002503        00000000000000000000000000000000000000000000000000000000000000000000000000000000000000000000986 +                                                                                                                  
21002503        39185314900000002809409032019170114515894******7914   0000000369850000000000000000000000000301000000012329080420190000176434TEFC1002503        03775744986N+                                                                                                                                                                                                                                    
11002503        SMTEF391853149090320190805201903300305900130803572000000001000000000000000012328000000012076000000000000000000000252000000000000000000012076000000000000PF02031002503        00000000000000000000000000000000000000000000000000000000000000000000000000000000000000000000986 +                                                                                                                  
21002503        39185314900000002809409032019170114515894******7914   0000000369850000000000000000000000000302000000012328080520190000176434TEFC1002503        03775744986N+                                                                                                                                                                                                                                    
11002503        SMTEF391853149090320190706201903300305900130803572000000001000000000000000012328000000012076000000000000000000000252000000000000000000012076000000000000PF03031002503        00000000000000000000000000000000000000000000000000000000000000000000000000000000000000000000986 +                                                                                                                  
21002503        39185314900000002809409032019170114515894******7914   0000000369850000000000000000000000000303000000012328070620190000176434TEFC1002503        03775744986N+                                                                                                                                                                                                                                    
11002503        SMPOS391853110090320190804201903300305900130803572000000001000000000000000005998000000005875000000000000000000000123000000000000000000005875000000000000PF01031002503        00000000000000000000000000000000000000000000000000000000000000000000000000000000000000000000986 +                                                                                                                  
21002503        39185311000000006209809032019202402546479******0319   0000000179900000000000000000000000000301000000005998080420190000029902POSC1002503        02628082986N+                                                                                                                                                                                                                                    
11002503        SMPOS391853110090320190805201903300305900130803572000000001000000000000000005996000000005873000000000000000000000123000000000000000000005873000000000000PF02031002503        00000000000000000000000000000000000000000000000000000000000000000000000000000000000000000000986 +                                                                                                                  
21002503        39185311000000006209809032019202402546479******0319   0000000179900000000000000000000000000302000000005996080520190000029902POSC1002503        02628082986N+                                                                                                                                                                                                                                    
11002503        SMPOS391853110090320190706201903300305900130803572000000001000000000000000005996000000005873000000000000000000000123000000000000000000005873000000000000PF03031002503        00000000000000000000000000000000000000000000000000000000000000000000000000000000000000000000986 +                                                                                                                  
21002503        39185311000000006209809032019202402546479******0319   0000000179900000000000000000000000000303000000005996070620190000029902POSC1002503        02628082986N+                                                                                                                                                                                                                                    
11002503        SMTEF391853134090320190804201903300305900130803572000000001000000000000000008983000000008799000000000000000000000184000000000000000000008799000000000000PF01021002503        00000000000000000000000000000000000000000000000000000000000000000000000000000000000000000000986 +                                                                                                                  
21002503        39185313400000002812409032019201257554463******9116   0000000179650000000000000000000000000201000000008983080420190000R08642TEFC1002503        03775744986N+                                                                                                                                                                                                                                    
11002503        SMTEF391853134090320190805201903300305900130803572000000001000000000000000008982000000008798000000000000000000000184000000000000000000008798000000000000PF02021002503        00000000000000000000000000000000000000000000000000000000000000000000000000000000000000000000986 +                                                                                                                  
21002503        39185313400000002812409032019201257554463******9116   0000000179650000000000000000000000000202000000008982080520190000R08642TEFC1002503        03775744986N+                                                                                                                                                                                                                                    
11002503        SMTEF391853118090320190804201903300305900130803572000000002000000000000000025485000000025014000000000000000000000471000000000000000000025014000000000000PF01011002503        00000000000000000000000000000000000000000000000000000000000000000000000000000000000000000000986 +                                                                                                                  
21002503        39185311800000002812609032019202740515601******6606   0000000129900000000000000000000000000101000000012990080420190000312064TEFC1002503        03775744986N+                                                                                                                                                                                                                                    
21002503        39185311800000002811609032019193352523421******6331   0000000124950000000000000000000000000101000000012495080420190000644627TEFC1002503        03775744986N+                                                                                                                                                                                                                                    
11002503        SMPOS391853068090320190804201903300305900130803572000000007000000000000000058465000000057383000000000000000000001082000000000000000000057383000000000000PF01011002503        00000000000000000000000000000000000000000000000000000000000000000000000000000000000000000000986 +                                                                                                                  
21002503        39185306800000006208409032019180422552289******2369   0000000184950000000000000000000000000101000000018495080420190000036157POSC1002503        02628082986N+                                                                                                                                                                                                                                    
21002503        39185306800000006206609032019163032516220******9827   0000000035000000000000000000000000000101000000003500080420190000884150POSC1002503        02628082986N+                                                                                                                                                                                                                                    
21002503        39185306800000006208609032019181826531681******7685   0000000049950000000000000000000000000101000000004995080420190000073656POSC1002503        02628082986N+                                                                                                                                                                                                                                    
21002503        39185306800000006208209032019175356552289******0066   0000000099950000000000000000000000000101000000009995080420190000028960POSC1002503        02628082986N+                                                                                                                                                                                                                                    
21002503        39185306800000006209409032019193709522688******2510   0000000079900000000000000000000000000101000000007990080420190000613830POSC1002503        02628082986N+                                                                                                                                                                                                                                    
21002503        39185306800000006209209032019193608515894******9508   0000000074950000000000000000000000000101000000007495080420190000279221POSC1002503        02628082986N+                                                                                                                                                                                                                                    
21002503        39185306800000006209009032019191918558763******8202   0000000059950000000000000000000000000101000000005995080420190000186993POSC1002503        02628082986N+                                                                                                                                                                                                                                    
11002503        EDPOS391422110090320191103201903300305900130803572000000002000000000000000016475000000016285000000000000000000000190000000000000000000016285000000000000PF01011002503        00000000000000000000000000000000000000000000000000000000000000000000000000000000000000000000986 +                                                                                                                  
21002503        39142211000000006205209032019152838506722******7034   0000000044950000000000000000000000000101000000004495110320190000340134POSC1002503        02628082986N+                                                                                                                                                                                                                                    
21002503        39142211000000006203809032019130059627780******5058   0000000119800000000000000000000000000101000000011980110320190000331275POSC1002503        02628082986N+                                                                                                                                                                                                                                    
11002503        SEPOS391327869090320191103201903300305900130803572000000002000000000000000016985000000016790000000000000000000000195000000000000000000016790000000000000PF01011002503        00000000000000000000000000000000000000000000000000000000000000000000000000000000000000000000986 +                                                                                                                  
21002503        39132786900000006204809032019141230439267******8981   0000000109950000000000000000000000000101000000010995110320190000914230POSC1002503        02628082986N+                                                                                                                                                                                                                                    
21002503        39132786900000006203609032019125658498453******3395   0000000059900000000000000000000000000101000000005990110320190000146642POSC1002503        02628082986N+                                                                                                                                                                                                                                    
11002503        SVPOS391253523090320190804201903300305900130803572000000001000000000000000005745000000005627000000000000000000000118000000000000000000005627000000000000PF01021002503        00000000000000000000000000000000000000000000000000000000000000000000000000000000000000000000986 +                                                                                                                  
21002503        39125352300000006202809032019120539410863******5624   0000000114900000000000000000000000000201000000005745080420190000060275POSC1002503        02628082986N+                                                                                                                                                                                                                                    
11002503        SVPOS391253523090320190805201903300305900130803572000000001000000000000000005745000000005627000000000000000000000118000000000000000000005627000000000000PF02021002503        00000000000000000000000000000000000000000000000000000000000000000000000000000000000000000000986 +                                                                                                                  
21002503        39125352300000006202809032019120539410863******5624   0000000114900000000000000000000000000202000000005745080520190000060275POSC1002503        02628082986N+                                                                                                                                                                                                                                    
11002503        SVPOS391253390090320190804201903300305900130803572000000005000000000000000047955000000047068000000000000000000000887000000000000000000047068000000000000PF01011002503        00000000000000000000000000000000000000000000000000000000000000000000000000000000000000000000986 +                                                                                                                  
21002503        39125339000000006204609032019140712498442******7892   0000000189850000000000000000000000000101000000018985080420190000024526POSC1002503        02628082986N+                                                                                                                                                                                                                                    
21002503        39125339000000006204409032019134940498406******9117   0000000049950000000000000000000000000101000000004995080420190000069223POSC1002503        02628082986N+                                                                                                                                                                                                                                    
21002503        39125339000000006203409032019125459459080******4347   0000000099950000000000000000000000000101000000009995080420190000075710POSC1002503        02628082986N+                                                                                                                                                                                                                                    
21002503        39125339000000006204009032019130741498401******7124   0000000079900000000000000000000000000101000000007990080420190000023543POSC1002503        02628082986N+                                                                                                                                                                                                                                    
21002503        39125339000000006203209032019124700459080******4347   0000000059900000000000000000000000000101000000005990080420190000079761POSC1002503        02628082986N+                                                                                                                                                                                                                                    
11002503        SRPOS391164990090320191103201903300305900130803572000000001000000000000000006990000000006910000000000000000000000080000000000000000000006910000000000000PF01011002503        00000000000000000000000000000000000000000000000000000000000000000000000000000000000000000000986 +                                                                                                                  
21002503        39116499000000006204209032019132348502121******1024   0000000069900000000000000000000000000101000000006990110320190000240832POSC1002503        02628082986N+                                                                                                                                                                                                                                    
11002503        SMPOS391110164090320190804201903300305900130803572000000001000000000000000011245000000011014000000000000000000000231000000000000000000011014000000000000PF01021002503        00000000000000000000000000000000000000000000000000000000000000000000000000000000000000000000986 +                                                                                                                  
21002503        39111016400000006203009032019123930523421******7924   0000000224900000000000000000000000000201000000011245080420190000601165POSC1002503        02628082986N+                                                                                                                                                                                                                                    
11002503        SMPOS391110164090320190805201903300305900130803572000000001000000000000000011245000000011015000000000000000000000230000000000000000000011015000000000000PF02021002503        00000000000000000000000000000000000000000000000000000000000000000000000000000000000000000000986 +                                                                                                                  
21002503        39111016400000006203009032019123930523421******7924   0000000224900000000000000000000000000202000000011245080520190000601165POSC1002503        02628082986N+                                                                                                                                                                                                                                    
11002503        SMPOS391110148090320190804201903300305900130803572000000001000000000000000019990000000019620000000000000000000000370000000000000000000019620000000000000PF01011002503        00000000000000000000000000000000000000000000000000000000000000000000000000000000000000000000986 +                                                                                                                  
21002503        39111014800000006205009032019152514515787******9918   0000000199900000000000000000000000000101000000019990080420190000630547POSC1002503        02628082986N+                                                                                                                                                                                                                                    
